{
	"contracts/Loops.sol": {
		"Loops": {
			"abi": [
				{
					"inputs": [],
					"name": "ourLoop",
					"outputs": [],
					"stateMutability": "nonpayable",
					"type": "function"
				},
				{
					"inputs": [],
					"name": "variableFour",
					"outputs": [
						{
							"internalType": "uint256",
							"name": "",
							"type": "uint256"
						}
					],
					"stateMutability": "view",
					"type": "function"
				},
				{
					"inputs": [],
					"name": "variableOne",
					"outputs": [
						{
							"internalType": "uint256",
							"name": "",
							"type": "uint256"
						}
					],
					"stateMutability": "view",
					"type": "function"
				},
				{
					"inputs": [],
					"name": "variableThree",
					"outputs": [
						{
							"internalType": "uint256",
							"name": "",
							"type": "uint256"
						}
					],
					"stateMutability": "view",
					"type": "function"
				},
				{
					"inputs": [],
					"name": "variableTwo",
					"outputs": [
						{
							"internalType": "uint256",
							"name": "",
							"type": "uint256"
						}
					],
					"stateMutability": "view",
					"type": "function"
				}
			],
			"devdoc": {
				"kind": "dev",
				"methods": {},
				"version": 1
			},
			"evm": {
				"assembly": "    /* \"contracts/Loops.sol\":27:601  contract Loops {... */\n  mstore(0x40, 0x80)\n  callvalue\n  dup1\n  iszero\n  tag_1\n  jumpi\n  0x00\n  dup1\n  revert\ntag_1:\n  pop\n  dataSize(sub_0)\n  dup1\n  dataOffset(sub_0)\n  0x00\n  codecopy\n  0x00\n  return\nstop\n\nsub_0: assembly {\n        /* \"contracts/Loops.sol\":27:601  contract Loops {... */\n      mstore(0x40, 0x80)\n      callvalue\n      dup1\n      iszero\n      tag_1\n      jumpi\n      0x00\n      dup1\n      revert\n    tag_1:\n      pop\n      jumpi(tag_2, lt(calldatasize, 0x04))\n      shr(0xe0, calldataload(0x00))\n      dup1\n      0x13c3e36e\n      eq\n      tag_3\n      jumpi\n      dup1\n      0x47a5d840\n      eq\n      tag_4\n      jumpi\n      dup1\n      0x799ac8af\n      eq\n      tag_5\n      jumpi\n      dup1\n      0xaf1d18ec\n      eq\n      tag_6\n      jumpi\n      dup1\n      0xd31514a3\n      eq\n      tag_7\n      jumpi\n    tag_2:\n      0x00\n      dup1\n      revert\n        /* \"contracts/Loops.sol\":81:104  uint public variableTwo */\n    tag_3:\n      tag_8\n      tag_9\n      jump\t// in\n    tag_8:\n      mload(0x40)\n      tag_10\n      swap2\n      swap1\n      tag_11\n      jump\t// in\n    tag_10:\n      mload(0x40)\n      dup1\n      swap2\n      sub\n      swap1\n      return\n        /* \"contracts/Loops.sol\":143:167  uint public variableFour */\n    tag_4:\n      tag_12\n      tag_13\n      jump\t// in\n    tag_12:\n      mload(0x40)\n      tag_14\n      swap2\n      swap1\n      tag_11\n      jump\t// in\n    tag_14:\n      mload(0x40)\n      dup1\n      swap2\n      sub\n      swap1\n      return\n        /* \"contracts/Loops.sol\":111:136  uint public variableThree */\n    tag_5:\n      tag_15\n      tag_16\n      jump\t// in\n    tag_15:\n      mload(0x40)\n      tag_17\n      swap2\n      swap1\n      tag_11\n      jump\t// in\n    tag_17:\n      mload(0x40)\n      dup1\n      swap2\n      sub\n      swap1\n      return\n        /* \"contracts/Loops.sol\":176:598  function ourLoop() public {... */\n    tag_6:\n      tag_18\n      tag_19\n      jump\t// in\n    tag_18:\n      stop\n        /* \"contracts/Loops.sol\":51:74  uint public variableOne */\n    tag_7:\n      tag_20\n      tag_21\n      jump\t// in\n    tag_20:\n      mload(0x40)\n      tag_22\n      swap2\n      swap1\n      tag_11\n      jump\t// in\n    tag_22:\n      mload(0x40)\n      dup1\n      swap2\n      sub\n      swap1\n      return\n        /* \"contracts/Loops.sol\":81:104  uint public variableTwo */\n    tag_9:\n      sload(0x01)\n      dup2\n      jump\t// out\n        /* \"contracts/Loops.sol\":143:167  uint public variableFour */\n    tag_13:\n      sload(0x03)\n      dup2\n      jump\t// out\n        /* \"contracts/Loops.sol\":111:136  uint public variableThree */\n    tag_16:\n      sload(0x02)\n      dup2\n      jump\t// out\n        /* \"contracts/Loops.sol\":176:598  function ourLoop() public {... */\n    tag_19:\n        /* \"contracts/Loops.sol\":217:223  uint i */\n      0x00\n        /* \"contracts/Loops.sol\":213:490  for(uint i = 0; i < 20; i++){... */\n    tag_24:\n        /* \"contracts/Loops.sol\":233:235  20 */\n      0x14\n        /* \"contracts/Loops.sol\":229:230  i */\n      dup2\n        /* \"contracts/Loops.sol\":229:235  i < 20 */\n      lt\n        /* \"contracts/Loops.sol\":213:490  for(uint i = 0; i < 20; i++){... */\n      iszero\n      tag_25\n      jumpi\n        /* \"contracts/Loops.sol\":264:266  10 */\n      0x0a\n        /* \"contracts/Loops.sol\":259:260  i */\n      dup2\n        /* \"contracts/Loops.sol\":259:266  i == 10 */\n      sub\n        /* \"contracts/Loops.sol\":256:344  if(i == 10){... */\n      tag_27\n      jumpi\n        /* \"contracts/Loops.sol\":300:301  i */\n      dup1\n        /* \"contracts/Loops.sol\":286:297  variableOne */\n      0x00\n        /* \"contracts/Loops.sol\":286:301  variableOne = i */\n      dup2\n      swap1\n      sstore\n      pop\n        /* \"contracts/Loops.sol\":320:328  continue */\n      jump(tag_26)\n        /* \"contracts/Loops.sol\":256:344  if(i == 10){... */\n    tag_27:\n        /* \"contracts/Loops.sol\":368:370  15 */\n      0x0f\n        /* \"contracts/Loops.sol\":363:364  i */\n      dup2\n        /* \"contracts/Loops.sol\":363:370  i == 15 */\n      sub\n        /* \"contracts/Loops.sol\":360:445  if(i == 15){... */\n      tag_28\n      jumpi\n        /* \"contracts/Loops.sol\":404:405  i */\n      dup1\n        /* \"contracts/Loops.sol\":390:401  variableTwo */\n      0x01\n        /* \"contracts/Loops.sol\":390:405  variableTwo = i */\n      dup2\n      swap1\n      sstore\n      pop\n        /* \"contracts/Loops.sol\":424:429  break */\n      jump(tag_25)\n        /* \"contracts/Loops.sol\":360:445  if(i == 15){... */\n    tag_28:\n        /* \"contracts/Loops.sol\":477:478  i */\n      dup1\n        /* \"contracts/Loops.sol\":461:474  variableThree */\n      0x02\n        /* \"contracts/Loops.sol\":461:478  variableThree = i */\n      dup2\n      swap1\n      sstore\n      pop\n        /* \"contracts/Loops.sol\":213:490  for(uint i = 0; i < 20; i++){... */\n    tag_26:\n        /* \"contracts/Loops.sol\":237:240  i++ */\n      dup1\n      dup1\n      tag_29\n      swap1\n      tag_30\n      jump\t// in\n    tag_29:\n      swap2\n      pop\n      pop\n        /* \"contracts/Loops.sol\":213:490  for(uint i = 0; i < 20; i++){... */\n      jump(tag_24)\n    tag_25:\n      pop\n        /* \"contracts/Loops.sol\":502:508  uint h */\n      0x00\n        /* \"contracts/Loops.sol\":519:562  while(h < 10){... */\n    tag_31:\n        /* \"contracts/Loops.sol\":529:531  10 */\n      0x0a\n        /* \"contracts/Loops.sol\":525:526  h */\n      dup2\n        /* \"contracts/Loops.sol\":525:531  h < 10 */\n      lt\n        /* \"contracts/Loops.sol\":519:562  while(h < 10){... */\n      iszero\n      tag_32\n      jumpi\n        /* \"contracts/Loops.sol\":547:550  h++ */\n      dup1\n      dup1\n      tag_33\n      swap1\n      tag_30\n      jump\t// in\n    tag_33:\n      swap2\n      pop\n      pop\n        /* \"contracts/Loops.sol\":519:562  while(h < 10){... */\n      jump(tag_31)\n    tag_32:\n        /* \"contracts/Loops.sol\":589:590  h */\n      dup1\n        /* \"contracts/Loops.sol\":574:586  variableFour */\n      0x03\n        /* \"contracts/Loops.sol\":574:590  variableFour = h */\n      dup2\n      swap1\n      sstore\n      pop\n        /* \"contracts/Loops.sol\":202:598  {... */\n      pop\n        /* \"contracts/Loops.sol\":176:598  function ourLoop() public {... */\n      jump\t// out\n        /* \"contracts/Loops.sol\":51:74  uint public variableOne */\n    tag_21:\n      sload(0x00)\n      dup2\n      jump\t// out\n        /* \"#utility.yul\":7:84   */\n    tag_34:\n        /* \"#utility.yul\":44:51   */\n      0x00\n        /* \"#utility.yul\":73:78   */\n      dup2\n        /* \"#utility.yul\":62:78   */\n      swap1\n      pop\n        /* \"#utility.yul\":7:84   */\n      swap2\n      swap1\n      pop\n      jump\t// out\n        /* \"#utility.yul\":90:208   */\n    tag_35:\n        /* \"#utility.yul\":177:201   */\n      tag_40\n        /* \"#utility.yul\":195:200   */\n      dup2\n        /* \"#utility.yul\":177:201   */\n      tag_34\n      jump\t// in\n    tag_40:\n        /* \"#utility.yul\":172:175   */\n      dup3\n        /* \"#utility.yul\":165:202   */\n      mstore\n        /* \"#utility.yul\":90:208   */\n      pop\n      pop\n      jump\t// out\n        /* \"#utility.yul\":214:436   */\n    tag_11:\n        /* \"#utility.yul\":307:311   */\n      0x00\n        /* \"#utility.yul\":345:347   */\n      0x20\n        /* \"#utility.yul\":334:343   */\n      dup3\n        /* \"#utility.yul\":330:348   */\n      add\n        /* \"#utility.yul\":322:348   */\n      swap1\n      pop\n        /* \"#utility.yul\":358:429   */\n      tag_42\n        /* \"#utility.yul\":426:427   */\n      0x00\n        /* \"#utility.yul\":415:424   */\n      dup4\n        /* \"#utility.yul\":411:428   */\n      add\n        /* \"#utility.yul\":402:408   */\n      dup5\n        /* \"#utility.yul\":358:429   */\n      tag_35\n      jump\t// in\n    tag_42:\n        /* \"#utility.yul\":214:436   */\n      swap3\n      swap2\n      pop\n      pop\n      jump\t// out\n        /* \"#utility.yul\":442:622   */\n    tag_36:\n        /* \"#utility.yul\":490:567   */\n      0x4e487b7100000000000000000000000000000000000000000000000000000000\n        /* \"#utility.yul\":487:488   */\n      0x00\n        /* \"#utility.yul\":480:568   */\n      mstore\n        /* \"#utility.yul\":587:591   */\n      0x11\n        /* \"#utility.yul\":584:585   */\n      0x04\n        /* \"#utility.yul\":577:592   */\n      mstore\n        /* \"#utility.yul\":611:615   */\n      0x24\n        /* \"#utility.yul\":608:609   */\n      0x00\n        /* \"#utility.yul\":601:616   */\n      revert\n        /* \"#utility.yul\":628:861   */\n    tag_30:\n        /* \"#utility.yul\":667:670   */\n      0x00\n        /* \"#utility.yul\":690:714   */\n      tag_45\n        /* \"#utility.yul\":708:713   */\n      dup3\n        /* \"#utility.yul\":690:714   */\n      tag_34\n      jump\t// in\n    tag_45:\n        /* \"#utility.yul\":681:714   */\n      swap2\n      pop\n        /* \"#utility.yul\":736:802   */\n      0xffffffffffffffffffffffffffffffffffffffffffffffffffffffffffffffff\n        /* \"#utility.yul\":729:734   */\n      dup3\n        /* \"#utility.yul\":726:803   */\n      sub\n        /* \"#utility.yul\":723:826   */\n      tag_46\n      jumpi\n        /* \"#utility.yul\":806:824   */\n      tag_47\n      tag_36\n      jump\t// in\n    tag_47:\n        /* \"#utility.yul\":723:826   */\n    tag_46:\n        /* \"#utility.yul\":853:854   */\n      0x01\n        /* \"#utility.yul\":846:851   */\n      dup3\n        /* \"#utility.yul\":842:855   */\n      add\n        /* \"#utility.yul\":835:855   */\n      swap1\n      pop\n        /* \"#utility.yul\":628:861   */\n      swap2\n      swap1\n      pop\n      jump\t// out\n\n    auxdata: 0xa264697066735822122068c1c7ada0c3dc0e6c9123308988143669617c5dba1d6aa53f1ac8589595ea1464736f6c63430008140033\n}\n",
				"bytecode": {
					"linkReferences": {},
					"object": "608060405234801561000f575f80fd5b506102438061001d5f395ff3fe608060405234801561000f575f80fd5b5060043610610055575f3560e01c806313c3e36e1461005957806347a5d84014610077578063799ac8af14610095578063af1d18ec146100b3578063d31514a3146100bd575b5f80fd5b6100616100db565b60405161006e9190610180565b60405180910390f35b61007f6100e1565b60405161008c9190610180565b60405180910390f35b61009d6100e7565b6040516100aa9190610180565b60405180910390f35b6100bb6100ed565b005b6100c5610163565b6040516100d29190610180565b60405180910390f35b60015481565b60035481565b60025481565b5f5b601481101561013a57600a810361010b57805f81905550610127565b600f810361011f578060018190555061013a565b806002819055505b8080610132906101c6565b9150506100ef565b505f5b600a811015610159578080610151906101c6565b91505061013d565b8060038190555050565b5f5481565b5f819050919050565b61017a81610168565b82525050565b5f6020820190506101935f830184610171565b92915050565b7f4e487b71000000000000000000000000000000000000000000000000000000005f52601160045260245ffd5b5f6101d082610168565b91507fffffffffffffffffffffffffffffffffffffffffffffffffffffffffffffffff820361020257610201610199565b5b60018201905091905056fea264697066735822122068c1c7ada0c3dc0e6c9123308988143669617c5dba1d6aa53f1ac8589595ea1464736f6c63430008140033",
					"opcodes": "PUSH1 0x80 PUSH1 0x40 MSTORE CALLVALUE DUP1 ISZERO PUSH2 0xF JUMPI PUSH0 DUP1 REVERT JUMPDEST POP PUSH2 0x243 DUP1 PUSH2 0x1D PUSH0 CODECOPY PUSH0 RETURN INVALID PUSH1 0x80 PUSH1 0x40 MSTORE CALLVALUE DUP1 ISZERO PUSH2 0xF JUMPI PUSH0 DUP1 REVERT JUMPDEST POP PUSH1 0x4 CALLDATASIZE LT PUSH2 0x55 JUMPI PUSH0 CALLDATALOAD PUSH1 0xE0 SHR DUP1 PUSH4 0x13C3E36E EQ PUSH2 0x59 JUMPI DUP1 PUSH4 0x47A5D840 EQ PUSH2 0x77 JUMPI DUP1 PUSH4 0x799AC8AF EQ PUSH2 0x95 JUMPI DUP1 PUSH4 0xAF1D18EC EQ PUSH2 0xB3 JUMPI DUP1 PUSH4 0xD31514A3 EQ PUSH2 0xBD JUMPI JUMPDEST PUSH0 DUP1 REVERT JUMPDEST PUSH2 0x61 PUSH2 0xDB JUMP JUMPDEST PUSH1 0x40 MLOAD PUSH2 0x6E SWAP2 SWAP1 PUSH2 0x180 JUMP JUMPDEST PUSH1 0x40 MLOAD DUP1 SWAP2 SUB SWAP1 RETURN JUMPDEST PUSH2 0x7F PUSH2 0xE1 JUMP JUMPDEST PUSH1 0x40 MLOAD PUSH2 0x8C SWAP2 SWAP1 PUSH2 0x180 JUMP JUMPDEST PUSH1 0x40 MLOAD DUP1 SWAP2 SUB SWAP1 RETURN JUMPDEST PUSH2 0x9D PUSH2 0xE7 JUMP JUMPDEST PUSH1 0x40 MLOAD PUSH2 0xAA SWAP2 SWAP1 PUSH2 0x180 JUMP JUMPDEST PUSH1 0x40 MLOAD DUP1 SWAP2 SUB SWAP1 RETURN JUMPDEST PUSH2 0xBB PUSH2 0xED JUMP JUMPDEST STOP JUMPDEST PUSH2 0xC5 PUSH2 0x163 JUMP JUMPDEST PUSH1 0x40 MLOAD PUSH2 0xD2 SWAP2 SWAP1 PUSH2 0x180 JUMP JUMPDEST PUSH1 0x40 MLOAD DUP1 SWAP2 SUB SWAP1 RETURN JUMPDEST PUSH1 0x1 SLOAD DUP2 JUMP JUMPDEST PUSH1 0x3 SLOAD DUP2 JUMP JUMPDEST PUSH1 0x2 SLOAD DUP2 JUMP JUMPDEST PUSH0 JUMPDEST PUSH1 0x14 DUP2 LT ISZERO PUSH2 0x13A JUMPI PUSH1 0xA DUP2 SUB PUSH2 0x10B JUMPI DUP1 PUSH0 DUP2 SWAP1 SSTORE POP PUSH2 0x127 JUMP JUMPDEST PUSH1 0xF DUP2 SUB PUSH2 0x11F JUMPI DUP1 PUSH1 0x1 DUP2 SWAP1 SSTORE POP PUSH2 0x13A JUMP JUMPDEST DUP1 PUSH1 0x2 DUP2 SWAP1 SSTORE POP JUMPDEST DUP1 DUP1 PUSH2 0x132 SWAP1 PUSH2 0x1C6 JUMP JUMPDEST SWAP2 POP POP PUSH2 0xEF JUMP JUMPDEST POP PUSH0 JUMPDEST PUSH1 0xA DUP2 LT ISZERO PUSH2 0x159 JUMPI DUP1 DUP1 PUSH2 0x151 SWAP1 PUSH2 0x1C6 JUMP JUMPDEST SWAP2 POP POP PUSH2 0x13D JUMP JUMPDEST DUP1 PUSH1 0x3 DUP2 SWAP1 SSTORE POP POP JUMP JUMPDEST PUSH0 SLOAD DUP2 JUMP JUMPDEST PUSH0 DUP2 SWAP1 POP SWAP2 SWAP1 POP JUMP JUMPDEST PUSH2 0x17A DUP2 PUSH2 0x168 JUMP JUMPDEST DUP3 MSTORE POP POP JUMP JUMPDEST PUSH0 PUSH1 0x20 DUP3 ADD SWAP1 POP PUSH2 0x193 PUSH0 DUP4 ADD DUP5 PUSH2 0x171 JUMP JUMPDEST SWAP3 SWAP2 POP POP JUMP JUMPDEST PUSH32 0x4E487B7100000000000000000000000000000000000000000000000000000000 PUSH0 MSTORE PUSH1 0x11 PUSH1 0x4 MSTORE PUSH1 0x24 PUSH0 REVERT JUMPDEST PUSH0 PUSH2 0x1D0 DUP3 PUSH2 0x168 JUMP JUMPDEST SWAP2 POP PUSH32 0xFFFFFFFFFFFFFFFFFFFFFFFFFFFFFFFFFFFFFFFFFFFFFFFFFFFFFFFFFFFFFFFF DUP3 SUB PUSH2 0x202 JUMPI PUSH2 0x201 PUSH2 0x199 JUMP JUMPDEST JUMPDEST PUSH1 0x1 DUP3 ADD SWAP1 POP SWAP2 SWAP1 POP JUMP INVALID LOG2 PUSH5 0x6970667358 0x22 SLT KECCAK256 PUSH9 0xC1C7ADA0C3DC0E6C91 0x23 ADDRESS DUP10 DUP9 EQ CALLDATASIZE PUSH10 0x617C5DBA1D6AA53F1AC8 PC SWAP6 SWAP6 0xEA EQ PUSH5 0x736F6C6343 STOP ADDMOD EQ STOP CALLER "
				},
				"gasEstimates": {
					"creation": {
						"codeDepositCost": "115800",
						"executionCost": "163",
						"totalCost": "115963"
					},
					"external": {
						"ourLoop()": "infinite",
						"variableFour()": "2425",
						"variableOne()": "2490",
						"variableThree()": "2447",
						"variableTwo()": "2403"
					}
				},
				"methodIdentifiers": {
					"ourLoop()": "af1d18ec",
					"variableFour()": "47a5d840",
					"variableOne()": "d31514a3",
					"variableThree()": "799ac8af",
					"variableTwo()": "13c3e36e"
				}
			},
			"storageLayout": {
				"storage": [
					{
						"astId": 3,
						"contract": "contracts/Loops.sol:Loops",
						"label": "variableOne",
						"offset": 0,
						"slot": "0",
						"type": "t_uint256"
					},
					{
						"astId": 5,
						"contract": "contracts/Loops.sol:Loops",
						"label": "variableTwo",
						"offset": 0,
						"slot": "1",
						"type": "t_uint256"
					},
					{
						"astId": 7,
						"contract": "contracts/Loops.sol:Loops",
						"label": "variableThree",
						"offset": 0,
						"slot": "2",
						"type": "t_uint256"
					},
					{
						"astId": 9,
						"contract": "contracts/Loops.sol:Loops",
						"label": "variableFour",
						"offset": 0,
						"slot": "3",
						"type": "t_uint256"
					}
				],
				"types": {
					"t_uint256": {
						"encoding": "inplace",
						"label": "uint256",
						"numberOfBytes": "32"
					}
				}
			},
			"userdoc": {
				"kind": "user",
				"methods": {},
				"version": 1
			}
		}
	}
}