{
	"contracts/Enum.sol": {
		"Struct": {
			"abi": [
				{
					"inputs": [
						{
							"internalType": "string",
							"name": "_description",
							"type": "string"
						}
					],
					"name": "createGames",
					"outputs": [],
					"stateMutability": "nonpayable",
					"type": "function"
				},
				{
					"inputs": [
						{
							"internalType": "uint256",
							"name": "_index",
							"type": "uint256"
						}
					],
					"name": "get",
					"outputs": [
						{
							"components": [
								{
									"internalType": "string",
									"name": "description",
									"type": "string"
								},
								{
									"internalType": "bool",
									"name": "played",
									"type": "bool"
								}
							],
							"internalType": "struct Struct.Games",
							"name": "",
							"type": "tuple"
						}
					],
					"stateMutability": "view",
					"type": "function"
				},
				{
					"inputs": [
						{
							"internalType": "uint256",
							"name": "_index",
							"type": "uint256"
						}
					],
					"name": "setOpposite",
					"outputs": [],
					"stateMutability": "nonpayable",
					"type": "function"
				},
				{
					"inputs": [
						{
							"internalType": "uint256",
							"name": "_index",
							"type": "uint256"
						},
						{
							"internalType": "string",
							"name": "_description",
							"type": "string"
						}
					],
					"name": "updateDescription",
					"outputs": [],
					"stateMutability": "nonpayable",
					"type": "function"
				}
			],
			"devdoc": {
				"kind": "dev",
				"methods": {},
				"version": 1
			},
			"evm": {
				"assembly": "    /* \"contracts/Enum.sol\":27:910  contract Struct {... */\n  mstore(0x40, 0x80)\n  callvalue\n  dup1\n  iszero\n  tag_1\n  jumpi\n  0x00\n  dup1\n  revert\ntag_1:\n  pop\n  dataSize(sub_0)\n  dup1\n  dataOffset(sub_0)\n  0x00\n  codecopy\n  0x00\n  return\nstop\n\nsub_0: assembly {\n        /* \"contracts/Enum.sol\":27:910  contract Struct {... */\n      mstore(0x40, 0x80)\n      callvalue\n      dup1\n      iszero\n      tag_1\n      jumpi\n      0x00\n      dup1\n      revert\n    tag_1:\n      pop\n      jumpi(tag_2, lt(calldatasize, 0x04))\n      shr(0xe0, calldataload(0x00))\n      dup1\n      0x1014e7e4\n      eq\n      tag_3\n      jumpi\n      dup1\n      0x14dee4b3\n      eq\n      tag_4\n      jumpi\n      dup1\n      0x1ec039d5\n      eq\n      tag_5\n      jumpi\n      dup1\n      0x9507d39a\n      eq\n      tag_6\n      jumpi\n    tag_2:\n      0x00\n      dup1\n      revert\n        /* \"contracts/Enum.sol\":268:586  function createGames(string memory _description) public {... */\n    tag_3:\n      tag_7\n      0x04\n      dup1\n      calldatasize\n      sub\n      dup2\n      add\n      swap1\n      tag_8\n      swap2\n      swap1\n      tag_9\n      jump\t// in\n    tag_8:\n      tag_10\n      jump\t// in\n    tag_7:\n      stop\n        /* \"contracts/Enum.sol\":594:764  function updateDescription(uint _index, string memory _description) public {... */\n    tag_4:\n      tag_11\n      0x04\n      dup1\n      calldatasize\n      sub\n      dup2\n      add\n      swap1\n      tag_12\n      swap2\n      swap1\n      tag_13\n      jump\t// in\n    tag_12:\n      tag_14\n      jump\t// in\n    tag_11:\n      stop\n        /* \"contracts/Enum.sol\":774:905  function setOpposite(uint _index) public {... */\n    tag_5:\n      tag_15\n      0x04\n      dup1\n      calldatasize\n      sub\n      dup2\n      add\n      swap1\n      tag_16\n      swap2\n      swap1\n      tag_17\n      jump\t// in\n    tag_16:\n      tag_18\n      jump\t// in\n    tag_15:\n      stop\n        /* \"contracts/Enum.sol\":162:260  function get(uint _index) public view returns(Games memory){... */\n    tag_6:\n      tag_19\n      0x04\n      dup1\n      calldatasize\n      sub\n      dup2\n      add\n      swap1\n      tag_20\n      swap2\n      swap1\n      tag_17\n      jump\t// in\n    tag_20:\n      tag_21\n      jump\t// in\n    tag_19:\n      mload(0x40)\n      tag_22\n      swap2\n      swap1\n      tag_23\n      jump\t// in\n    tag_22:\n      mload(0x40)\n      dup1\n      swap2\n      sub\n      swap1\n      return\n        /* \"contracts/Enum.sol\":268:586  function createGames(string memory _description) public {... */\n    tag_10:\n        /* \"contracts/Enum.sol\":335:340  games */\n      0x00\n        /* \"contracts/Enum.sol\":346:372  Games(_description, false) */\n      mload(0x40)\n      dup1\n      0x40\n      add\n      0x40\n      mstore\n      dup1\n        /* \"contracts/Enum.sol\":352:364  _description */\n      dup4\n        /* \"contracts/Enum.sol\":346:372  Games(_description, false) */\n      dup2\n      mstore\n      0x20\n      add\n        /* \"contracts/Enum.sol\":366:371  false */\n      0x00\n        /* \"contracts/Enum.sol\":346:372  Games(_description, false) */\n      iszero\n      iszero\n      dup2\n      mstore\n      pop\n        /* \"contracts/Enum.sol\":335:373  games.push(Games(_description, false)) */\n      swap1\n      dup1\n      0x01\n      dup2\n      sload\n      add\n      dup1\n      dup3\n      sstore\n      dup1\n      swap2\n      pop\n      pop\n      0x01\n      swap1\n      sub\n      swap1\n      0x00\n      mstore\n      keccak256(0x00, 0x20)\n      swap1\n      0x02\n      mul\n      add\n      0x00\n      swap1\n      swap2\n      swap1\n      swap2\n      swap1\n      swap2\n      pop\n      0x00\n      dup3\n      add\n      mload\n      dup2\n      0x00\n      add\n      swap1\n      dup2\n      tag_26\n      swap2\n      swap1\n      tag_27\n      jump\t// in\n    tag_26:\n      pop\n      0x20\n      dup3\n      add\n      mload\n      dup2\n      0x01\n      add\n      exp(0x0100, 0x00)\n      dup2\n      sload\n      dup2\n      0xff\n      mul\n      not\n      and\n      swap1\n      dup4\n      iszero\n      iszero\n      mul\n      or\n      swap1\n      sstore\n      pop\n      pop\n      pop\n        /* \"contracts/Enum.sol\":386:391  games */\n      0x00\n        /* \"contracts/Enum.sol\":397:447  Games({description: _description, played: false }) */\n      mload(0x40)\n      dup1\n      0x40\n      add\n      0x40\n      mstore\n      dup1\n        /* \"contracts/Enum.sol\":417:429  _description */\n      dup4\n        /* \"contracts/Enum.sol\":397:447  Games({description: _description, played: false }) */\n      dup2\n      mstore\n      0x20\n      add\n        /* \"contracts/Enum.sol\":439:444  false */\n      0x00\n        /* \"contracts/Enum.sol\":397:447  Games({description: _description, played: false }) */\n      iszero\n      iszero\n      dup2\n      mstore\n      pop\n        /* \"contracts/Enum.sol\":386:448  games.push(Games({description: _description, played: false })) */\n      swap1\n      dup1\n      0x01\n      dup2\n      sload\n      add\n      dup1\n      dup3\n      sstore\n      dup1\n      swap2\n      pop\n      pop\n      0x01\n      swap1\n      sub\n      swap1\n      0x00\n      mstore\n      keccak256(0x00, 0x20)\n      swap1\n      0x02\n      mul\n      add\n      0x00\n      swap1\n      swap2\n      swap1\n      swap2\n      swap1\n      swap2\n      pop\n      0x00\n      dup3\n      add\n      mload\n      dup2\n      0x00\n      add\n      swap1\n      dup2\n      tag_29\n      swap2\n      swap1\n      tag_27\n      jump\t// in\n    tag_29:\n      pop\n      0x20\n      dup3\n      add\n      mload\n      dup2\n      0x01\n      add\n      exp(0x0100, 0x00)\n      dup2\n      sload\n      dup2\n      0xff\n      mul\n      not\n      and\n      swap1\n      dup4\n      iszero\n      iszero\n      mul\n      or\n      swap1\n      sstore\n      pop\n      pop\n      pop\n        /* \"contracts/Enum.sol\":461:478  Games memory game */\n      tag_30\n      tag_31\n      jump\t// in\n    tag_30:\n        /* \"contracts/Enum.sol\":510:522  _description */\n      dup2\n        /* \"contracts/Enum.sol\":491:495  game */\n      dup2\n        /* \"contracts/Enum.sol\":491:507  game.description */\n      0x00\n      add\n        /* \"contracts/Enum.sol\":491:522  game.description = _description */\n      dup2\n      swap1\n      mstore\n      pop\n        /* \"contracts/Enum.sol\":547:551  true */\n      0x01\n        /* \"contracts/Enum.sol\":533:537  game */\n      dup2\n        /* \"contracts/Enum.sol\":533:544  game.played */\n      0x20\n      add\n        /* \"contracts/Enum.sol\":533:551  game.played = true */\n      swap1\n      iszero\n      iszero\n      swap1\n      dup2\n      iszero\n      iszero\n      dup2\n      mstore\n      pop\n      pop\n        /* \"contracts/Enum.sol\":562:567  games */\n      0x00\n        /* \"contracts/Enum.sol\":573:577  game */\n      dup2\n        /* \"contracts/Enum.sol\":562:578  games.push(game) */\n      swap1\n      dup1\n      0x01\n      dup2\n      sload\n      add\n      dup1\n      dup3\n      sstore\n      dup1\n      swap2\n      pop\n      pop\n      0x01\n      swap1\n      sub\n      swap1\n      0x00\n      mstore\n      keccak256(0x00, 0x20)\n      swap1\n      0x02\n      mul\n      add\n      0x00\n      swap1\n      swap2\n      swap1\n      swap2\n      swap1\n      swap2\n      pop\n      0x00\n      dup3\n      add\n      mload\n      dup2\n      0x00\n      add\n      swap1\n      dup2\n      tag_33\n      swap2\n      swap1\n      tag_27\n      jump\t// in\n    tag_33:\n      pop\n      0x20\n      dup3\n      add\n      mload\n      dup2\n      0x01\n      add\n      exp(0x0100, 0x00)\n      dup2\n      sload\n      dup2\n      0xff\n      mul\n      not\n      and\n      swap1\n      dup4\n      iszero\n      iszero\n      mul\n      or\n      swap1\n      sstore\n      pop\n      pop\n      pop\n        /* \"contracts/Enum.sol\":324:586  {... */\n      pop\n        /* \"contracts/Enum.sol\":268:586  function createGames(string memory _description) public {... */\n      pop\n      jump\t// out\n        /* \"contracts/Enum.sol\":594:764  function updateDescription(uint _index, string memory _description) public {... */\n    tag_14:\n        /* \"contracts/Enum.sol\":680:698  Games storage game */\n      0x00\n        /* \"contracts/Enum.sol\":701:706  games */\n      dup1\n        /* \"contracts/Enum.sol\":707:713  _index */\n      dup4\n        /* \"contracts/Enum.sol\":701:714  games[_index] */\n      dup2\n      sload\n      dup2\n      lt\n      tag_35\n      jumpi\n      tag_36\n      tag_37\n      jump\t// in\n    tag_36:\n    tag_35:\n      swap1\n      0x00\n      mstore\n      keccak256(0x00, 0x20)\n      swap1\n      0x02\n      mul\n      add\n        /* \"contracts/Enum.sol\":680:714  Games storage game = games[_index] */\n      swap1\n      pop\n        /* \"contracts/Enum.sol\":744:756  _description */\n      dup2\n        /* \"contracts/Enum.sol\":725:729  game */\n      dup2\n        /* \"contracts/Enum.sol\":725:741  game.description */\n      0x00\n      add\n        /* \"contracts/Enum.sol\":725:756  game.description = _description */\n      swap1\n      dup2\n      tag_39\n      swap2\n      swap1\n      tag_27\n      jump\t// in\n    tag_39:\n      pop\n        /* \"contracts/Enum.sol\":669:764  {... */\n      pop\n        /* \"contracts/Enum.sol\":594:764  function updateDescription(uint _index, string memory _description) public {... */\n      pop\n      pop\n      jump\t// out\n        /* \"contracts/Enum.sol\":774:905  function setOpposite(uint _index) public {... */\n    tag_18:\n        /* \"contracts/Enum.sol\":826:844  Games storage game */\n      0x00\n        /* \"contracts/Enum.sol\":847:852  games */\n      dup1\n        /* \"contracts/Enum.sol\":853:859  _index */\n      dup3\n        /* \"contracts/Enum.sol\":847:860  games[_index] */\n      dup2\n      sload\n      dup2\n      lt\n      tag_41\n      jumpi\n      tag_42\n      tag_37\n      jump\t// in\n    tag_42:\n    tag_41:\n      swap1\n      0x00\n      mstore\n      keccak256(0x00, 0x20)\n      swap1\n      0x02\n      mul\n      add\n        /* \"contracts/Enum.sol\":826:860  Games storage game = games[_index] */\n      swap1\n      pop\n        /* \"contracts/Enum.sol\":886:890  game */\n      dup1\n        /* \"contracts/Enum.sol\":886:897  game.played */\n      0x01\n      add\n      0x00\n      swap1\n      sload\n      swap1\n      0x0100\n      exp\n      swap1\n      div\n      0xff\n      and\n        /* \"contracts/Enum.sol\":885:897  !game.played */\n      iszero\n        /* \"contracts/Enum.sol\":871:875  game */\n      dup2\n        /* \"contracts/Enum.sol\":871:882  game.played */\n      0x01\n      add\n      0x00\n        /* \"contracts/Enum.sol\":871:897  game.played = !game.played */\n      0x0100\n      exp\n      dup2\n      sload\n      dup2\n      0xff\n      mul\n      not\n      and\n      swap1\n      dup4\n      iszero\n      iszero\n      mul\n      or\n      swap1\n      sstore\n      pop\n        /* \"contracts/Enum.sol\":815:905  {... */\n      pop\n        /* \"contracts/Enum.sol\":774:905  function setOpposite(uint _index) public {... */\n      pop\n      jump\t// out\n        /* \"contracts/Enum.sol\":162:260  function get(uint _index) public view returns(Games memory){... */\n    tag_21:\n        /* \"contracts/Enum.sol\":208:220  Games memory */\n      tag_44\n      tag_31\n      jump\t// in\n    tag_44:\n        /* \"contracts/Enum.sol\":239:244  games */\n      0x00\n        /* \"contracts/Enum.sol\":245:251  _index */\n      dup3\n        /* \"contracts/Enum.sol\":239:252  games[_index] */\n      dup2\n      sload\n      dup2\n      lt\n      tag_46\n      jumpi\n      tag_47\n      tag_37\n      jump\t// in\n    tag_47:\n    tag_46:\n      swap1\n      0x00\n      mstore\n      keccak256(0x00, 0x20)\n      swap1\n      0x02\n      mul\n      add\n        /* \"contracts/Enum.sol\":232:252  return games[_index] */\n      mload(0x40)\n      dup1\n      0x40\n      add\n      0x40\n      mstore\n      swap1\n      dup2\n      0x00\n      dup3\n      add\n      dup1\n      sload\n      tag_49\n      swap1\n      tag_50\n      jump\t// in\n    tag_49:\n      dup1\n      0x1f\n      add\n      0x20\n      dup1\n      swap2\n      div\n      mul\n      0x20\n      add\n      mload(0x40)\n      swap1\n      dup2\n      add\n      0x40\n      mstore\n      dup1\n      swap3\n      swap2\n      swap1\n      dup2\n      dup2\n      mstore\n      0x20\n      add\n      dup3\n      dup1\n      sload\n      tag_51\n      swap1\n      tag_50\n      jump\t// in\n    tag_51:\n      dup1\n      iszero\n      tag_52\n      jumpi\n      dup1\n      0x1f\n      lt\n      tag_53\n      jumpi\n      0x0100\n      dup1\n      dup4\n      sload\n      div\n      mul\n      dup4\n      mstore\n      swap2\n      0x20\n      add\n      swap2\n      jump(tag_52)\n    tag_53:\n      dup3\n      add\n      swap2\n      swap1\n      0x00\n      mstore\n      keccak256(0x00, 0x20)\n      swap1\n    tag_54:\n      dup2\n      sload\n      dup2\n      mstore\n      swap1\n      0x01\n      add\n      swap1\n      0x20\n      add\n      dup1\n      dup4\n      gt\n      tag_54\n      jumpi\n      dup3\n      swap1\n      sub\n      0x1f\n      and\n      dup3\n      add\n      swap2\n    tag_52:\n      pop\n      pop\n      pop\n      pop\n      pop\n      dup2\n      mstore\n      0x20\n      add\n      0x01\n      dup3\n      add\n      0x00\n      swap1\n      sload\n      swap1\n      0x0100\n      exp\n      swap1\n      div\n      0xff\n      and\n      iszero\n      iszero\n      iszero\n      iszero\n      dup2\n      mstore\n      pop\n      pop\n      swap1\n      pop\n        /* \"contracts/Enum.sol\":162:260  function get(uint _index) public view returns(Games memory){... */\n      swap2\n      swap1\n      pop\n      jump\t// out\n    tag_31:\n      mload(0x40)\n      dup1\n      0x40\n      add\n      0x40\n      mstore\n      dup1\n      0x60\n      dup2\n      mstore\n      0x20\n      add\n      iszero(iszero(0x00))\n      dup2\n      mstore\n      pop\n      swap1\n      jump\t// out\n        /* \"#utility.yul\":7:82   */\n    tag_55:\n        /* \"#utility.yul\":40:46   */\n      0x00\n        /* \"#utility.yul\":73:75   */\n      0x40\n        /* \"#utility.yul\":67:76   */\n      mload\n        /* \"#utility.yul\":57:76   */\n      swap1\n      pop\n        /* \"#utility.yul\":7:82   */\n      swap1\n      jump\t// out\n        /* \"#utility.yul\":88:205   */\n    tag_56:\n        /* \"#utility.yul\":197:198   */\n      0x00\n        /* \"#utility.yul\":194:195   */\n      dup1\n        /* \"#utility.yul\":187:199   */\n      revert\n        /* \"#utility.yul\":211:328   */\n    tag_57:\n        /* \"#utility.yul\":320:321   */\n      0x00\n        /* \"#utility.yul\":317:318   */\n      dup1\n        /* \"#utility.yul\":310:322   */\n      revert\n        /* \"#utility.yul\":334:451   */\n    tag_58:\n        /* \"#utility.yul\":443:444   */\n      0x00\n        /* \"#utility.yul\":440:441   */\n      dup1\n        /* \"#utility.yul\":433:445   */\n      revert\n        /* \"#utility.yul\":457:574   */\n    tag_59:\n        /* \"#utility.yul\":566:567   */\n      0x00\n        /* \"#utility.yul\":563:564   */\n      dup1\n        /* \"#utility.yul\":556:568   */\n      revert\n        /* \"#utility.yul\":580:682   */\n    tag_60:\n        /* \"#utility.yul\":621:627   */\n      0x00\n        /* \"#utility.yul\":672:674   */\n      0x1f\n        /* \"#utility.yul\":668:675   */\n      not\n        /* \"#utility.yul\":663:665   */\n      0x1f\n        /* \"#utility.yul\":656:661   */\n      dup4\n        /* \"#utility.yul\":652:666   */\n      add\n        /* \"#utility.yul\":648:676   */\n      and\n        /* \"#utility.yul\":638:676   */\n      swap1\n      pop\n        /* \"#utility.yul\":580:682   */\n      swap2\n      swap1\n      pop\n      jump\t// out\n        /* \"#utility.yul\":688:868   */\n    tag_61:\n        /* \"#utility.yul\":736:813   */\n      0x4e487b7100000000000000000000000000000000000000000000000000000000\n        /* \"#utility.yul\":733:734   */\n      0x00\n        /* \"#utility.yul\":726:814   */\n      mstore\n        /* \"#utility.yul\":833:837   */\n      0x41\n        /* \"#utility.yul\":830:831   */\n      0x04\n        /* \"#utility.yul\":823:838   */\n      mstore\n        /* \"#utility.yul\":857:861   */\n      0x24\n        /* \"#utility.yul\":854:855   */\n      0x00\n        /* \"#utility.yul\":847:862   */\n      revert\n        /* \"#utility.yul\":874:1155   */\n    tag_62:\n        /* \"#utility.yul\":957:984   */\n      tag_103\n        /* \"#utility.yul\":979:983   */\n      dup3\n        /* \"#utility.yul\":957:984   */\n      tag_60\n      jump\t// in\n    tag_103:\n        /* \"#utility.yul\":949:955   */\n      dup2\n        /* \"#utility.yul\":945:985   */\n      add\n        /* \"#utility.yul\":1087:1093   */\n      dup2\n        /* \"#utility.yul\":1075:1085   */\n      dup2\n        /* \"#utility.yul\":1072:1094   */\n      lt\n        /* \"#utility.yul\":1051:1069   */\n      0xffffffffffffffff\n        /* \"#utility.yul\":1039:1049   */\n      dup3\n        /* \"#utility.yul\":1036:1070   */\n      gt\n        /* \"#utility.yul\":1033:1095   */\n      or\n        /* \"#utility.yul\":1030:1118   */\n      iszero\n      tag_104\n      jumpi\n        /* \"#utility.yul\":1098:1116   */\n      tag_105\n      tag_61\n      jump\t// in\n    tag_105:\n        /* \"#utility.yul\":1030:1118   */\n    tag_104:\n        /* \"#utility.yul\":1138:1148   */\n      dup1\n        /* \"#utility.yul\":1134:1136   */\n      0x40\n        /* \"#utility.yul\":1127:1149   */\n      mstore\n        /* \"#utility.yul\":917:1155   */\n      pop\n        /* \"#utility.yul\":874:1155   */\n      pop\n      pop\n      jump\t// out\n        /* \"#utility.yul\":1161:1290   */\n    tag_63:\n        /* \"#utility.yul\":1195:1201   */\n      0x00\n        /* \"#utility.yul\":1222:1242   */\n      tag_107\n      tag_55\n      jump\t// in\n    tag_107:\n        /* \"#utility.yul\":1212:1242   */\n      swap1\n      pop\n        /* \"#utility.yul\":1251:1284   */\n      tag_108\n        /* \"#utility.yul\":1279:1283   */\n      dup3\n        /* \"#utility.yul\":1271:1277   */\n      dup3\n        /* \"#utility.yul\":1251:1284   */\n      tag_62\n      jump\t// in\n    tag_108:\n        /* \"#utility.yul\":1161:1290   */\n      swap2\n      swap1\n      pop\n      jump\t// out\n        /* \"#utility.yul\":1296:1604   */\n    tag_64:\n        /* \"#utility.yul\":1358:1362   */\n      0x00\n        /* \"#utility.yul\":1448:1466   */\n      0xffffffffffffffff\n        /* \"#utility.yul\":1440:1446   */\n      dup3\n        /* \"#utility.yul\":1437:1467   */\n      gt\n        /* \"#utility.yul\":1434:1490   */\n      iszero\n      tag_110\n      jumpi\n        /* \"#utility.yul\":1470:1488   */\n      tag_111\n      tag_61\n      jump\t// in\n    tag_111:\n        /* \"#utility.yul\":1434:1490   */\n    tag_110:\n        /* \"#utility.yul\":1508:1537   */\n      tag_112\n        /* \"#utility.yul\":1530:1536   */\n      dup3\n        /* \"#utility.yul\":1508:1537   */\n      tag_60\n      jump\t// in\n    tag_112:\n        /* \"#utility.yul\":1500:1537   */\n      swap1\n      pop\n        /* \"#utility.yul\":1592:1596   */\n      0x20\n        /* \"#utility.yul\":1586:1590   */\n      dup2\n        /* \"#utility.yul\":1582:1597   */\n      add\n        /* \"#utility.yul\":1574:1597   */\n      swap1\n      pop\n        /* \"#utility.yul\":1296:1604   */\n      swap2\n      swap1\n      pop\n      jump\t// out\n        /* \"#utility.yul\":1610:1756   */\n    tag_65:\n        /* \"#utility.yul\":1707:1713   */\n      dup3\n        /* \"#utility.yul\":1702:1705   */\n      dup2\n        /* \"#utility.yul\":1697:1700   */\n      dup4\n        /* \"#utility.yul\":1684:1714   */\n      calldatacopy\n        /* \"#utility.yul\":1748:1749   */\n      0x00\n        /* \"#utility.yul\":1739:1745   */\n      dup4\n        /* \"#utility.yul\":1734:1737   */\n      dup4\n        /* \"#utility.yul\":1730:1746   */\n      add\n        /* \"#utility.yul\":1723:1750   */\n      mstore\n        /* \"#utility.yul\":1610:1756   */\n      pop\n      pop\n      pop\n      jump\t// out\n        /* \"#utility.yul\":1762:2187   */\n    tag_66:\n        /* \"#utility.yul\":1840:1845   */\n      0x00\n        /* \"#utility.yul\":1865:1931   */\n      tag_115\n        /* \"#utility.yul\":1881:1930   */\n      tag_116\n        /* \"#utility.yul\":1923:1929   */\n      dup5\n        /* \"#utility.yul\":1881:1930   */\n      tag_64\n      jump\t// in\n    tag_116:\n        /* \"#utility.yul\":1865:1931   */\n      tag_63\n      jump\t// in\n    tag_115:\n        /* \"#utility.yul\":1856:1931   */\n      swap1\n      pop\n        /* \"#utility.yul\":1954:1960   */\n      dup3\n        /* \"#utility.yul\":1947:1952   */\n      dup2\n        /* \"#utility.yul\":1940:1961   */\n      mstore\n        /* \"#utility.yul\":1992:1996   */\n      0x20\n        /* \"#utility.yul\":1985:1990   */\n      dup2\n        /* \"#utility.yul\":1981:1997   */\n      add\n        /* \"#utility.yul\":2030:2033   */\n      dup5\n        /* \"#utility.yul\":2021:2027   */\n      dup5\n        /* \"#utility.yul\":2016:2019   */\n      dup5\n        /* \"#utility.yul\":2012:2028   */\n      add\n        /* \"#utility.yul\":2009:2034   */\n      gt\n        /* \"#utility.yul\":2006:2118   */\n      iszero\n      tag_117\n      jumpi\n        /* \"#utility.yul\":2037:2116   */\n      tag_118\n      tag_59\n      jump\t// in\n    tag_118:\n        /* \"#utility.yul\":2006:2118   */\n    tag_117:\n        /* \"#utility.yul\":2127:2181   */\n      tag_119\n        /* \"#utility.yul\":2174:2180   */\n      dup5\n        /* \"#utility.yul\":2169:2172   */\n      dup3\n        /* \"#utility.yul\":2164:2167   */\n      dup6\n        /* \"#utility.yul\":2127:2181   */\n      tag_65\n      jump\t// in\n    tag_119:\n        /* \"#utility.yul\":1846:2187   */\n      pop\n        /* \"#utility.yul\":1762:2187   */\n      swap4\n      swap3\n      pop\n      pop\n      pop\n      jump\t// out\n        /* \"#utility.yul\":2207:2547   */\n    tag_67:\n        /* \"#utility.yul\":2263:2268   */\n      0x00\n        /* \"#utility.yul\":2312:2315   */\n      dup3\n        /* \"#utility.yul\":2305:2309   */\n      0x1f\n        /* \"#utility.yul\":2297:2303   */\n      dup4\n        /* \"#utility.yul\":2293:2310   */\n      add\n        /* \"#utility.yul\":2289:2316   */\n      slt\n        /* \"#utility.yul\":2279:2401   */\n      tag_121\n      jumpi\n        /* \"#utility.yul\":2320:2399   */\n      tag_122\n      tag_58\n      jump\t// in\n    tag_122:\n        /* \"#utility.yul\":2279:2401   */\n    tag_121:\n        /* \"#utility.yul\":2437:2443   */\n      dup2\n        /* \"#utility.yul\":2424:2444   */\n      calldataload\n        /* \"#utility.yul\":2462:2541   */\n      tag_123\n        /* \"#utility.yul\":2537:2540   */\n      dup5\n        /* \"#utility.yul\":2529:2535   */\n      dup3\n        /* \"#utility.yul\":2522:2526   */\n      0x20\n        /* \"#utility.yul\":2514:2520   */\n      dup7\n        /* \"#utility.yul\":2510:2527   */\n      add\n        /* \"#utility.yul\":2462:2541   */\n      tag_66\n      jump\t// in\n    tag_123:\n        /* \"#utility.yul\":2453:2541   */\n      swap2\n      pop\n        /* \"#utility.yul\":2269:2547   */\n      pop\n        /* \"#utility.yul\":2207:2547   */\n      swap3\n      swap2\n      pop\n      pop\n      jump\t// out\n        /* \"#utility.yul\":2553:3062   */\n    tag_9:\n        /* \"#utility.yul\":2622:2628   */\n      0x00\n        /* \"#utility.yul\":2671:2673   */\n      0x20\n        /* \"#utility.yul\":2659:2668   */\n      dup3\n        /* \"#utility.yul\":2650:2657   */\n      dup5\n        /* \"#utility.yul\":2646:2669   */\n      sub\n        /* \"#utility.yul\":2642:2674   */\n      slt\n        /* \"#utility.yul\":2639:2758   */\n      iszero\n      tag_125\n      jumpi\n        /* \"#utility.yul\":2677:2756   */\n      tag_126\n      tag_56\n      jump\t// in\n    tag_126:\n        /* \"#utility.yul\":2639:2758   */\n    tag_125:\n        /* \"#utility.yul\":2825:2826   */\n      0x00\n        /* \"#utility.yul\":2814:2823   */\n      dup3\n        /* \"#utility.yul\":2810:2827   */\n      add\n        /* \"#utility.yul\":2797:2828   */\n      calldataload\n        /* \"#utility.yul\":2855:2873   */\n      0xffffffffffffffff\n        /* \"#utility.yul\":2847:2853   */\n      dup2\n        /* \"#utility.yul\":2844:2874   */\n      gt\n        /* \"#utility.yul\":2841:2958   */\n      iszero\n      tag_127\n      jumpi\n        /* \"#utility.yul\":2877:2956   */\n      tag_128\n      tag_57\n      jump\t// in\n    tag_128:\n        /* \"#utility.yul\":2841:2958   */\n    tag_127:\n        /* \"#utility.yul\":2982:3045   */\n      tag_129\n        /* \"#utility.yul\":3037:3044   */\n      dup5\n        /* \"#utility.yul\":3028:3034   */\n      dup3\n        /* \"#utility.yul\":3017:3026   */\n      dup6\n        /* \"#utility.yul\":3013:3035   */\n      add\n        /* \"#utility.yul\":2982:3045   */\n      tag_67\n      jump\t// in\n    tag_129:\n        /* \"#utility.yul\":2972:3045   */\n      swap2\n      pop\n        /* \"#utility.yul\":2768:3055   */\n      pop\n        /* \"#utility.yul\":2553:3062   */\n      swap3\n      swap2\n      pop\n      pop\n      jump\t// out\n        /* \"#utility.yul\":3068:3145   */\n    tag_68:\n        /* \"#utility.yul\":3105:3112   */\n      0x00\n        /* \"#utility.yul\":3134:3139   */\n      dup2\n        /* \"#utility.yul\":3123:3139   */\n      swap1\n      pop\n        /* \"#utility.yul\":3068:3145   */\n      swap2\n      swap1\n      pop\n      jump\t// out\n        /* \"#utility.yul\":3151:3273   */\n    tag_69:\n        /* \"#utility.yul\":3224:3248   */\n      tag_132\n        /* \"#utility.yul\":3242:3247   */\n      dup2\n        /* \"#utility.yul\":3224:3248   */\n      tag_68\n      jump\t// in\n    tag_132:\n        /* \"#utility.yul\":3217:3222   */\n      dup2\n        /* \"#utility.yul\":3214:3249   */\n      eq\n        /* \"#utility.yul\":3204:3267   */\n      tag_133\n      jumpi\n        /* \"#utility.yul\":3263:3264   */\n      0x00\n        /* \"#utility.yul\":3260:3261   */\n      dup1\n        /* \"#utility.yul\":3253:3265   */\n      revert\n        /* \"#utility.yul\":3204:3267   */\n    tag_133:\n        /* \"#utility.yul\":3151:3273   */\n      pop\n      jump\t// out\n        /* \"#utility.yul\":3279:3418   */\n    tag_70:\n        /* \"#utility.yul\":3325:3330   */\n      0x00\n        /* \"#utility.yul\":3363:3369   */\n      dup2\n        /* \"#utility.yul\":3350:3370   */\n      calldataload\n        /* \"#utility.yul\":3341:3370   */\n      swap1\n      pop\n        /* \"#utility.yul\":3379:3412   */\n      tag_135\n        /* \"#utility.yul\":3406:3411   */\n      dup2\n        /* \"#utility.yul\":3379:3412   */\n      tag_69\n      jump\t// in\n    tag_135:\n        /* \"#utility.yul\":3279:3418   */\n      swap3\n      swap2\n      pop\n      pop\n      jump\t// out\n        /* \"#utility.yul\":3424:4078   */\n    tag_13:\n        /* \"#utility.yul\":3502:3508   */\n      0x00\n        /* \"#utility.yul\":3510:3516   */\n      dup1\n        /* \"#utility.yul\":3559:3561   */\n      0x40\n        /* \"#utility.yul\":3547:3556   */\n      dup4\n        /* \"#utility.yul\":3538:3545   */\n      dup6\n        /* \"#utility.yul\":3534:3557   */\n      sub\n        /* \"#utility.yul\":3530:3562   */\n      slt\n        /* \"#utility.yul\":3527:3646   */\n      iszero\n      tag_137\n      jumpi\n        /* \"#utility.yul\":3565:3644   */\n      tag_138\n      tag_56\n      jump\t// in\n    tag_138:\n        /* \"#utility.yul\":3527:3646   */\n    tag_137:\n        /* \"#utility.yul\":3685:3686   */\n      0x00\n        /* \"#utility.yul\":3710:3763   */\n      tag_139\n        /* \"#utility.yul\":3755:3762   */\n      dup6\n        /* \"#utility.yul\":3746:3752   */\n      dup3\n        /* \"#utility.yul\":3735:3744   */\n      dup7\n        /* \"#utility.yul\":3731:3753   */\n      add\n        /* \"#utility.yul\":3710:3763   */\n      tag_70\n      jump\t// in\n    tag_139:\n        /* \"#utility.yul\":3700:3763   */\n      swap3\n      pop\n        /* \"#utility.yul\":3656:3773   */\n      pop\n        /* \"#utility.yul\":3840:3842   */\n      0x20\n        /* \"#utility.yul\":3829:3838   */\n      dup4\n        /* \"#utility.yul\":3825:3843   */\n      add\n        /* \"#utility.yul\":3812:3844   */\n      calldataload\n        /* \"#utility.yul\":3871:3889   */\n      0xffffffffffffffff\n        /* \"#utility.yul\":3863:3869   */\n      dup2\n        /* \"#utility.yul\":3860:3890   */\n      gt\n        /* \"#utility.yul\":3857:3974   */\n      iszero\n      tag_140\n      jumpi\n        /* \"#utility.yul\":3893:3972   */\n      tag_141\n      tag_57\n      jump\t// in\n    tag_141:\n        /* \"#utility.yul\":3857:3974   */\n    tag_140:\n        /* \"#utility.yul\":3998:4061   */\n      tag_142\n        /* \"#utility.yul\":4053:4060   */\n      dup6\n        /* \"#utility.yul\":4044:4050   */\n      dup3\n        /* \"#utility.yul\":4033:4042   */\n      dup7\n        /* \"#utility.yul\":4029:4051   */\n      add\n        /* \"#utility.yul\":3998:4061   */\n      tag_67\n      jump\t// in\n    tag_142:\n        /* \"#utility.yul\":3988:4061   */\n      swap2\n      pop\n        /* \"#utility.yul\":3783:4071   */\n      pop\n        /* \"#utility.yul\":3424:4078   */\n      swap3\n      pop\n      swap3\n      swap1\n      pop\n      jump\t// out\n        /* \"#utility.yul\":4084:4413   */\n    tag_17:\n        /* \"#utility.yul\":4143:4149   */\n      0x00\n        /* \"#utility.yul\":4192:4194   */\n      0x20\n        /* \"#utility.yul\":4180:4189   */\n      dup3\n        /* \"#utility.yul\":4171:4178   */\n      dup5\n        /* \"#utility.yul\":4167:4190   */\n      sub\n        /* \"#utility.yul\":4163:4195   */\n      slt\n        /* \"#utility.yul\":4160:4279   */\n      iszero\n      tag_144\n      jumpi\n        /* \"#utility.yul\":4198:4277   */\n      tag_145\n      tag_56\n      jump\t// in\n    tag_145:\n        /* \"#utility.yul\":4160:4279   */\n    tag_144:\n        /* \"#utility.yul\":4318:4319   */\n      0x00\n        /* \"#utility.yul\":4343:4396   */\n      tag_146\n        /* \"#utility.yul\":4388:4395   */\n      dup5\n        /* \"#utility.yul\":4379:4385   */\n      dup3\n        /* \"#utility.yul\":4368:4377   */\n      dup6\n        /* \"#utility.yul\":4364:4386   */\n      add\n        /* \"#utility.yul\":4343:4396   */\n      tag_70\n      jump\t// in\n    tag_146:\n        /* \"#utility.yul\":4333:4396   */\n      swap2\n      pop\n        /* \"#utility.yul\":4289:4406   */\n      pop\n        /* \"#utility.yul\":4084:4413   */\n      swap3\n      swap2\n      pop\n      pop\n      jump\t// out\n        /* \"#utility.yul\":4419:4518   */\n    tag_71:\n        /* \"#utility.yul\":4471:4477   */\n      0x00\n        /* \"#utility.yul\":4505:4510   */\n      dup2\n        /* \"#utility.yul\":4499:4511   */\n      mload\n        /* \"#utility.yul\":4489:4511   */\n      swap1\n      pop\n        /* \"#utility.yul\":4419:4518   */\n      swap2\n      swap1\n      pop\n      jump\t// out\n        /* \"#utility.yul\":4524:4683   */\n    tag_72:\n        /* \"#utility.yul\":4598:4609   */\n      0x00\n        /* \"#utility.yul\":4632:4638   */\n      dup3\n        /* \"#utility.yul\":4627:4630   */\n      dup3\n        /* \"#utility.yul\":4620:4639   */\n      mstore\n        /* \"#utility.yul\":4672:4676   */\n      0x20\n        /* \"#utility.yul\":4667:4670   */\n      dup3\n        /* \"#utility.yul\":4663:4677   */\n      add\n        /* \"#utility.yul\":4648:4677   */\n      swap1\n      pop\n        /* \"#utility.yul\":4524:4683   */\n      swap3\n      swap2\n      pop\n      pop\n      jump\t// out\n        /* \"#utility.yul\":4689:4935   */\n    tag_73:\n        /* \"#utility.yul\":4770:4771   */\n      0x00\n        /* \"#utility.yul\":4780:4893   */\n    tag_150:\n        /* \"#utility.yul\":4794:4800   */\n      dup4\n        /* \"#utility.yul\":4791:4792   */\n      dup2\n        /* \"#utility.yul\":4788:4801   */\n      lt\n        /* \"#utility.yul\":4780:4893   */\n      iszero\n      tag_152\n      jumpi\n        /* \"#utility.yul\":4879:4880   */\n      dup1\n        /* \"#utility.yul\":4874:4877   */\n      dup3\n        /* \"#utility.yul\":4870:4881   */\n      add\n        /* \"#utility.yul\":4864:4882   */\n      mload\n        /* \"#utility.yul\":4860:4861   */\n      dup2\n        /* \"#utility.yul\":4855:4858   */\n      dup5\n        /* \"#utility.yul\":4851:4862   */\n      add\n        /* \"#utility.yul\":4844:4883   */\n      mstore\n        /* \"#utility.yul\":4816:4818   */\n      0x20\n        /* \"#utility.yul\":4813:4814   */\n      dup2\n        /* \"#utility.yul\":4809:4819   */\n      add\n        /* \"#utility.yul\":4804:4819   */\n      swap1\n      pop\n        /* \"#utility.yul\":4780:4893   */\n      jump(tag_150)\n    tag_152:\n        /* \"#utility.yul\":4927:4928   */\n      0x00\n        /* \"#utility.yul\":4918:4924   */\n      dup5\n        /* \"#utility.yul\":4913:4916   */\n      dup5\n        /* \"#utility.yul\":4909:4925   */\n      add\n        /* \"#utility.yul\":4902:4929   */\n      mstore\n        /* \"#utility.yul\":4751:4935   */\n      pop\n        /* \"#utility.yul\":4689:4935   */\n      pop\n      pop\n      pop\n      jump\t// out\n        /* \"#utility.yul\":4941:5298   */\n    tag_74:\n        /* \"#utility.yul\":5019:5022   */\n      0x00\n        /* \"#utility.yul\":5047:5086   */\n      tag_154\n        /* \"#utility.yul\":5080:5085   */\n      dup3\n        /* \"#utility.yul\":5047:5086   */\n      tag_71\n      jump\t// in\n    tag_154:\n        /* \"#utility.yul\":5102:5163   */\n      tag_155\n        /* \"#utility.yul\":5156:5162   */\n      dup2\n        /* \"#utility.yul\":5151:5154   */\n      dup6\n        /* \"#utility.yul\":5102:5163   */\n      tag_72\n      jump\t// in\n    tag_155:\n        /* \"#utility.yul\":5095:5163   */\n      swap4\n      pop\n        /* \"#utility.yul\":5172:5237   */\n      tag_156\n        /* \"#utility.yul\":5230:5236   */\n      dup2\n        /* \"#utility.yul\":5225:5228   */\n      dup6\n        /* \"#utility.yul\":5218:5222   */\n      0x20\n        /* \"#utility.yul\":5211:5216   */\n      dup7\n        /* \"#utility.yul\":5207:5223   */\n      add\n        /* \"#utility.yul\":5172:5237   */\n      tag_73\n      jump\t// in\n    tag_156:\n        /* \"#utility.yul\":5262:5291   */\n      tag_157\n        /* \"#utility.yul\":5284:5290   */\n      dup2\n        /* \"#utility.yul\":5262:5291   */\n      tag_60\n      jump\t// in\n    tag_157:\n        /* \"#utility.yul\":5257:5260   */\n      dup5\n        /* \"#utility.yul\":5253:5292   */\n      add\n        /* \"#utility.yul\":5246:5292   */\n      swap2\n      pop\n        /* \"#utility.yul\":5023:5298   */\n      pop\n        /* \"#utility.yul\":4941:5298   */\n      swap3\n      swap2\n      pop\n      pop\n      jump\t// out\n        /* \"#utility.yul\":5304:5394   */\n    tag_75:\n        /* \"#utility.yul\":5338:5345   */\n      0x00\n        /* \"#utility.yul\":5381:5386   */\n      dup2\n        /* \"#utility.yul\":5374:5387   */\n      iszero\n        /* \"#utility.yul\":5367:5388   */\n      iszero\n        /* \"#utility.yul\":5356:5388   */\n      swap1\n      pop\n        /* \"#utility.yul\":5304:5394   */\n      swap2\n      swap1\n      pop\n      jump\t// out\n        /* \"#utility.yul\":5400:5499   */\n    tag_76:\n        /* \"#utility.yul\":5471:5492   */\n      tag_160\n        /* \"#utility.yul\":5486:5491   */\n      dup2\n        /* \"#utility.yul\":5471:5492   */\n      tag_75\n      jump\t// in\n    tag_160:\n        /* \"#utility.yul\":5466:5469   */\n      dup3\n        /* \"#utility.yul\":5459:5493   */\n      mstore\n        /* \"#utility.yul\":5400:5499   */\n      pop\n      pop\n      jump\t// out\n        /* \"#utility.yul\":5555:6154   */\n    tag_77:\n        /* \"#utility.yul\":5664:5667   */\n      0x00\n        /* \"#utility.yul\":5700:5704   */\n      0x40\n        /* \"#utility.yul\":5695:5698   */\n      dup4\n        /* \"#utility.yul\":5691:5705   */\n      add\n        /* \"#utility.yul\":5794:5798   */\n      0x00\n        /* \"#utility.yul\":5787:5792   */\n      dup4\n        /* \"#utility.yul\":5783:5799   */\n      add\n        /* \"#utility.yul\":5777:5800   */\n      mload\n        /* \"#utility.yul\":5847:5850   */\n      dup5\n        /* \"#utility.yul\":5841:5845   */\n      dup3\n        /* \"#utility.yul\":5837:5851   */\n      sub\n        /* \"#utility.yul\":5830:5834   */\n      0x00\n        /* \"#utility.yul\":5825:5828   */\n      dup7\n        /* \"#utility.yul\":5821:5835   */\n      add\n        /* \"#utility.yul\":5814:5852   */\n      mstore\n        /* \"#utility.yul\":5873:5946   */\n      tag_162\n        /* \"#utility.yul\":5941:5945   */\n      dup3\n        /* \"#utility.yul\":5927:5939   */\n      dup3\n        /* \"#utility.yul\":5873:5946   */\n      tag_74\n      jump\t// in\n    tag_162:\n        /* \"#utility.yul\":5865:5946   */\n      swap2\n      pop\n        /* \"#utility.yul\":5715:5957   */\n      pop\n        /* \"#utility.yul\":6041:6045   */\n      0x20\n        /* \"#utility.yul\":6034:6039   */\n      dup4\n        /* \"#utility.yul\":6030:6046   */\n      add\n        /* \"#utility.yul\":6024:6047   */\n      mload\n        /* \"#utility.yul\":6060:6117   */\n      tag_163\n        /* \"#utility.yul\":6111:6115   */\n      0x20\n        /* \"#utility.yul\":6106:6109   */\n      dup7\n        /* \"#utility.yul\":6102:6116   */\n      add\n        /* \"#utility.yul\":6088:6100   */\n      dup3\n        /* \"#utility.yul\":6060:6117   */\n      tag_76\n      jump\t// in\n    tag_163:\n        /* \"#utility.yul\":5967:6127   */\n      pop\n        /* \"#utility.yul\":6144:6148   */\n      dup1\n        /* \"#utility.yul\":6137:6148   */\n      swap2\n      pop\n        /* \"#utility.yul\":5669:6154   */\n      pop\n        /* \"#utility.yul\":5555:6154   */\n      swap3\n      swap2\n      pop\n      pop\n      jump\t// out\n        /* \"#utility.yul\":6160:6513   */\n    tag_23:\n        /* \"#utility.yul\":6293:6297   */\n      0x00\n        /* \"#utility.yul\":6331:6333   */\n      0x20\n        /* \"#utility.yul\":6320:6329   */\n      dup3\n        /* \"#utility.yul\":6316:6334   */\n      add\n        /* \"#utility.yul\":6308:6334   */\n      swap1\n      pop\n        /* \"#utility.yul\":6380:6389   */\n      dup2\n        /* \"#utility.yul\":6374:6378   */\n      dup2\n        /* \"#utility.yul\":6370:6390   */\n      sub\n        /* \"#utility.yul\":6366:6367   */\n      0x00\n        /* \"#utility.yul\":6355:6364   */\n      dup4\n        /* \"#utility.yul\":6351:6368   */\n      add\n        /* \"#utility.yul\":6344:6391   */\n      mstore\n        /* \"#utility.yul\":6408:6506   */\n      tag_165\n        /* \"#utility.yul\":6501:6505   */\n      dup2\n        /* \"#utility.yul\":6492:6498   */\n      dup5\n        /* \"#utility.yul\":6408:6506   */\n      tag_77\n      jump\t// in\n    tag_165:\n        /* \"#utility.yul\":6400:6506   */\n      swap1\n      pop\n        /* \"#utility.yul\":6160:6513   */\n      swap3\n      swap2\n      pop\n      pop\n      jump\t// out\n        /* \"#utility.yul\":6519:6699   */\n    tag_78:\n        /* \"#utility.yul\":6567:6644   */\n      0x4e487b7100000000000000000000000000000000000000000000000000000000\n        /* \"#utility.yul\":6564:6565   */\n      0x00\n        /* \"#utility.yul\":6557:6645   */\n      mstore\n        /* \"#utility.yul\":6664:6668   */\n      0x22\n        /* \"#utility.yul\":6661:6662   */\n      0x04\n        /* \"#utility.yul\":6654:6669   */\n      mstore\n        /* \"#utility.yul\":6688:6692   */\n      0x24\n        /* \"#utility.yul\":6685:6686   */\n      0x00\n        /* \"#utility.yul\":6678:6693   */\n      revert\n        /* \"#utility.yul\":6705:7025   */\n    tag_50:\n        /* \"#utility.yul\":6749:6755   */\n      0x00\n        /* \"#utility.yul\":6786:6787   */\n      0x02\n        /* \"#utility.yul\":6780:6784   */\n      dup3\n        /* \"#utility.yul\":6776:6788   */\n      div\n        /* \"#utility.yul\":6766:6788   */\n      swap1\n      pop\n        /* \"#utility.yul\":6833:6834   */\n      0x01\n        /* \"#utility.yul\":6827:6831   */\n      dup3\n        /* \"#utility.yul\":6823:6835   */\n      and\n        /* \"#utility.yul\":6854:6872   */\n      dup1\n        /* \"#utility.yul\":6844:6925   */\n      tag_168\n      jumpi\n        /* \"#utility.yul\":6910:6914   */\n      0x7f\n        /* \"#utility.yul\":6902:6908   */\n      dup3\n        /* \"#utility.yul\":6898:6915   */\n      and\n        /* \"#utility.yul\":6888:6915   */\n      swap2\n      pop\n        /* \"#utility.yul\":6844:6925   */\n    tag_168:\n        /* \"#utility.yul\":6972:6974   */\n      0x20\n        /* \"#utility.yul\":6964:6970   */\n      dup3\n        /* \"#utility.yul\":6961:6975   */\n      lt\n        /* \"#utility.yul\":6941:6959   */\n      dup2\n        /* \"#utility.yul\":6938:6976   */\n      sub\n        /* \"#utility.yul\":6935:7019   */\n      tag_169\n      jumpi\n        /* \"#utility.yul\":6991:7009   */\n      tag_170\n      tag_78\n      jump\t// in\n    tag_170:\n        /* \"#utility.yul\":6935:7019   */\n    tag_169:\n        /* \"#utility.yul\":6756:7025   */\n      pop\n        /* \"#utility.yul\":6705:7025   */\n      swap2\n      swap1\n      pop\n      jump\t// out\n        /* \"#utility.yul\":7031:7172   */\n    tag_79:\n        /* \"#utility.yul\":7080:7084   */\n      0x00\n        /* \"#utility.yul\":7103:7106   */\n      dup2\n        /* \"#utility.yul\":7095:7106   */\n      swap1\n      pop\n        /* \"#utility.yul\":7126:7129   */\n      dup2\n        /* \"#utility.yul\":7123:7124   */\n      0x00\n        /* \"#utility.yul\":7116:7130   */\n      mstore\n        /* \"#utility.yul\":7160:7164   */\n      0x20\n        /* \"#utility.yul\":7157:7158   */\n      0x00\n        /* \"#utility.yul\":7147:7165   */\n      keccak256\n        /* \"#utility.yul\":7139:7165   */\n      swap1\n      pop\n        /* \"#utility.yul\":7031:7172   */\n      swap2\n      swap1\n      pop\n      jump\t// out\n        /* \"#utility.yul\":7178:7271   */\n    tag_80:\n        /* \"#utility.yul\":7215:7221   */\n      0x00\n        /* \"#utility.yul\":7262:7264   */\n      0x20\n        /* \"#utility.yul\":7257:7259   */\n      0x1f\n        /* \"#utility.yul\":7250:7255   */\n      dup4\n        /* \"#utility.yul\":7246:7260   */\n      add\n        /* \"#utility.yul\":7242:7265   */\n      div\n        /* \"#utility.yul\":7232:7265   */\n      swap1\n      pop\n        /* \"#utility.yul\":7178:7271   */\n      swap2\n      swap1\n      pop\n      jump\t// out\n        /* \"#utility.yul\":7277:7384   */\n    tag_81:\n        /* \"#utility.yul\":7321:7329   */\n      0x00\n        /* \"#utility.yul\":7371:7376   */\n      dup3\n        /* \"#utility.yul\":7365:7369   */\n      dup3\n        /* \"#utility.yul\":7361:7377   */\n      shl\n        /* \"#utility.yul\":7340:7377   */\n      swap1\n      pop\n        /* \"#utility.yul\":7277:7384   */\n      swap3\n      swap2\n      pop\n      pop\n      jump\t// out\n        /* \"#utility.yul\":7390:7783   */\n    tag_82:\n        /* \"#utility.yul\":7459:7465   */\n      0x00\n        /* \"#utility.yul\":7509:7510   */\n      0x08\n        /* \"#utility.yul\":7497:7507   */\n      dup4\n        /* \"#utility.yul\":7493:7511   */\n      mul\n        /* \"#utility.yul\":7532:7629   */\n      tag_175\n        /* \"#utility.yul\":7562:7628   */\n      0xffffffffffffffffffffffffffffffffffffffffffffffffffffffffffffffff\n        /* \"#utility.yul\":7551:7560   */\n      dup3\n        /* \"#utility.yul\":7532:7629   */\n      tag_81\n      jump\t// in\n    tag_175:\n        /* \"#utility.yul\":7650:7689   */\n      tag_176\n        /* \"#utility.yul\":7680:7688   */\n      dup7\n        /* \"#utility.yul\":7669:7678   */\n      dup4\n        /* \"#utility.yul\":7650:7689   */\n      tag_81\n      jump\t// in\n    tag_176:\n        /* \"#utility.yul\":7638:7689   */\n      swap6\n      pop\n        /* \"#utility.yul\":7722:7726   */\n      dup1\n        /* \"#utility.yul\":7718:7727   */\n      not\n        /* \"#utility.yul\":7711:7716   */\n      dup5\n        /* \"#utility.yul\":7707:7728   */\n      and\n        /* \"#utility.yul\":7698:7728   */\n      swap4\n      pop\n        /* \"#utility.yul\":7771:7775   */\n      dup1\n        /* \"#utility.yul\":7761:7769   */\n      dup7\n        /* \"#utility.yul\":7757:7776   */\n      and\n        /* \"#utility.yul\":7750:7755   */\n      dup5\n        /* \"#utility.yul\":7747:7777   */\n      or\n        /* \"#utility.yul\":7737:7777   */\n      swap3\n      pop\n        /* \"#utility.yul\":7466:7783   */\n      pop\n      pop\n        /* \"#utility.yul\":7390:7783   */\n      swap4\n      swap3\n      pop\n      pop\n      pop\n      jump\t// out\n        /* \"#utility.yul\":7789:7849   */\n    tag_83:\n        /* \"#utility.yul\":7817:7820   */\n      0x00\n        /* \"#utility.yul\":7838:7843   */\n      dup2\n        /* \"#utility.yul\":7831:7843   */\n      swap1\n      pop\n        /* \"#utility.yul\":7789:7849   */\n      swap2\n      swap1\n      pop\n      jump\t// out\n        /* \"#utility.yul\":7855:7997   */\n    tag_84:\n        /* \"#utility.yul\":7905:7914   */\n      0x00\n        /* \"#utility.yul\":7938:7991   */\n      tag_179\n        /* \"#utility.yul\":7956:7990   */\n      tag_180\n        /* \"#utility.yul\":7965:7989   */\n      tag_181\n        /* \"#utility.yul\":7983:7988   */\n      dup5\n        /* \"#utility.yul\":7965:7989   */\n      tag_68\n      jump\t// in\n    tag_181:\n        /* \"#utility.yul\":7956:7990   */\n      tag_83\n      jump\t// in\n    tag_180:\n        /* \"#utility.yul\":7938:7991   */\n      tag_68\n      jump\t// in\n    tag_179:\n        /* \"#utility.yul\":7925:7991   */\n      swap1\n      pop\n        /* \"#utility.yul\":7855:7997   */\n      swap2\n      swap1\n      pop\n      jump\t// out\n        /* \"#utility.yul\":8003:8078   */\n    tag_85:\n        /* \"#utility.yul\":8046:8049   */\n      0x00\n        /* \"#utility.yul\":8067:8072   */\n      dup2\n        /* \"#utility.yul\":8060:8072   */\n      swap1\n      pop\n        /* \"#utility.yul\":8003:8078   */\n      swap2\n      swap1\n      pop\n      jump\t// out\n        /* \"#utility.yul\":8084:8353   */\n    tag_86:\n        /* \"#utility.yul\":8194:8233   */\n      tag_184\n        /* \"#utility.yul\":8225:8232   */\n      dup4\n        /* \"#utility.yul\":8194:8233   */\n      tag_84\n      jump\t// in\n    tag_184:\n        /* \"#utility.yul\":8255:8346   */\n      tag_185\n        /* \"#utility.yul\":8304:8345   */\n      tag_186\n        /* \"#utility.yul\":8328:8344   */\n      dup3\n        /* \"#utility.yul\":8304:8345   */\n      tag_85\n      jump\t// in\n    tag_186:\n        /* \"#utility.yul\":8296:8302   */\n      dup5\n        /* \"#utility.yul\":8289:8293   */\n      dup5\n        /* \"#utility.yul\":8283:8294   */\n      sload\n        /* \"#utility.yul\":8255:8346   */\n      tag_82\n      jump\t// in\n    tag_185:\n        /* \"#utility.yul\":8249:8253   */\n      dup3\n        /* \"#utility.yul\":8242:8347   */\n      sstore\n        /* \"#utility.yul\":8160:8353   */\n      pop\n        /* \"#utility.yul\":8084:8353   */\n      pop\n      pop\n      pop\n      jump\t// out\n        /* \"#utility.yul\":8359:8432   */\n    tag_87:\n        /* \"#utility.yul\":8404:8407   */\n      0x00\n        /* \"#utility.yul\":8359:8432   */\n      swap1\n      jump\t// out\n        /* \"#utility.yul\":8438:8627   */\n    tag_88:\n        /* \"#utility.yul\":8515:8547   */\n      tag_189\n      tag_87\n      jump\t// in\n    tag_189:\n        /* \"#utility.yul\":8556:8621   */\n      tag_190\n        /* \"#utility.yul\":8614:8620   */\n      dup2\n        /* \"#utility.yul\":8606:8612   */\n      dup5\n        /* \"#utility.yul\":8600:8604   */\n      dup5\n        /* \"#utility.yul\":8556:8621   */\n      tag_86\n      jump\t// in\n    tag_190:\n        /* \"#utility.yul\":8491:8627   */\n      pop\n        /* \"#utility.yul\":8438:8627   */\n      pop\n      pop\n      jump\t// out\n        /* \"#utility.yul\":8633:8819   */\n    tag_89:\n        /* \"#utility.yul\":8693:8813   */\n    tag_192:\n        /* \"#utility.yul\":8710:8713   */\n      dup2\n        /* \"#utility.yul\":8703:8708   */\n      dup2\n        /* \"#utility.yul\":8700:8714   */\n      lt\n        /* \"#utility.yul\":8693:8813   */\n      iszero\n      tag_194\n      jumpi\n        /* \"#utility.yul\":8764:8803   */\n      tag_195\n        /* \"#utility.yul\":8801:8802   */\n      0x00\n        /* \"#utility.yul\":8794:8799   */\n      dup3\n        /* \"#utility.yul\":8764:8803   */\n      tag_88\n      jump\t// in\n    tag_195:\n        /* \"#utility.yul\":8737:8738   */\n      0x01\n        /* \"#utility.yul\":8730:8735   */\n      dup2\n        /* \"#utility.yul\":8726:8739   */\n      add\n        /* \"#utility.yul\":8717:8739   */\n      swap1\n      pop\n        /* \"#utility.yul\":8693:8813   */\n      jump(tag_192)\n    tag_194:\n        /* \"#utility.yul\":8633:8819   */\n      pop\n      pop\n      jump\t// out\n        /* \"#utility.yul\":8825:9368   */\n    tag_90:\n        /* \"#utility.yul\":8926:8928   */\n      0x1f\n        /* \"#utility.yul\":8921:8924   */\n      dup3\n        /* \"#utility.yul\":8918:8929   */\n      gt\n        /* \"#utility.yul\":8915:9361   */\n      iszero\n      tag_197\n      jumpi\n        /* \"#utility.yul\":8960:8998   */\n      tag_198\n        /* \"#utility.yul\":8992:8997   */\n      dup2\n        /* \"#utility.yul\":8960:8998   */\n      tag_79\n      jump\t// in\n    tag_198:\n        /* \"#utility.yul\":9044:9073   */\n      tag_199\n        /* \"#utility.yul\":9062:9072   */\n      dup5\n        /* \"#utility.yul\":9044:9073   */\n      tag_80\n      jump\t// in\n    tag_199:\n        /* \"#utility.yul\":9034:9042   */\n      dup2\n        /* \"#utility.yul\":9030:9074   */\n      add\n        /* \"#utility.yul\":9227:9229   */\n      0x20\n        /* \"#utility.yul\":9215:9225   */\n      dup6\n        /* \"#utility.yul\":9212:9230   */\n      lt\n        /* \"#utility.yul\":9209:9258   */\n      iszero\n      tag_200\n      jumpi\n        /* \"#utility.yul\":9248:9256   */\n      dup2\n        /* \"#utility.yul\":9233:9256   */\n      swap1\n      pop\n        /* \"#utility.yul\":9209:9258   */\n    tag_200:\n        /* \"#utility.yul\":9271:9351   */\n      tag_201\n        /* \"#utility.yul\":9327:9349   */\n      tag_202\n        /* \"#utility.yul\":9345:9348   */\n      dup6\n        /* \"#utility.yul\":9327:9349   */\n      tag_80\n      jump\t// in\n    tag_202:\n        /* \"#utility.yul\":9317:9325   */\n      dup4\n        /* \"#utility.yul\":9313:9350   */\n      add\n        /* \"#utility.yul\":9300:9311   */\n      dup3\n        /* \"#utility.yul\":9271:9351   */\n      tag_89\n      jump\t// in\n    tag_201:\n        /* \"#utility.yul\":8930:9361   */\n      pop\n      pop\n        /* \"#utility.yul\":8915:9361   */\n    tag_197:\n        /* \"#utility.yul\":8825:9368   */\n      pop\n      pop\n      pop\n      jump\t// out\n        /* \"#utility.yul\":9374:9491   */\n    tag_91:\n        /* \"#utility.yul\":9428:9436   */\n      0x00\n        /* \"#utility.yul\":9478:9483   */\n      dup3\n        /* \"#utility.yul\":9472:9476   */\n      dup3\n        /* \"#utility.yul\":9468:9484   */\n      shr\n        /* \"#utility.yul\":9447:9484   */\n      swap1\n      pop\n        /* \"#utility.yul\":9374:9491   */\n      swap3\n      swap2\n      pop\n      pop\n      jump\t// out\n        /* \"#utility.yul\":9497:9666   */\n    tag_92:\n        /* \"#utility.yul\":9541:9547   */\n      0x00\n        /* \"#utility.yul\":9574:9625   */\n      tag_205\n        /* \"#utility.yul\":9622:9623   */\n      0x00\n        /* \"#utility.yul\":9618:9624   */\n      not\n        /* \"#utility.yul\":9610:9615   */\n      dup5\n        /* \"#utility.yul\":9607:9608   */\n      0x08\n        /* \"#utility.yul\":9603:9616   */\n      mul\n        /* \"#utility.yul\":9574:9625   */\n      tag_91\n      jump\t// in\n    tag_205:\n        /* \"#utility.yul\":9570:9626   */\n      not\n        /* \"#utility.yul\":9655:9659   */\n      dup1\n        /* \"#utility.yul\":9649:9653   */\n      dup4\n        /* \"#utility.yul\":9645:9660   */\n      and\n        /* \"#utility.yul\":9635:9660   */\n      swap2\n      pop\n        /* \"#utility.yul\":9548:9666   */\n      pop\n        /* \"#utility.yul\":9497:9666   */\n      swap3\n      swap2\n      pop\n      pop\n      jump\t// out\n        /* \"#utility.yul\":9671:9966   */\n    tag_93:\n        /* \"#utility.yul\":9747:9751   */\n      0x00\n        /* \"#utility.yul\":9893:9922   */\n      tag_207\n        /* \"#utility.yul\":9918:9921   */\n      dup4\n        /* \"#utility.yul\":9912:9916   */\n      dup4\n        /* \"#utility.yul\":9893:9922   */\n      tag_92\n      jump\t// in\n    tag_207:\n        /* \"#utility.yul\":9885:9922   */\n      swap2\n      pop\n        /* \"#utility.yul\":9955:9958   */\n      dup3\n        /* \"#utility.yul\":9952:9953   */\n      0x02\n        /* \"#utility.yul\":9948:9959   */\n      mul\n        /* \"#utility.yul\":9942:9946   */\n      dup3\n        /* \"#utility.yul\":9939:9960   */\n      or\n        /* \"#utility.yul\":9931:9960   */\n      swap1\n      pop\n        /* \"#utility.yul\":9671:9966   */\n      swap3\n      swap2\n      pop\n      pop\n      jump\t// out\n        /* \"#utility.yul\":9971:11366   */\n    tag_27:\n        /* \"#utility.yul\":10088:10125   */\n      tag_209\n        /* \"#utility.yul\":10121:10124   */\n      dup3\n        /* \"#utility.yul\":10088:10125   */\n      tag_71\n      jump\t// in\n    tag_209:\n        /* \"#utility.yul\":10190:10208   */\n      0xffffffffffffffff\n        /* \"#utility.yul\":10182:10188   */\n      dup2\n        /* \"#utility.yul\":10179:10209   */\n      gt\n        /* \"#utility.yul\":10176:10232   */\n      iszero\n      tag_210\n      jumpi\n        /* \"#utility.yul\":10212:10230   */\n      tag_211\n      tag_61\n      jump\t// in\n    tag_211:\n        /* \"#utility.yul\":10176:10232   */\n    tag_210:\n        /* \"#utility.yul\":10256:10294   */\n      tag_212\n        /* \"#utility.yul\":10288:10292   */\n      dup3\n        /* \"#utility.yul\":10282:10293   */\n      sload\n        /* \"#utility.yul\":10256:10294   */\n      tag_50\n      jump\t// in\n    tag_212:\n        /* \"#utility.yul\":10341:10408   */\n      tag_213\n        /* \"#utility.yul\":10401:10407   */\n      dup3\n        /* \"#utility.yul\":10393:10399   */\n      dup3\n        /* \"#utility.yul\":10387:10391   */\n      dup6\n        /* \"#utility.yul\":10341:10408   */\n      tag_90\n      jump\t// in\n    tag_213:\n        /* \"#utility.yul\":10435:10436   */\n      0x00\n        /* \"#utility.yul\":10459:10463   */\n      0x20\n        /* \"#utility.yul\":10446:10463   */\n      swap1\n      pop\n        /* \"#utility.yul\":10491:10493   */\n      0x1f\n        /* \"#utility.yul\":10483:10489   */\n      dup4\n        /* \"#utility.yul\":10480:10494   */\n      gt\n        /* \"#utility.yul\":10508:10509   */\n      0x01\n        /* \"#utility.yul\":10503:11121   */\n      dup2\n      eq\n      tag_215\n      jumpi\n        /* \"#utility.yul\":11165:11166   */\n      0x00\n        /* \"#utility.yul\":11182:11188   */\n      dup5\n        /* \"#utility.yul\":11179:11256   */\n      iszero\n      tag_216\n      jumpi\n        /* \"#utility.yul\":11231:11240   */\n      dup3\n        /* \"#utility.yul\":11226:11229   */\n      dup8\n        /* \"#utility.yul\":11222:11241   */\n      add\n        /* \"#utility.yul\":11216:11242   */\n      mload\n        /* \"#utility.yul\":11207:11242   */\n      swap1\n      pop\n        /* \"#utility.yul\":11179:11256   */\n    tag_216:\n        /* \"#utility.yul\":11282:11349   */\n      tag_217\n        /* \"#utility.yul\":11342:11348   */\n      dup6\n        /* \"#utility.yul\":11335:11340   */\n      dup3\n        /* \"#utility.yul\":11282:11349   */\n      tag_93\n      jump\t// in\n    tag_217:\n        /* \"#utility.yul\":11276:11280   */\n      dup7\n        /* \"#utility.yul\":11269:11350   */\n      sstore\n        /* \"#utility.yul\":11138:11360   */\n      pop\n        /* \"#utility.yul\":10473:11360   */\n      jump(tag_214)\n        /* \"#utility.yul\":10503:11121   */\n    tag_215:\n        /* \"#utility.yul\":10555:10559   */\n      0x1f\n        /* \"#utility.yul\":10551:10560   */\n      not\n        /* \"#utility.yul\":10543:10549   */\n      dup5\n        /* \"#utility.yul\":10539:10561   */\n      and\n        /* \"#utility.yul\":10589:10626   */\n      tag_218\n        /* \"#utility.yul\":10621:10625   */\n      dup7\n        /* \"#utility.yul\":10589:10626   */\n      tag_79\n      jump\t// in\n    tag_218:\n        /* \"#utility.yul\":10648:10649   */\n      0x00\n        /* \"#utility.yul\":10662:10870   */\n    tag_219:\n        /* \"#utility.yul\":10676:10683   */\n      dup3\n        /* \"#utility.yul\":10673:10674   */\n      dup2\n        /* \"#utility.yul\":10670:10684   */\n      lt\n        /* \"#utility.yul\":10662:10870   */\n      iszero\n      tag_221\n      jumpi\n        /* \"#utility.yul\":10755:10764   */\n      dup5\n        /* \"#utility.yul\":10750:10753   */\n      dup10\n        /* \"#utility.yul\":10746:10765   */\n      add\n        /* \"#utility.yul\":10740:10766   */\n      mload\n        /* \"#utility.yul\":10732:10738   */\n      dup3\n        /* \"#utility.yul\":10725:10767   */\n      sstore\n        /* \"#utility.yul\":10806:10807   */\n      0x01\n        /* \"#utility.yul\":10798:10804   */\n      dup3\n        /* \"#utility.yul\":10794:10808   */\n      add\n        /* \"#utility.yul\":10784:10808   */\n      swap2\n      pop\n        /* \"#utility.yul\":10853:10855   */\n      0x20\n        /* \"#utility.yul\":10842:10851   */\n      dup6\n        /* \"#utility.yul\":10838:10856   */\n      add\n        /* \"#utility.yul\":10825:10856   */\n      swap5\n      pop\n        /* \"#utility.yul\":10699:10703   */\n      0x20\n        /* \"#utility.yul\":10696:10697   */\n      dup2\n        /* \"#utility.yul\":10692:10704   */\n      add\n        /* \"#utility.yul\":10687:10704   */\n      swap1\n      pop\n        /* \"#utility.yul\":10662:10870   */\n      jump(tag_219)\n    tag_221:\n        /* \"#utility.yul\":10898:10904   */\n      dup7\n        /* \"#utility.yul\":10889:10896   */\n      dup4\n        /* \"#utility.yul\":10886:10905   */\n      lt\n        /* \"#utility.yul\":10883:11062   */\n      iszero\n      tag_222\n      jumpi\n        /* \"#utility.yul\":10956:10965   */\n      dup5\n        /* \"#utility.yul\":10951:10954   */\n      dup10\n        /* \"#utility.yul\":10947:10966   */\n      add\n        /* \"#utility.yul\":10941:10967   */\n      mload\n        /* \"#utility.yul\":10999:11047   */\n      tag_223\n        /* \"#utility.yul\":11041:11045   */\n      0x1f\n        /* \"#utility.yul\":11033:11039   */\n      dup10\n        /* \"#utility.yul\":11029:11046   */\n      and\n        /* \"#utility.yul\":11018:11027   */\n      dup3\n        /* \"#utility.yul\":10999:11047   */\n      tag_92\n      jump\t// in\n    tag_223:\n        /* \"#utility.yul\":10991:10997   */\n      dup4\n        /* \"#utility.yul\":10984:11048   */\n      sstore\n        /* \"#utility.yul\":10906:11062   */\n      pop\n        /* \"#utility.yul\":10883:11062   */\n    tag_222:\n        /* \"#utility.yul\":11108:11109   */\n      0x01\n        /* \"#utility.yul\":11104:11105   */\n      0x02\n        /* \"#utility.yul\":11096:11102   */\n      dup9\n        /* \"#utility.yul\":11092:11106   */\n      mul\n        /* \"#utility.yul\":11088:11110   */\n      add\n        /* \"#utility.yul\":11082:11086   */\n      dup9\n        /* \"#utility.yul\":11075:11111   */\n      sstore\n        /* \"#utility.yul\":10510:11121   */\n      pop\n      pop\n      pop\n        /* \"#utility.yul\":10473:11360   */\n    tag_214:\n      pop\n        /* \"#utility.yul\":10063:11366   */\n      pop\n      pop\n      pop\n        /* \"#utility.yul\":9971:11366   */\n      pop\n      pop\n      jump\t// out\n        /* \"#utility.yul\":11372:11552   */\n    tag_37:\n        /* \"#utility.yul\":11420:11497   */\n      0x4e487b7100000000000000000000000000000000000000000000000000000000\n        /* \"#utility.yul\":11417:11418   */\n      0x00\n        /* \"#utility.yul\":11410:11498   */\n      mstore\n        /* \"#utility.yul\":11517:11521   */\n      0x32\n        /* \"#utility.yul\":11514:11515   */\n      0x04\n        /* \"#utility.yul\":11507:11522   */\n      mstore\n        /* \"#utility.yul\":11541:11545   */\n      0x24\n        /* \"#utility.yul\":11538:11539   */\n      0x00\n        /* \"#utility.yul\":11531:11546   */\n      revert\n\n    auxdata: 0xa2646970667358221220d4e40d0b60e8c91f6c688d05592cc7f1e72543824b42b8267ba9a353e6e432eb64736f6c63430008140033\n}\n",
				"bytecode": {
					"linkReferences": {},
					"object": "608060405234801561000f575f80fd5b50610a278061001d5f395ff3fe608060405234801561000f575f80fd5b506004361061004a575f3560e01c80631014e7e41461004e57806314dee4b31461006a5780631ec039d5146100865780639507d39a146100a2575b5f80fd5b6100686004803603810190610063919061050e565b6100d2565b005b610084600480360381019061007f9190610588565b61023a565b005b6100a0600480360381019061009b91906105e2565b610272565b005b6100bc60048036038101906100b791906105e2565b6102c4565b6040516100c991906106db565b60405180910390f35b5f60405180604001604052808381526020015f1515815250908060018154018082558091505060019003905f5260205f2090600202015f909190919091505f820151815f01908161012391906108f5565b506020820151816001015f6101000a81548160ff02191690831515021790555050505f60405180604001604052808381526020015f1515815250908060018154018082558091505060019003905f5260205f2090600202015f909190919091505f820151815f01908161019691906108f5565b506020820151816001015f6101000a81548160ff02191690831515021790555050506101c06103a6565b81815f018190525060018160200190151590811515815250505f81908060018154018082558091505060019003905f5260205f2090600202015f909190919091505f820151815f01908161021491906108f5565b506020820151816001015f6101000a81548160ff02191690831515021790555050505050565b5f80838154811061024e5761024d6109c4565b5b905f5260205f209060020201905081815f01908161026c91906108f5565b50505050565b5f808281548110610286576102856109c4565b5b905f5260205f2090600202019050806001015f9054906101000a900460ff1615816001015f6101000a81548160ff0219169083151502179055505050565b6102cc6103a6565b5f82815481106102df576102de6109c4565b5b905f5260205f2090600202016040518060400160405290815f8201805461030590610728565b80601f016020809104026020016040519081016040528092919081815260200182805461033190610728565b801561037c5780601f106103535761010080835404028352916020019161037c565b820191905f5260205f20905b81548152906001019060200180831161035f57829003601f168201915b50505050508152602001600182015f9054906101000a900460ff1615151515815250509050919050565b6040518060400160405280606081526020015f151581525090565b5f604051905090565b5f80fd5b5f80fd5b5f80fd5b5f80fd5b5f601f19601f8301169050919050565b7f4e487b71000000000000000000000000000000000000000000000000000000005f52604160045260245ffd5b610420826103da565b810181811067ffffffffffffffff8211171561043f5761043e6103ea565b5b80604052505050565b5f6104516103c1565b905061045d8282610417565b919050565b5f67ffffffffffffffff82111561047c5761047b6103ea565b5b610485826103da565b9050602081019050919050565b828183375f83830152505050565b5f6104b26104ad84610462565b610448565b9050828152602081018484840111156104ce576104cd6103d6565b5b6104d9848285610492565b509392505050565b5f82601f8301126104f5576104f46103d2565b5b81356105058482602086016104a0565b91505092915050565b5f60208284031215610523576105226103ca565b5b5f82013567ffffffffffffffff8111156105405761053f6103ce565b5b61054c848285016104e1565b91505092915050565b5f819050919050565b61056781610555565b8114610571575f80fd5b50565b5f813590506105828161055e565b92915050565b5f806040838503121561059e5761059d6103ca565b5b5f6105ab85828601610574565b925050602083013567ffffffffffffffff8111156105cc576105cb6103ce565b5b6105d8858286016104e1565b9150509250929050565b5f602082840312156105f7576105f66103ca565b5b5f61060484828501610574565b91505092915050565b5f81519050919050565b5f82825260208201905092915050565b5f5b83811015610644578082015181840152602081019050610629565b5f8484015250505050565b5f6106598261060d565b6106638185610617565b9350610673818560208601610627565b61067c816103da565b840191505092915050565b5f8115159050919050565b61069b81610687565b82525050565b5f604083015f8301518482035f8601526106bb828261064f565b91505060208301516106d06020860182610692565b508091505092915050565b5f6020820190508181035f8301526106f381846106a1565b905092915050565b7f4e487b71000000000000000000000000000000000000000000000000000000005f52602260045260245ffd5b5f600282049050600182168061073f57607f821691505b602082108103610752576107516106fb565b5b50919050565b5f819050815f5260205f209050919050565b5f6020601f8301049050919050565b5f82821b905092915050565b5f600883026107b47fffffffffffffffffffffffffffffffffffffffffffffffffffffffffffffffff82610779565b6107be8683610779565b95508019841693508086168417925050509392505050565b5f819050919050565b5f6107f96107f46107ef84610555565b6107d6565b610555565b9050919050565b5f819050919050565b610812836107df565b61082661081e82610800565b848454610785565b825550505050565b5f90565b61083a61082e565b610845818484610809565b505050565b5b818110156108685761085d5f82610832565b60018101905061084b565b5050565b601f8211156108ad5761087e81610758565b6108878461076a565b81016020851015610896578190505b6108aa6108a28561076a565b83018261084a565b50505b505050565b5f82821c905092915050565b5f6108cd5f19846008026108b2565b1980831691505092915050565b5f6108e583836108be565b9150826002028217905092915050565b6108fe8261060d565b67ffffffffffffffff811115610917576109166103ea565b5b6109218254610728565b61092c82828561086c565b5f60209050601f83116001811461095d575f841561094b578287015190505b61095585826108da565b8655506109bc565b601f19841661096b86610758565b5f5b828110156109925784890151825560018201915060208501945060208101905061096d565b868310156109af57848901516109ab601f8916826108be565b8355505b6001600288020188555050505b505050505050565b7f4e487b71000000000000000000000000000000000000000000000000000000005f52603260045260245ffdfea2646970667358221220d4e40d0b60e8c91f6c688d05592cc7f1e72543824b42b8267ba9a353e6e432eb64736f6c63430008140033",
					"opcodes": "PUSH1 0x80 PUSH1 0x40 MSTORE CALLVALUE DUP1 ISZERO PUSH2 0xF JUMPI PUSH0 DUP1 REVERT JUMPDEST POP PUSH2 0xA27 DUP1 PUSH2 0x1D PUSH0 CODECOPY PUSH0 RETURN INVALID PUSH1 0x80 PUSH1 0x40 MSTORE CALLVALUE DUP1 ISZERO PUSH2 0xF JUMPI PUSH0 DUP1 REVERT JUMPDEST POP PUSH1 0x4 CALLDATASIZE LT PUSH2 0x4A JUMPI PUSH0 CALLDATALOAD PUSH1 0xE0 SHR DUP1 PUSH4 0x1014E7E4 EQ PUSH2 0x4E JUMPI DUP1 PUSH4 0x14DEE4B3 EQ PUSH2 0x6A JUMPI DUP1 PUSH4 0x1EC039D5 EQ PUSH2 0x86 JUMPI DUP1 PUSH4 0x9507D39A EQ PUSH2 0xA2 JUMPI JUMPDEST PUSH0 DUP1 REVERT JUMPDEST PUSH2 0x68 PUSH1 0x4 DUP1 CALLDATASIZE SUB DUP2 ADD SWAP1 PUSH2 0x63 SWAP2 SWAP1 PUSH2 0x50E JUMP JUMPDEST PUSH2 0xD2 JUMP JUMPDEST STOP JUMPDEST PUSH2 0x84 PUSH1 0x4 DUP1 CALLDATASIZE SUB DUP2 ADD SWAP1 PUSH2 0x7F SWAP2 SWAP1 PUSH2 0x588 JUMP JUMPDEST PUSH2 0x23A JUMP JUMPDEST STOP JUMPDEST PUSH2 0xA0 PUSH1 0x4 DUP1 CALLDATASIZE SUB DUP2 ADD SWAP1 PUSH2 0x9B SWAP2 SWAP1 PUSH2 0x5E2 JUMP JUMPDEST PUSH2 0x272 JUMP JUMPDEST STOP JUMPDEST PUSH2 0xBC PUSH1 0x4 DUP1 CALLDATASIZE SUB DUP2 ADD SWAP1 PUSH2 0xB7 SWAP2 SWAP1 PUSH2 0x5E2 JUMP JUMPDEST PUSH2 0x2C4 JUMP JUMPDEST PUSH1 0x40 MLOAD PUSH2 0xC9 SWAP2 SWAP1 PUSH2 0x6DB JUMP JUMPDEST PUSH1 0x40 MLOAD DUP1 SWAP2 SUB SWAP1 RETURN JUMPDEST PUSH0 PUSH1 0x40 MLOAD DUP1 PUSH1 0x40 ADD PUSH1 0x40 MSTORE DUP1 DUP4 DUP2 MSTORE PUSH1 0x20 ADD PUSH0 ISZERO ISZERO DUP2 MSTORE POP SWAP1 DUP1 PUSH1 0x1 DUP2 SLOAD ADD DUP1 DUP3 SSTORE DUP1 SWAP2 POP POP PUSH1 0x1 SWAP1 SUB SWAP1 PUSH0 MSTORE PUSH1 0x20 PUSH0 KECCAK256 SWAP1 PUSH1 0x2 MUL ADD PUSH0 SWAP1 SWAP2 SWAP1 SWAP2 SWAP1 SWAP2 POP PUSH0 DUP3 ADD MLOAD DUP2 PUSH0 ADD SWAP1 DUP2 PUSH2 0x123 SWAP2 SWAP1 PUSH2 0x8F5 JUMP JUMPDEST POP PUSH1 0x20 DUP3 ADD MLOAD DUP2 PUSH1 0x1 ADD PUSH0 PUSH2 0x100 EXP DUP2 SLOAD DUP2 PUSH1 0xFF MUL NOT AND SWAP1 DUP4 ISZERO ISZERO MUL OR SWAP1 SSTORE POP POP POP PUSH0 PUSH1 0x40 MLOAD DUP1 PUSH1 0x40 ADD PUSH1 0x40 MSTORE DUP1 DUP4 DUP2 MSTORE PUSH1 0x20 ADD PUSH0 ISZERO ISZERO DUP2 MSTORE POP SWAP1 DUP1 PUSH1 0x1 DUP2 SLOAD ADD DUP1 DUP3 SSTORE DUP1 SWAP2 POP POP PUSH1 0x1 SWAP1 SUB SWAP1 PUSH0 MSTORE PUSH1 0x20 PUSH0 KECCAK256 SWAP1 PUSH1 0x2 MUL ADD PUSH0 SWAP1 SWAP2 SWAP1 SWAP2 SWAP1 SWAP2 POP PUSH0 DUP3 ADD MLOAD DUP2 PUSH0 ADD SWAP1 DUP2 PUSH2 0x196 SWAP2 SWAP1 PUSH2 0x8F5 JUMP JUMPDEST POP PUSH1 0x20 DUP3 ADD MLOAD DUP2 PUSH1 0x1 ADD PUSH0 PUSH2 0x100 EXP DUP2 SLOAD DUP2 PUSH1 0xFF MUL NOT AND SWAP1 DUP4 ISZERO ISZERO MUL OR SWAP1 SSTORE POP POP POP PUSH2 0x1C0 PUSH2 0x3A6 JUMP JUMPDEST DUP2 DUP2 PUSH0 ADD DUP2 SWAP1 MSTORE POP PUSH1 0x1 DUP2 PUSH1 0x20 ADD SWAP1 ISZERO ISZERO SWAP1 DUP2 ISZERO ISZERO DUP2 MSTORE POP POP PUSH0 DUP2 SWAP1 DUP1 PUSH1 0x1 DUP2 SLOAD ADD DUP1 DUP3 SSTORE DUP1 SWAP2 POP POP PUSH1 0x1 SWAP1 SUB SWAP1 PUSH0 MSTORE PUSH1 0x20 PUSH0 KECCAK256 SWAP1 PUSH1 0x2 MUL ADD PUSH0 SWAP1 SWAP2 SWAP1 SWAP2 SWAP1 SWAP2 POP PUSH0 DUP3 ADD MLOAD DUP2 PUSH0 ADD SWAP1 DUP2 PUSH2 0x214 SWAP2 SWAP1 PUSH2 0x8F5 JUMP JUMPDEST POP PUSH1 0x20 DUP3 ADD MLOAD DUP2 PUSH1 0x1 ADD PUSH0 PUSH2 0x100 EXP DUP2 SLOAD DUP2 PUSH1 0xFF MUL NOT AND SWAP1 DUP4 ISZERO ISZERO MUL OR SWAP1 SSTORE POP POP POP POP POP JUMP JUMPDEST PUSH0 DUP1 DUP4 DUP2 SLOAD DUP2 LT PUSH2 0x24E JUMPI PUSH2 0x24D PUSH2 0x9C4 JUMP JUMPDEST JUMPDEST SWAP1 PUSH0 MSTORE PUSH1 0x20 PUSH0 KECCAK256 SWAP1 PUSH1 0x2 MUL ADD SWAP1 POP DUP2 DUP2 PUSH0 ADD SWAP1 DUP2 PUSH2 0x26C SWAP2 SWAP1 PUSH2 0x8F5 JUMP JUMPDEST POP POP POP POP JUMP JUMPDEST PUSH0 DUP1 DUP3 DUP2 SLOAD DUP2 LT PUSH2 0x286 JUMPI PUSH2 0x285 PUSH2 0x9C4 JUMP JUMPDEST JUMPDEST SWAP1 PUSH0 MSTORE PUSH1 0x20 PUSH0 KECCAK256 SWAP1 PUSH1 0x2 MUL ADD SWAP1 POP DUP1 PUSH1 0x1 ADD PUSH0 SWAP1 SLOAD SWAP1 PUSH2 0x100 EXP SWAP1 DIV PUSH1 0xFF AND ISZERO DUP2 PUSH1 0x1 ADD PUSH0 PUSH2 0x100 EXP DUP2 SLOAD DUP2 PUSH1 0xFF MUL NOT AND SWAP1 DUP4 ISZERO ISZERO MUL OR SWAP1 SSTORE POP POP POP JUMP JUMPDEST PUSH2 0x2CC PUSH2 0x3A6 JUMP JUMPDEST PUSH0 DUP3 DUP2 SLOAD DUP2 LT PUSH2 0x2DF JUMPI PUSH2 0x2DE PUSH2 0x9C4 JUMP JUMPDEST JUMPDEST SWAP1 PUSH0 MSTORE PUSH1 0x20 PUSH0 KECCAK256 SWAP1 PUSH1 0x2 MUL ADD PUSH1 0x40 MLOAD DUP1 PUSH1 0x40 ADD PUSH1 0x40 MSTORE SWAP1 DUP2 PUSH0 DUP3 ADD DUP1 SLOAD PUSH2 0x305 SWAP1 PUSH2 0x728 JUMP JUMPDEST DUP1 PUSH1 0x1F ADD PUSH1 0x20 DUP1 SWAP2 DIV MUL PUSH1 0x20 ADD PUSH1 0x40 MLOAD SWAP1 DUP2 ADD PUSH1 0x40 MSTORE DUP1 SWAP3 SWAP2 SWAP1 DUP2 DUP2 MSTORE PUSH1 0x20 ADD DUP3 DUP1 SLOAD PUSH2 0x331 SWAP1 PUSH2 0x728 JUMP JUMPDEST DUP1 ISZERO PUSH2 0x37C JUMPI DUP1 PUSH1 0x1F LT PUSH2 0x353 JUMPI PUSH2 0x100 DUP1 DUP4 SLOAD DIV MUL DUP4 MSTORE SWAP2 PUSH1 0x20 ADD SWAP2 PUSH2 0x37C JUMP JUMPDEST DUP3 ADD SWAP2 SWAP1 PUSH0 MSTORE PUSH1 0x20 PUSH0 KECCAK256 SWAP1 JUMPDEST DUP2 SLOAD DUP2 MSTORE SWAP1 PUSH1 0x1 ADD SWAP1 PUSH1 0x20 ADD DUP1 DUP4 GT PUSH2 0x35F JUMPI DUP3 SWAP1 SUB PUSH1 0x1F AND DUP3 ADD SWAP2 JUMPDEST POP POP POP POP POP DUP2 MSTORE PUSH1 0x20 ADD PUSH1 0x1 DUP3 ADD PUSH0 SWAP1 SLOAD SWAP1 PUSH2 0x100 EXP SWAP1 DIV PUSH1 0xFF AND ISZERO ISZERO ISZERO ISZERO DUP2 MSTORE POP POP SWAP1 POP SWAP2 SWAP1 POP JUMP JUMPDEST PUSH1 0x40 MLOAD DUP1 PUSH1 0x40 ADD PUSH1 0x40 MSTORE DUP1 PUSH1 0x60 DUP2 MSTORE PUSH1 0x20 ADD PUSH0 ISZERO ISZERO DUP2 MSTORE POP SWAP1 JUMP JUMPDEST PUSH0 PUSH1 0x40 MLOAD SWAP1 POP SWAP1 JUMP JUMPDEST PUSH0 DUP1 REVERT JUMPDEST PUSH0 DUP1 REVERT JUMPDEST PUSH0 DUP1 REVERT JUMPDEST PUSH0 DUP1 REVERT JUMPDEST PUSH0 PUSH1 0x1F NOT PUSH1 0x1F DUP4 ADD AND SWAP1 POP SWAP2 SWAP1 POP JUMP JUMPDEST PUSH32 0x4E487B7100000000000000000000000000000000000000000000000000000000 PUSH0 MSTORE PUSH1 0x41 PUSH1 0x4 MSTORE PUSH1 0x24 PUSH0 REVERT JUMPDEST PUSH2 0x420 DUP3 PUSH2 0x3DA JUMP JUMPDEST DUP2 ADD DUP2 DUP2 LT PUSH8 0xFFFFFFFFFFFFFFFF DUP3 GT OR ISZERO PUSH2 0x43F JUMPI PUSH2 0x43E PUSH2 0x3EA JUMP JUMPDEST JUMPDEST DUP1 PUSH1 0x40 MSTORE POP POP POP JUMP JUMPDEST PUSH0 PUSH2 0x451 PUSH2 0x3C1 JUMP JUMPDEST SWAP1 POP PUSH2 0x45D DUP3 DUP3 PUSH2 0x417 JUMP JUMPDEST SWAP2 SWAP1 POP JUMP JUMPDEST PUSH0 PUSH8 0xFFFFFFFFFFFFFFFF DUP3 GT ISZERO PUSH2 0x47C JUMPI PUSH2 0x47B PUSH2 0x3EA JUMP JUMPDEST JUMPDEST PUSH2 0x485 DUP3 PUSH2 0x3DA JUMP JUMPDEST SWAP1 POP PUSH1 0x20 DUP2 ADD SWAP1 POP SWAP2 SWAP1 POP JUMP JUMPDEST DUP3 DUP2 DUP4 CALLDATACOPY PUSH0 DUP4 DUP4 ADD MSTORE POP POP POP JUMP JUMPDEST PUSH0 PUSH2 0x4B2 PUSH2 0x4AD DUP5 PUSH2 0x462 JUMP JUMPDEST PUSH2 0x448 JUMP JUMPDEST SWAP1 POP DUP3 DUP2 MSTORE PUSH1 0x20 DUP2 ADD DUP5 DUP5 DUP5 ADD GT ISZERO PUSH2 0x4CE JUMPI PUSH2 0x4CD PUSH2 0x3D6 JUMP JUMPDEST JUMPDEST PUSH2 0x4D9 DUP5 DUP3 DUP6 PUSH2 0x492 JUMP JUMPDEST POP SWAP4 SWAP3 POP POP POP JUMP JUMPDEST PUSH0 DUP3 PUSH1 0x1F DUP4 ADD SLT PUSH2 0x4F5 JUMPI PUSH2 0x4F4 PUSH2 0x3D2 JUMP JUMPDEST JUMPDEST DUP2 CALLDATALOAD PUSH2 0x505 DUP5 DUP3 PUSH1 0x20 DUP7 ADD PUSH2 0x4A0 JUMP JUMPDEST SWAP2 POP POP SWAP3 SWAP2 POP POP JUMP JUMPDEST PUSH0 PUSH1 0x20 DUP3 DUP5 SUB SLT ISZERO PUSH2 0x523 JUMPI PUSH2 0x522 PUSH2 0x3CA JUMP JUMPDEST JUMPDEST PUSH0 DUP3 ADD CALLDATALOAD PUSH8 0xFFFFFFFFFFFFFFFF DUP2 GT ISZERO PUSH2 0x540 JUMPI PUSH2 0x53F PUSH2 0x3CE JUMP JUMPDEST JUMPDEST PUSH2 0x54C DUP5 DUP3 DUP6 ADD PUSH2 0x4E1 JUMP JUMPDEST SWAP2 POP POP SWAP3 SWAP2 POP POP JUMP JUMPDEST PUSH0 DUP2 SWAP1 POP SWAP2 SWAP1 POP JUMP JUMPDEST PUSH2 0x567 DUP2 PUSH2 0x555 JUMP JUMPDEST DUP2 EQ PUSH2 0x571 JUMPI PUSH0 DUP1 REVERT JUMPDEST POP JUMP JUMPDEST PUSH0 DUP2 CALLDATALOAD SWAP1 POP PUSH2 0x582 DUP2 PUSH2 0x55E JUMP JUMPDEST SWAP3 SWAP2 POP POP JUMP JUMPDEST PUSH0 DUP1 PUSH1 0x40 DUP4 DUP6 SUB SLT ISZERO PUSH2 0x59E JUMPI PUSH2 0x59D PUSH2 0x3CA JUMP JUMPDEST JUMPDEST PUSH0 PUSH2 0x5AB DUP6 DUP3 DUP7 ADD PUSH2 0x574 JUMP JUMPDEST SWAP3 POP POP PUSH1 0x20 DUP4 ADD CALLDATALOAD PUSH8 0xFFFFFFFFFFFFFFFF DUP2 GT ISZERO PUSH2 0x5CC JUMPI PUSH2 0x5CB PUSH2 0x3CE JUMP JUMPDEST JUMPDEST PUSH2 0x5D8 DUP6 DUP3 DUP7 ADD PUSH2 0x4E1 JUMP JUMPDEST SWAP2 POP POP SWAP3 POP SWAP3 SWAP1 POP JUMP JUMPDEST PUSH0 PUSH1 0x20 DUP3 DUP5 SUB SLT ISZERO PUSH2 0x5F7 JUMPI PUSH2 0x5F6 PUSH2 0x3CA JUMP JUMPDEST JUMPDEST PUSH0 PUSH2 0x604 DUP5 DUP3 DUP6 ADD PUSH2 0x574 JUMP JUMPDEST SWAP2 POP POP SWAP3 SWAP2 POP POP JUMP JUMPDEST PUSH0 DUP2 MLOAD SWAP1 POP SWAP2 SWAP1 POP JUMP JUMPDEST PUSH0 DUP3 DUP3 MSTORE PUSH1 0x20 DUP3 ADD SWAP1 POP SWAP3 SWAP2 POP POP JUMP JUMPDEST PUSH0 JUMPDEST DUP4 DUP2 LT ISZERO PUSH2 0x644 JUMPI DUP1 DUP3 ADD MLOAD DUP2 DUP5 ADD MSTORE PUSH1 0x20 DUP2 ADD SWAP1 POP PUSH2 0x629 JUMP JUMPDEST PUSH0 DUP5 DUP5 ADD MSTORE POP POP POP POP JUMP JUMPDEST PUSH0 PUSH2 0x659 DUP3 PUSH2 0x60D JUMP JUMPDEST PUSH2 0x663 DUP2 DUP6 PUSH2 0x617 JUMP JUMPDEST SWAP4 POP PUSH2 0x673 DUP2 DUP6 PUSH1 0x20 DUP7 ADD PUSH2 0x627 JUMP JUMPDEST PUSH2 0x67C DUP2 PUSH2 0x3DA JUMP JUMPDEST DUP5 ADD SWAP2 POP POP SWAP3 SWAP2 POP POP JUMP JUMPDEST PUSH0 DUP2 ISZERO ISZERO SWAP1 POP SWAP2 SWAP1 POP JUMP JUMPDEST PUSH2 0x69B DUP2 PUSH2 0x687 JUMP JUMPDEST DUP3 MSTORE POP POP JUMP JUMPDEST PUSH0 PUSH1 0x40 DUP4 ADD PUSH0 DUP4 ADD MLOAD DUP5 DUP3 SUB PUSH0 DUP7 ADD MSTORE PUSH2 0x6BB DUP3 DUP3 PUSH2 0x64F JUMP JUMPDEST SWAP2 POP POP PUSH1 0x20 DUP4 ADD MLOAD PUSH2 0x6D0 PUSH1 0x20 DUP7 ADD DUP3 PUSH2 0x692 JUMP JUMPDEST POP DUP1 SWAP2 POP POP SWAP3 SWAP2 POP POP JUMP JUMPDEST PUSH0 PUSH1 0x20 DUP3 ADD SWAP1 POP DUP2 DUP2 SUB PUSH0 DUP4 ADD MSTORE PUSH2 0x6F3 DUP2 DUP5 PUSH2 0x6A1 JUMP JUMPDEST SWAP1 POP SWAP3 SWAP2 POP POP JUMP JUMPDEST PUSH32 0x4E487B7100000000000000000000000000000000000000000000000000000000 PUSH0 MSTORE PUSH1 0x22 PUSH1 0x4 MSTORE PUSH1 0x24 PUSH0 REVERT JUMPDEST PUSH0 PUSH1 0x2 DUP3 DIV SWAP1 POP PUSH1 0x1 DUP3 AND DUP1 PUSH2 0x73F JUMPI PUSH1 0x7F DUP3 AND SWAP2 POP JUMPDEST PUSH1 0x20 DUP3 LT DUP2 SUB PUSH2 0x752 JUMPI PUSH2 0x751 PUSH2 0x6FB JUMP JUMPDEST JUMPDEST POP SWAP2 SWAP1 POP JUMP JUMPDEST PUSH0 DUP2 SWAP1 POP DUP2 PUSH0 MSTORE PUSH1 0x20 PUSH0 KECCAK256 SWAP1 POP SWAP2 SWAP1 POP JUMP JUMPDEST PUSH0 PUSH1 0x20 PUSH1 0x1F DUP4 ADD DIV SWAP1 POP SWAP2 SWAP1 POP JUMP JUMPDEST PUSH0 DUP3 DUP3 SHL SWAP1 POP SWAP3 SWAP2 POP POP JUMP JUMPDEST PUSH0 PUSH1 0x8 DUP4 MUL PUSH2 0x7B4 PUSH32 0xFFFFFFFFFFFFFFFFFFFFFFFFFFFFFFFFFFFFFFFFFFFFFFFFFFFFFFFFFFFFFFFF DUP3 PUSH2 0x779 JUMP JUMPDEST PUSH2 0x7BE DUP7 DUP4 PUSH2 0x779 JUMP JUMPDEST SWAP6 POP DUP1 NOT DUP5 AND SWAP4 POP DUP1 DUP7 AND DUP5 OR SWAP3 POP POP POP SWAP4 SWAP3 POP POP POP JUMP JUMPDEST PUSH0 DUP2 SWAP1 POP SWAP2 SWAP1 POP JUMP JUMPDEST PUSH0 PUSH2 0x7F9 PUSH2 0x7F4 PUSH2 0x7EF DUP5 PUSH2 0x555 JUMP JUMPDEST PUSH2 0x7D6 JUMP JUMPDEST PUSH2 0x555 JUMP JUMPDEST SWAP1 POP SWAP2 SWAP1 POP JUMP JUMPDEST PUSH0 DUP2 SWAP1 POP SWAP2 SWAP1 POP JUMP JUMPDEST PUSH2 0x812 DUP4 PUSH2 0x7DF JUMP JUMPDEST PUSH2 0x826 PUSH2 0x81E DUP3 PUSH2 0x800 JUMP JUMPDEST DUP5 DUP5 SLOAD PUSH2 0x785 JUMP JUMPDEST DUP3 SSTORE POP POP POP POP JUMP JUMPDEST PUSH0 SWAP1 JUMP JUMPDEST PUSH2 0x83A PUSH2 0x82E JUMP JUMPDEST PUSH2 0x845 DUP2 DUP5 DUP5 PUSH2 0x809 JUMP JUMPDEST POP POP POP JUMP JUMPDEST JUMPDEST DUP2 DUP2 LT ISZERO PUSH2 0x868 JUMPI PUSH2 0x85D PUSH0 DUP3 PUSH2 0x832 JUMP JUMPDEST PUSH1 0x1 DUP2 ADD SWAP1 POP PUSH2 0x84B JUMP JUMPDEST POP POP JUMP JUMPDEST PUSH1 0x1F DUP3 GT ISZERO PUSH2 0x8AD JUMPI PUSH2 0x87E DUP2 PUSH2 0x758 JUMP JUMPDEST PUSH2 0x887 DUP5 PUSH2 0x76A JUMP JUMPDEST DUP2 ADD PUSH1 0x20 DUP6 LT ISZERO PUSH2 0x896 JUMPI DUP2 SWAP1 POP JUMPDEST PUSH2 0x8AA PUSH2 0x8A2 DUP6 PUSH2 0x76A JUMP JUMPDEST DUP4 ADD DUP3 PUSH2 0x84A JUMP JUMPDEST POP POP JUMPDEST POP POP POP JUMP JUMPDEST PUSH0 DUP3 DUP3 SHR SWAP1 POP SWAP3 SWAP2 POP POP JUMP JUMPDEST PUSH0 PUSH2 0x8CD PUSH0 NOT DUP5 PUSH1 0x8 MUL PUSH2 0x8B2 JUMP JUMPDEST NOT DUP1 DUP4 AND SWAP2 POP POP SWAP3 SWAP2 POP POP JUMP JUMPDEST PUSH0 PUSH2 0x8E5 DUP4 DUP4 PUSH2 0x8BE JUMP JUMPDEST SWAP2 POP DUP3 PUSH1 0x2 MUL DUP3 OR SWAP1 POP SWAP3 SWAP2 POP POP JUMP JUMPDEST PUSH2 0x8FE DUP3 PUSH2 0x60D JUMP JUMPDEST PUSH8 0xFFFFFFFFFFFFFFFF DUP2 GT ISZERO PUSH2 0x917 JUMPI PUSH2 0x916 PUSH2 0x3EA JUMP JUMPDEST JUMPDEST PUSH2 0x921 DUP3 SLOAD PUSH2 0x728 JUMP JUMPDEST PUSH2 0x92C DUP3 DUP3 DUP6 PUSH2 0x86C JUMP JUMPDEST PUSH0 PUSH1 0x20 SWAP1 POP PUSH1 0x1F DUP4 GT PUSH1 0x1 DUP2 EQ PUSH2 0x95D JUMPI PUSH0 DUP5 ISZERO PUSH2 0x94B JUMPI DUP3 DUP8 ADD MLOAD SWAP1 POP JUMPDEST PUSH2 0x955 DUP6 DUP3 PUSH2 0x8DA JUMP JUMPDEST DUP7 SSTORE POP PUSH2 0x9BC JUMP JUMPDEST PUSH1 0x1F NOT DUP5 AND PUSH2 0x96B DUP7 PUSH2 0x758 JUMP JUMPDEST PUSH0 JUMPDEST DUP3 DUP2 LT ISZERO PUSH2 0x992 JUMPI DUP5 DUP10 ADD MLOAD DUP3 SSTORE PUSH1 0x1 DUP3 ADD SWAP2 POP PUSH1 0x20 DUP6 ADD SWAP5 POP PUSH1 0x20 DUP2 ADD SWAP1 POP PUSH2 0x96D JUMP JUMPDEST DUP7 DUP4 LT ISZERO PUSH2 0x9AF JUMPI DUP5 DUP10 ADD MLOAD PUSH2 0x9AB PUSH1 0x1F DUP10 AND DUP3 PUSH2 0x8BE JUMP JUMPDEST DUP4 SSTORE POP JUMPDEST PUSH1 0x1 PUSH1 0x2 DUP9 MUL ADD DUP9 SSTORE POP POP POP JUMPDEST POP POP POP POP POP POP JUMP JUMPDEST PUSH32 0x4E487B7100000000000000000000000000000000000000000000000000000000 PUSH0 MSTORE PUSH1 0x32 PUSH1 0x4 MSTORE PUSH1 0x24 PUSH0 REVERT INVALID LOG2 PUSH5 0x6970667358 0x22 SLT KECCAK256 0xD4 0xE4 0xD SIGNEXTEND PUSH1 0xE8 0xC9 0x1F PUSH13 0x688D05592CC7F1E72543824B42 0xB8 0x26 PUSH28 0xA9A353E6E432EB64736F6C6343000814003300000000000000000000 "
				},
				"gasEstimates": {
					"creation": {
						"codeDepositCost": "519800",
						"executionCost": "554",
						"totalCost": "520354"
					},
					"external": {
						"createGames(string)": "infinite",
						"get(uint256)": "infinite",
						"setOpposite(uint256)": "29040",
						"updateDescription(uint256,string)": "infinite"
					}
				},
				"methodIdentifiers": {
					"createGames(string)": "1014e7e4",
					"get(uint256)": "9507d39a",
					"setOpposite(uint256)": "1ec039d5",
					"updateDescription(uint256,string)": "14dee4b3"
				}
			},
			"storageLayout": {
				"storage": [
					{
						"astId": 10,
						"contract": "contracts/Enum.sol:Struct",
						"label": "games",
						"offset": 0,
						"slot": "0",
						"type": "t_array(t_struct(Games)6_storage)dyn_storage"
					}
				],
				"types": {
					"t_array(t_struct(Games)6_storage)dyn_storage": {
						"base": "t_struct(Games)6_storage",
						"encoding": "dynamic_array",
						"label": "struct Struct.Games[]",
						"numberOfBytes": "32"
					},
					"t_bool": {
						"encoding": "inplace",
						"label": "bool",
						"numberOfBytes": "1"
					},
					"t_string_storage": {
						"encoding": "bytes",
						"label": "string",
						"numberOfBytes": "32"
					},
					"t_struct(Games)6_storage": {
						"encoding": "inplace",
						"label": "struct Struct.Games",
						"members": [
							{
								"astId": 3,
								"contract": "contracts/Enum.sol:Struct",
								"label": "description",
								"offset": 0,
								"slot": "0",
								"type": "t_string_storage"
							},
							{
								"astId": 5,
								"contract": "contracts/Enum.sol:Struct",
								"label": "played",
								"offset": 0,
								"slot": "1",
								"type": "t_bool"
							}
						],
						"numberOfBytes": "64"
					}
				}
			},
			"userdoc": {
				"kind": "user",
				"methods": {},
				"version": 1
			}
		}
	}
}