{
	"contracts/Errors.sol": {
		"Errors": {
			"abi": [
				{
					"inputs": [
						{
							"internalType": "string",
							"name": "",
							"type": "string"
						}
					],
					"name": "CustomError",
					"type": "error"
				},
				{
					"inputs": [
						{
							"internalType": "uint256",
							"name": "amount",
							"type": "uint256"
						},
						{
							"internalType": "address",
							"name": "user",
							"type": "address"
						}
					],
					"name": "InsufficientBalance",
					"type": "error"
				},
				{
					"inputs": [],
					"name": "myNumber",
					"outputs": [
						{
							"internalType": "uint256",
							"name": "",
							"type": "uint256"
						}
					],
					"stateMutability": "view",
					"type": "function"
				},
				{
					"inputs": [],
					"name": "testAssert",
					"outputs": [],
					"stateMutability": "view",
					"type": "function"
				},
				{
					"inputs": [
						{
							"internalType": "uint256",
							"name": "_x",
							"type": "uint256"
						}
					],
					"name": "testRequire",
					"outputs": [],
					"stateMutability": "pure",
					"type": "function"
				},
				{
					"inputs": [
						{
							"internalType": "uint256",
							"name": "_x",
							"type": "uint256"
						}
					],
					"name": "testRevert",
					"outputs": [],
					"stateMutability": "pure",
					"type": "function"
				},
				{
					"inputs": [],
					"name": "userBalance",
					"outputs": [
						{
							"internalType": "uint256",
							"name": "",
							"type": "uint256"
						}
					],
					"stateMutability": "view",
					"type": "function"
				},
				{
					"inputs": [
						{
							"internalType": "uint256",
							"name": "_amountToWithdraw",
							"type": "uint256"
						}
					],
					"name": "withdraw",
					"outputs": [],
					"stateMutability": "view",
					"type": "function"
				}
			],
			"devdoc": {
				"kind": "dev",
				"methods": {},
				"version": 1
			},
			"evm": {
				"assembly": "    /* \"contracts/Errors.sol\":27:819  contract Errors {... */\n  mstore(0x40, 0x80)\n    /* \"contracts/Errors.sol\":325:328  100 */\n  0x64\n    /* \"contracts/Errors.sol\":302:328  uint public myNumber = 100 */\n  0x00\n  sstore\n    /* \"contracts/Errors.sol\":539:542  100 */\n  0x64\n    /* \"contracts/Errors.sol\":513:542  uint public userBalance = 100 */\n  0x01\n  sstore\n    /* \"contracts/Errors.sol\":27:819  contract Errors {... */\n  callvalue\n  dup1\n  iszero\n  tag_1\n  jumpi\n  0x00\n  dup1\n  revert\ntag_1:\n  pop\n  dataSize(sub_0)\n  dup1\n  dataOffset(sub_0)\n  0x00\n  codecopy\n  0x00\n  return\nstop\n\nsub_0: assembly {\n        /* \"contracts/Errors.sol\":27:819  contract Errors {... */\n      mstore(0x40, 0x80)\n      callvalue\n      dup1\n      iszero\n      tag_1\n      jumpi\n      0x00\n      dup1\n      revert\n    tag_1:\n      pop\n      jumpi(tag_2, lt(calldatasize, 0x04))\n      shr(0xe0, calldataload(0x00))\n      dup1\n      0x20987767\n      eq\n      tag_3\n      jumpi\n      dup1\n      0x23fd0e40\n      eq\n      tag_4\n      jumpi\n      dup1\n      0x2b813bc0\n      eq\n      tag_5\n      jumpi\n      dup1\n      0x2e1a7d4d\n      eq\n      tag_6\n      jumpi\n      dup1\n      0xb8bd717f\n      eq\n      tag_7\n      jumpi\n      dup1\n      0xbf152765\n      eq\n      tag_8\n      jumpi\n    tag_2:\n      0x00\n      dup1\n      revert\n        /* \"contracts/Errors.sol\":164:294  function testRevert(uint _x) public pure {... */\n    tag_3:\n      tag_9\n      0x04\n      dup1\n      calldatasize\n      sub\n      dup2\n      add\n      swap1\n      tag_10\n      swap2\n      swap1\n      tag_11\n      jump\t// in\n    tag_10:\n      tag_12\n      jump\t// in\n    tag_9:\n      stop\n        /* \"contracts/Errors.sol\":302:328  uint public myNumber = 100 */\n    tag_4:\n      tag_13\n      tag_14\n      jump\t// in\n    tag_13:\n      mload(0x40)\n      tag_15\n      swap2\n      swap1\n      tag_16\n      jump\t// in\n    tag_15:\n      mload(0x40)\n      dup1\n      swap2\n      sub\n      swap1\n      return\n        /* \"contracts/Errors.sol\":337:412  function testAssert() public view{... */\n    tag_5:\n      tag_17\n      tag_18\n      jump\t// in\n    tag_17:\n      stop\n        /* \"contracts/Errors.sol\":551:816  function withdraw(uint _amountToWithdraw) public view {... */\n    tag_6:\n      tag_19\n      0x04\n      dup1\n      calldatasize\n      sub\n      dup2\n      add\n      swap1\n      tag_20\n      swap2\n      swap1\n      tag_11\n      jump\t// in\n    tag_20:\n      tag_21\n      jump\t// in\n    tag_19:\n      stop\n        /* \"contracts/Errors.sol\":52:156  function testRequire(uint _x) public pure {... */\n    tag_7:\n      tag_22\n      0x04\n      dup1\n      calldatasize\n      sub\n      dup2\n      add\n      swap1\n      tag_23\n      swap2\n      swap1\n      tag_11\n      jump\t// in\n    tag_23:\n      tag_24\n      jump\t// in\n    tag_22:\n      stop\n        /* \"contracts/Errors.sol\":513:542  uint public userBalance = 100 */\n    tag_8:\n      tag_25\n      tag_26\n      jump\t// in\n    tag_25:\n      mload(0x40)\n      tag_27\n      swap2\n      swap1\n      tag_16\n      jump\t// in\n    tag_27:\n      mload(0x40)\n      dup1\n      swap2\n      sub\n      swap1\n      return\n        /* \"contracts/Errors.sol\":164:294  function testRevert(uint _x) public pure {... */\n    tag_12:\n        /* \"contracts/Errors.sol\":224:226  10 */\n      0x0a\n        /* \"contracts/Errors.sol\":219:221  _x */\n      dup2\n        /* \"contracts/Errors.sol\":219:226  _x <=10 */\n      gt\n        /* \"contracts/Errors.sol\":216:287  if(_x <=10){... */\n      tag_29\n      jumpi\n        /* \"contracts/Errors.sol\":242:275  revert(\"Must be greater than 10\") */\n      mload(0x40)\n      0x08c379a000000000000000000000000000000000000000000000000000000000\n      dup2\n      mstore\n      0x04\n      add\n      tag_30\n      swap1\n      tag_31\n      jump\t// in\n    tag_30:\n      mload(0x40)\n      dup1\n      swap2\n      sub\n      swap1\n      revert\n        /* \"contracts/Errors.sol\":216:287  if(_x <=10){... */\n    tag_29:\n        /* \"contracts/Errors.sol\":164:294  function testRevert(uint _x) public pure {... */\n      pop\n      jump\t// out\n        /* \"contracts/Errors.sol\":302:328  uint public myNumber = 100 */\n    tag_14:\n      sload(0x00)\n      dup2\n      jump\t// out\n        /* \"contracts/Errors.sol\":337:412  function testAssert() public view{... */\n    tag_18:\n        /* \"contracts/Errors.sol\":400:403  100 */\n      0x64\n        /* \"contracts/Errors.sol\":388:396  myNumber */\n      sload(0x00)\n        /* \"contracts/Errors.sol\":388:403  myNumber == 100 */\n      eq\n        /* \"contracts/Errors.sol\":381:404  assert(myNumber == 100) */\n      tag_33\n      jumpi\n      tag_34\n      tag_35\n      jump\t// in\n    tag_34:\n    tag_33:\n        /* \"contracts/Errors.sol\":337:412  function testAssert() public view{... */\n      jump\t// out\n        /* \"contracts/Errors.sol\":551:816  function withdraw(uint _amountToWithdraw) public view {... */\n    tag_21:\n        /* \"contracts/Errors.sol\":640:651  userBalance */\n      sload(0x01)\n        /* \"contracts/Errors.sol\":619:636  _amountToWithdraw */\n      dup2\n        /* \"contracts/Errors.sol\":619:651  _amountToWithdraw <= userBalance */\n      gt\n        /* \"contracts/Errors.sol\":616:809  if(_amountToWithdraw <= userBalance){... */\n      tag_37\n      jumpi\n        /* \"contracts/Errors.sol\":694:711  _amountToWithdraw */\n      dup1\n        /* \"contracts/Errors.sol\":713:723  msg.sender */\n      caller\n        /* \"contracts/Errors.sol\":674:724  InsufficientBalance(_amountToWithdraw, msg.sender) */\n      mload(0x40)\n      0xcaadeb2000000000000000000000000000000000000000000000000000000000\n      dup2\n      mstore\n      0x04\n      add\n      tag_38\n      swap3\n      swap2\n      swap1\n      tag_39\n      jump\t// in\n    tag_38:\n      mload(0x40)\n      dup1\n      swap2\n      sub\n      swap1\n      revert\n        /* \"contracts/Errors.sol\":616:809  if(_amountToWithdraw <= userBalance){... */\n    tag_37:\n        /* \"contracts/Errors.sol\":762:797  CustomError(\"Insufficient balance\") */\n      mload(0x40)\n      0x8d6ea8be00000000000000000000000000000000000000000000000000000000\n      dup2\n      mstore\n      0x04\n      add\n      tag_41\n      swap1\n      tag_42\n      jump\t// in\n    tag_41:\n      mload(0x40)\n      dup1\n      swap2\n      sub\n      swap1\n      revert\n        /* \"contracts/Errors.sol\":52:156  function testRequire(uint _x) public pure {... */\n    tag_24:\n        /* \"contracts/Errors.sol\":118:120  10 */\n      0x0a\n        /* \"contracts/Errors.sol\":113:115  _x */\n      dup2\n        /* \"contracts/Errors.sol\":113:120  _x > 10 */\n      gt\n        /* \"contracts/Errors.sol\":105:148  require(_x > 10, \"Must be greater than 10\") */\n      tag_44\n      jumpi\n      mload(0x40)\n      0x08c379a000000000000000000000000000000000000000000000000000000000\n      dup2\n      mstore\n      0x04\n      add\n      tag_45\n      swap1\n      tag_31\n      jump\t// in\n    tag_45:\n      mload(0x40)\n      dup1\n      swap2\n      sub\n      swap1\n      revert\n    tag_44:\n        /* \"contracts/Errors.sol\":52:156  function testRequire(uint _x) public pure {... */\n      pop\n      jump\t// out\n        /* \"contracts/Errors.sol\":513:542  uint public userBalance = 100 */\n    tag_26:\n      sload(0x01)\n      dup2\n      jump\t// out\n        /* \"#utility.yul\":88:205   */\n    tag_47:\n        /* \"#utility.yul\":197:198   */\n      0x00\n        /* \"#utility.yul\":194:195   */\n      dup1\n        /* \"#utility.yul\":187:199   */\n      revert\n        /* \"#utility.yul\":334:411   */\n    tag_49:\n        /* \"#utility.yul\":371:378   */\n      0x00\n        /* \"#utility.yul\":400:405   */\n      dup2\n        /* \"#utility.yul\":389:405   */\n      swap1\n      pop\n        /* \"#utility.yul\":334:411   */\n      swap2\n      swap1\n      pop\n      jump\t// out\n        /* \"#utility.yul\":417:539   */\n    tag_50:\n        /* \"#utility.yul\":490:514   */\n      tag_67\n        /* \"#utility.yul\":508:513   */\n      dup2\n        /* \"#utility.yul\":490:514   */\n      tag_49\n      jump\t// in\n    tag_67:\n        /* \"#utility.yul\":483:488   */\n      dup2\n        /* \"#utility.yul\":480:515   */\n      eq\n        /* \"#utility.yul\":470:533   */\n      tag_68\n      jumpi\n        /* \"#utility.yul\":529:530   */\n      0x00\n        /* \"#utility.yul\":526:527   */\n      dup1\n        /* \"#utility.yul\":519:531   */\n      revert\n        /* \"#utility.yul\":470:533   */\n    tag_68:\n        /* \"#utility.yul\":417:539   */\n      pop\n      jump\t// out\n        /* \"#utility.yul\":545:684   */\n    tag_51:\n        /* \"#utility.yul\":591:596   */\n      0x00\n        /* \"#utility.yul\":629:635   */\n      dup2\n        /* \"#utility.yul\":616:636   */\n      calldataload\n        /* \"#utility.yul\":607:636   */\n      swap1\n      pop\n        /* \"#utility.yul\":645:678   */\n      tag_70\n        /* \"#utility.yul\":672:677   */\n      dup2\n        /* \"#utility.yul\":645:678   */\n      tag_50\n      jump\t// in\n    tag_70:\n        /* \"#utility.yul\":545:684   */\n      swap3\n      swap2\n      pop\n      pop\n      jump\t// out\n        /* \"#utility.yul\":690:1019   */\n    tag_11:\n        /* \"#utility.yul\":749:755   */\n      0x00\n        /* \"#utility.yul\":798:800   */\n      0x20\n        /* \"#utility.yul\":786:795   */\n      dup3\n        /* \"#utility.yul\":777:784   */\n      dup5\n        /* \"#utility.yul\":773:796   */\n      sub\n        /* \"#utility.yul\":769:801   */\n      slt\n        /* \"#utility.yul\":766:885   */\n      iszero\n      tag_72\n      jumpi\n        /* \"#utility.yul\":804:883   */\n      tag_73\n      tag_47\n      jump\t// in\n    tag_73:\n        /* \"#utility.yul\":766:885   */\n    tag_72:\n        /* \"#utility.yul\":924:925   */\n      0x00\n        /* \"#utility.yul\":949:1002   */\n      tag_74\n        /* \"#utility.yul\":994:1001   */\n      dup5\n        /* \"#utility.yul\":985:991   */\n      dup3\n        /* \"#utility.yul\":974:983   */\n      dup6\n        /* \"#utility.yul\":970:992   */\n      add\n        /* \"#utility.yul\":949:1002   */\n      tag_51\n      jump\t// in\n    tag_74:\n        /* \"#utility.yul\":939:1002   */\n      swap2\n      pop\n        /* \"#utility.yul\":895:1012   */\n      pop\n        /* \"#utility.yul\":690:1019   */\n      swap3\n      swap2\n      pop\n      pop\n      jump\t// out\n        /* \"#utility.yul\":1025:1143   */\n    tag_52:\n        /* \"#utility.yul\":1112:1136   */\n      tag_76\n        /* \"#utility.yul\":1130:1135   */\n      dup2\n        /* \"#utility.yul\":1112:1136   */\n      tag_49\n      jump\t// in\n    tag_76:\n        /* \"#utility.yul\":1107:1110   */\n      dup3\n        /* \"#utility.yul\":1100:1137   */\n      mstore\n        /* \"#utility.yul\":1025:1143   */\n      pop\n      pop\n      jump\t// out\n        /* \"#utility.yul\":1149:1371   */\n    tag_16:\n        /* \"#utility.yul\":1242:1246   */\n      0x00\n        /* \"#utility.yul\":1280:1282   */\n      0x20\n        /* \"#utility.yul\":1269:1278   */\n      dup3\n        /* \"#utility.yul\":1265:1283   */\n      add\n        /* \"#utility.yul\":1257:1283   */\n      swap1\n      pop\n        /* \"#utility.yul\":1293:1364   */\n      tag_78\n        /* \"#utility.yul\":1361:1362   */\n      0x00\n        /* \"#utility.yul\":1350:1359   */\n      dup4\n        /* \"#utility.yul\":1346:1363   */\n      add\n        /* \"#utility.yul\":1337:1343   */\n      dup5\n        /* \"#utility.yul\":1293:1364   */\n      tag_52\n      jump\t// in\n    tag_78:\n        /* \"#utility.yul\":1149:1371   */\n      swap3\n      swap2\n      pop\n      pop\n      jump\t// out\n        /* \"#utility.yul\":1377:1546   */\n    tag_53:\n        /* \"#utility.yul\":1461:1472   */\n      0x00\n        /* \"#utility.yul\":1495:1501   */\n      dup3\n        /* \"#utility.yul\":1490:1493   */\n      dup3\n        /* \"#utility.yul\":1483:1502   */\n      mstore\n        /* \"#utility.yul\":1535:1539   */\n      0x20\n        /* \"#utility.yul\":1530:1533   */\n      dup3\n        /* \"#utility.yul\":1526:1540   */\n      add\n        /* \"#utility.yul\":1511:1540   */\n      swap1\n      pop\n        /* \"#utility.yul\":1377:1546   */\n      swap3\n      swap2\n      pop\n      pop\n      jump\t// out\n        /* \"#utility.yul\":1552:1725   */\n    tag_54:\n        /* \"#utility.yul\":1692:1717   */\n      0x4d7573742062652067726561746572207468616e203130000000000000000000\n        /* \"#utility.yul\":1688:1689   */\n      0x00\n        /* \"#utility.yul\":1680:1686   */\n      dup3\n        /* \"#utility.yul\":1676:1690   */\n      add\n        /* \"#utility.yul\":1669:1718   */\n      mstore\n        /* \"#utility.yul\":1552:1725   */\n      pop\n      jump\t// out\n        /* \"#utility.yul\":1731:2097   */\n    tag_55:\n        /* \"#utility.yul\":1873:1876   */\n      0x00\n        /* \"#utility.yul\":1894:1961   */\n      tag_82\n        /* \"#utility.yul\":1958:1960   */\n      0x17\n        /* \"#utility.yul\":1953:1956   */\n      dup4\n        /* \"#utility.yul\":1894:1961   */\n      tag_53\n      jump\t// in\n    tag_82:\n        /* \"#utility.yul\":1887:1961   */\n      swap2\n      pop\n        /* \"#utility.yul\":1970:2063   */\n      tag_83\n        /* \"#utility.yul\":2059:2062   */\n      dup3\n        /* \"#utility.yul\":1970:2063   */\n      tag_54\n      jump\t// in\n    tag_83:\n        /* \"#utility.yul\":2088:2090   */\n      0x20\n        /* \"#utility.yul\":2083:2086   */\n      dup3\n        /* \"#utility.yul\":2079:2091   */\n      add\n        /* \"#utility.yul\":2072:2091   */\n      swap1\n      pop\n        /* \"#utility.yul\":1731:2097   */\n      swap2\n      swap1\n      pop\n      jump\t// out\n        /* \"#utility.yul\":2103:2522   */\n    tag_31:\n        /* \"#utility.yul\":2269:2273   */\n      0x00\n        /* \"#utility.yul\":2307:2309   */\n      0x20\n        /* \"#utility.yul\":2296:2305   */\n      dup3\n        /* \"#utility.yul\":2292:2310   */\n      add\n        /* \"#utility.yul\":2284:2310   */\n      swap1\n      pop\n        /* \"#utility.yul\":2356:2365   */\n      dup2\n        /* \"#utility.yul\":2350:2354   */\n      dup2\n        /* \"#utility.yul\":2346:2366   */\n      sub\n        /* \"#utility.yul\":2342:2343   */\n      0x00\n        /* \"#utility.yul\":2331:2340   */\n      dup4\n        /* \"#utility.yul\":2327:2344   */\n      add\n        /* \"#utility.yul\":2320:2367   */\n      mstore\n        /* \"#utility.yul\":2384:2515   */\n      tag_85\n        /* \"#utility.yul\":2510:2514   */\n      dup2\n        /* \"#utility.yul\":2384:2515   */\n      tag_55\n      jump\t// in\n    tag_85:\n        /* \"#utility.yul\":2376:2515   */\n      swap1\n      pop\n        /* \"#utility.yul\":2103:2522   */\n      swap2\n      swap1\n      pop\n      jump\t// out\n        /* \"#utility.yul\":2528:2708   */\n    tag_35:\n        /* \"#utility.yul\":2576:2653   */\n      0x4e487b7100000000000000000000000000000000000000000000000000000000\n        /* \"#utility.yul\":2573:2574   */\n      0x00\n        /* \"#utility.yul\":2566:2654   */\n      mstore\n        /* \"#utility.yul\":2673:2677   */\n      0x01\n        /* \"#utility.yul\":2670:2671   */\n      0x04\n        /* \"#utility.yul\":2663:2678   */\n      mstore\n        /* \"#utility.yul\":2697:2701   */\n      0x24\n        /* \"#utility.yul\":2694:2695   */\n      0x00\n        /* \"#utility.yul\":2687:2702   */\n      revert\n        /* \"#utility.yul\":2714:2840   */\n    tag_56:\n        /* \"#utility.yul\":2751:2758   */\n      0x00\n        /* \"#utility.yul\":2791:2833   */\n      0xffffffffffffffffffffffffffffffffffffffff\n        /* \"#utility.yul\":2784:2789   */\n      dup3\n        /* \"#utility.yul\":2780:2834   */\n      and\n        /* \"#utility.yul\":2769:2834   */\n      swap1\n      pop\n        /* \"#utility.yul\":2714:2840   */\n      swap2\n      swap1\n      pop\n      jump\t// out\n        /* \"#utility.yul\":2846:2942   */\n    tag_57:\n        /* \"#utility.yul\":2883:2890   */\n      0x00\n        /* \"#utility.yul\":2912:2936   */\n      tag_89\n        /* \"#utility.yul\":2930:2935   */\n      dup3\n        /* \"#utility.yul\":2912:2936   */\n      tag_56\n      jump\t// in\n    tag_89:\n        /* \"#utility.yul\":2901:2936   */\n      swap1\n      pop\n        /* \"#utility.yul\":2846:2942   */\n      swap2\n      swap1\n      pop\n      jump\t// out\n        /* \"#utility.yul\":2948:3066   */\n    tag_58:\n        /* \"#utility.yul\":3035:3059   */\n      tag_91\n        /* \"#utility.yul\":3053:3058   */\n      dup2\n        /* \"#utility.yul\":3035:3059   */\n      tag_57\n      jump\t// in\n    tag_91:\n        /* \"#utility.yul\":3030:3033   */\n      dup3\n        /* \"#utility.yul\":3023:3060   */\n      mstore\n        /* \"#utility.yul\":2948:3066   */\n      pop\n      pop\n      jump\t// out\n        /* \"#utility.yul\":3072:3404   */\n    tag_39:\n        /* \"#utility.yul\":3193:3197   */\n      0x00\n        /* \"#utility.yul\":3231:3233   */\n      0x40\n        /* \"#utility.yul\":3220:3229   */\n      dup3\n        /* \"#utility.yul\":3216:3234   */\n      add\n        /* \"#utility.yul\":3208:3234   */\n      swap1\n      pop\n        /* \"#utility.yul\":3244:3315   */\n      tag_93\n        /* \"#utility.yul\":3312:3313   */\n      0x00\n        /* \"#utility.yul\":3301:3310   */\n      dup4\n        /* \"#utility.yul\":3297:3314   */\n      add\n        /* \"#utility.yul\":3288:3294   */\n      dup6\n        /* \"#utility.yul\":3244:3315   */\n      tag_52\n      jump\t// in\n    tag_93:\n        /* \"#utility.yul\":3325:3397   */\n      tag_94\n        /* \"#utility.yul\":3393:3395   */\n      0x20\n        /* \"#utility.yul\":3382:3391   */\n      dup4\n        /* \"#utility.yul\":3378:3396   */\n      add\n        /* \"#utility.yul\":3369:3375   */\n      dup5\n        /* \"#utility.yul\":3325:3397   */\n      tag_58\n      jump\t// in\n    tag_94:\n        /* \"#utility.yul\":3072:3404   */\n      swap4\n      swap3\n      pop\n      pop\n      pop\n      jump\t// out\n        /* \"#utility.yul\":3410:3580   */\n    tag_59:\n        /* \"#utility.yul\":3550:3572   */\n      0x496e73756666696369656e742062616c616e6365000000000000000000000000\n        /* \"#utility.yul\":3546:3547   */\n      0x00\n        /* \"#utility.yul\":3538:3544   */\n      dup3\n        /* \"#utility.yul\":3534:3548   */\n      add\n        /* \"#utility.yul\":3527:3573   */\n      mstore\n        /* \"#utility.yul\":3410:3580   */\n      pop\n      jump\t// out\n        /* \"#utility.yul\":3586:3952   */\n    tag_60:\n        /* \"#utility.yul\":3728:3731   */\n      0x00\n        /* \"#utility.yul\":3749:3816   */\n      tag_97\n        /* \"#utility.yul\":3813:3815   */\n      0x14\n        /* \"#utility.yul\":3808:3811   */\n      dup4\n        /* \"#utility.yul\":3749:3816   */\n      tag_53\n      jump\t// in\n    tag_97:\n        /* \"#utility.yul\":3742:3816   */\n      swap2\n      pop\n        /* \"#utility.yul\":3825:3918   */\n      tag_98\n        /* \"#utility.yul\":3914:3917   */\n      dup3\n        /* \"#utility.yul\":3825:3918   */\n      tag_59\n      jump\t// in\n    tag_98:\n        /* \"#utility.yul\":3943:3945   */\n      0x20\n        /* \"#utility.yul\":3938:3941   */\n      dup3\n        /* \"#utility.yul\":3934:3946   */\n      add\n        /* \"#utility.yul\":3927:3946   */\n      swap1\n      pop\n        /* \"#utility.yul\":3586:3952   */\n      swap2\n      swap1\n      pop\n      jump\t// out\n        /* \"#utility.yul\":3958:4377   */\n    tag_42:\n        /* \"#utility.yul\":4124:4128   */\n      0x00\n        /* \"#utility.yul\":4162:4164   */\n      0x20\n        /* \"#utility.yul\":4151:4160   */\n      dup3\n        /* \"#utility.yul\":4147:4165   */\n      add\n        /* \"#utility.yul\":4139:4165   */\n      swap1\n      pop\n        /* \"#utility.yul\":4211:4220   */\n      dup2\n        /* \"#utility.yul\":4205:4209   */\n      dup2\n        /* \"#utility.yul\":4201:4221   */\n      sub\n        /* \"#utility.yul\":4197:4198   */\n      0x00\n        /* \"#utility.yul\":4186:4195   */\n      dup4\n        /* \"#utility.yul\":4182:4199   */\n      add\n        /* \"#utility.yul\":4175:4222   */\n      mstore\n        /* \"#utility.yul\":4239:4370   */\n      tag_100\n        /* \"#utility.yul\":4365:4369   */\n      dup2\n        /* \"#utility.yul\":4239:4370   */\n      tag_60\n      jump\t// in\n    tag_100:\n        /* \"#utility.yul\":4231:4370   */\n      swap1\n      pop\n        /* \"#utility.yul\":3958:4377   */\n      swap2\n      swap1\n      pop\n      jump\t// out\n\n    auxdata: 0xa2646970667358221220812f18d27048844f260fb98cb5a137b7145afbc97810c26e1bb46b7d0bd541df64736f6c63430008140033\n}\n",
				"bytecode": {
					"linkReferences": {},
					"object": "608060405260645f556064600155348015610018575f80fd5b5061045f806100265f395ff3fe608060405234801561000f575f80fd5b5060043610610060575f3560e01c8063209877671461006457806323fd0e40146100805780632b813bc01461009e5780632e1a7d4d146100a8578063b8bd717f146100c4578063bf152765146100e0575b5f80fd5b61007e60048036038101906100799190610263565b6100fe565b005b610088610144565b604051610095919061029d565b60405180910390f35b6100a6610149565b005b6100c260048036038101906100bd9190610263565b61015d565b005b6100de60048036038101906100d99190610263565b6101e0565b005b6100e8610226565b6040516100f5919061029d565b60405180910390f35b600a8111610141576040517f08c379a000000000000000000000000000000000000000000000000000000000815260040161013890610310565b60405180910390fd5b50565b5f5481565b60645f541461015b5761015a61032e565b5b565b60015481116101a55780336040517fcaadeb2000000000000000000000000000000000000000000000000000000000815260040161019c92919061039a565b60405180910390fd5b6040517f8d6ea8be0000000000000000000000000000000000000000000000000000000081526004016101d79061040b565b60405180910390fd5b600a8111610223576040517f08c379a000000000000000000000000000000000000000000000000000000000815260040161021a90610310565b60405180910390fd5b50565b60015481565b5f80fd5b5f819050919050565b61024281610230565b811461024c575f80fd5b50565b5f8135905061025d81610239565b92915050565b5f602082840312156102785761027761022c565b5b5f6102858482850161024f565b91505092915050565b61029781610230565b82525050565b5f6020820190506102b05f83018461028e565b92915050565b5f82825260208201905092915050565b7f4d7573742062652067726561746572207468616e2031300000000000000000005f82015250565b5f6102fa6017836102b6565b9150610305826102c6565b602082019050919050565b5f6020820190508181035f830152610327816102ee565b9050919050565b7f4e487b71000000000000000000000000000000000000000000000000000000005f52600160045260245ffd5b5f73ffffffffffffffffffffffffffffffffffffffff82169050919050565b5f6103848261035b565b9050919050565b6103948161037a565b82525050565b5f6040820190506103ad5f83018561028e565b6103ba602083018461038b565b9392505050565b7f496e73756666696369656e742062616c616e63650000000000000000000000005f82015250565b5f6103f56014836102b6565b9150610400826103c1565b602082019050919050565b5f6020820190508181035f830152610422816103e9565b905091905056fea2646970667358221220812f18d27048844f260fb98cb5a137b7145afbc97810c26e1bb46b7d0bd541df64736f6c63430008140033",
					"opcodes": "PUSH1 0x80 PUSH1 0x40 MSTORE PUSH1 0x64 PUSH0 SSTORE PUSH1 0x64 PUSH1 0x1 SSTORE CALLVALUE DUP1 ISZERO PUSH2 0x18 JUMPI PUSH0 DUP1 REVERT JUMPDEST POP PUSH2 0x45F DUP1 PUSH2 0x26 PUSH0 CODECOPY PUSH0 RETURN INVALID PUSH1 0x80 PUSH1 0x40 MSTORE CALLVALUE DUP1 ISZERO PUSH2 0xF JUMPI PUSH0 DUP1 REVERT JUMPDEST POP PUSH1 0x4 CALLDATASIZE LT PUSH2 0x60 JUMPI PUSH0 CALLDATALOAD PUSH1 0xE0 SHR DUP1 PUSH4 0x20987767 EQ PUSH2 0x64 JUMPI DUP1 PUSH4 0x23FD0E40 EQ PUSH2 0x80 JUMPI DUP1 PUSH4 0x2B813BC0 EQ PUSH2 0x9E JUMPI DUP1 PUSH4 0x2E1A7D4D EQ PUSH2 0xA8 JUMPI DUP1 PUSH4 0xB8BD717F EQ PUSH2 0xC4 JUMPI DUP1 PUSH4 0xBF152765 EQ PUSH2 0xE0 JUMPI JUMPDEST PUSH0 DUP1 REVERT JUMPDEST PUSH2 0x7E PUSH1 0x4 DUP1 CALLDATASIZE SUB DUP2 ADD SWAP1 PUSH2 0x79 SWAP2 SWAP1 PUSH2 0x263 JUMP JUMPDEST PUSH2 0xFE JUMP JUMPDEST STOP JUMPDEST PUSH2 0x88 PUSH2 0x144 JUMP JUMPDEST PUSH1 0x40 MLOAD PUSH2 0x95 SWAP2 SWAP1 PUSH2 0x29D JUMP JUMPDEST PUSH1 0x40 MLOAD DUP1 SWAP2 SUB SWAP1 RETURN JUMPDEST PUSH2 0xA6 PUSH2 0x149 JUMP JUMPDEST STOP JUMPDEST PUSH2 0xC2 PUSH1 0x4 DUP1 CALLDATASIZE SUB DUP2 ADD SWAP1 PUSH2 0xBD SWAP2 SWAP1 PUSH2 0x263 JUMP JUMPDEST PUSH2 0x15D JUMP JUMPDEST STOP JUMPDEST PUSH2 0xDE PUSH1 0x4 DUP1 CALLDATASIZE SUB DUP2 ADD SWAP1 PUSH2 0xD9 SWAP2 SWAP1 PUSH2 0x263 JUMP JUMPDEST PUSH2 0x1E0 JUMP JUMPDEST STOP JUMPDEST PUSH2 0xE8 PUSH2 0x226 JUMP JUMPDEST PUSH1 0x40 MLOAD PUSH2 0xF5 SWAP2 SWAP1 PUSH2 0x29D JUMP JUMPDEST PUSH1 0x40 MLOAD DUP1 SWAP2 SUB SWAP1 RETURN JUMPDEST PUSH1 0xA DUP2 GT PUSH2 0x141 JUMPI PUSH1 0x40 MLOAD PUSH32 0x8C379A000000000000000000000000000000000000000000000000000000000 DUP2 MSTORE PUSH1 0x4 ADD PUSH2 0x138 SWAP1 PUSH2 0x310 JUMP JUMPDEST PUSH1 0x40 MLOAD DUP1 SWAP2 SUB SWAP1 REVERT JUMPDEST POP JUMP JUMPDEST PUSH0 SLOAD DUP2 JUMP JUMPDEST PUSH1 0x64 PUSH0 SLOAD EQ PUSH2 0x15B JUMPI PUSH2 0x15A PUSH2 0x32E JUMP JUMPDEST JUMPDEST JUMP JUMPDEST PUSH1 0x1 SLOAD DUP2 GT PUSH2 0x1A5 JUMPI DUP1 CALLER PUSH1 0x40 MLOAD PUSH32 0xCAADEB2000000000000000000000000000000000000000000000000000000000 DUP2 MSTORE PUSH1 0x4 ADD PUSH2 0x19C SWAP3 SWAP2 SWAP1 PUSH2 0x39A JUMP JUMPDEST PUSH1 0x40 MLOAD DUP1 SWAP2 SUB SWAP1 REVERT JUMPDEST PUSH1 0x40 MLOAD PUSH32 0x8D6EA8BE00000000000000000000000000000000000000000000000000000000 DUP2 MSTORE PUSH1 0x4 ADD PUSH2 0x1D7 SWAP1 PUSH2 0x40B JUMP JUMPDEST PUSH1 0x40 MLOAD DUP1 SWAP2 SUB SWAP1 REVERT JUMPDEST PUSH1 0xA DUP2 GT PUSH2 0x223 JUMPI PUSH1 0x40 MLOAD PUSH32 0x8C379A000000000000000000000000000000000000000000000000000000000 DUP2 MSTORE PUSH1 0x4 ADD PUSH2 0x21A SWAP1 PUSH2 0x310 JUMP JUMPDEST PUSH1 0x40 MLOAD DUP1 SWAP2 SUB SWAP1 REVERT JUMPDEST POP JUMP JUMPDEST PUSH1 0x1 SLOAD DUP2 JUMP JUMPDEST PUSH0 DUP1 REVERT JUMPDEST PUSH0 DUP2 SWAP1 POP SWAP2 SWAP1 POP JUMP JUMPDEST PUSH2 0x242 DUP2 PUSH2 0x230 JUMP JUMPDEST DUP2 EQ PUSH2 0x24C JUMPI PUSH0 DUP1 REVERT JUMPDEST POP JUMP JUMPDEST PUSH0 DUP2 CALLDATALOAD SWAP1 POP PUSH2 0x25D DUP2 PUSH2 0x239 JUMP JUMPDEST SWAP3 SWAP2 POP POP JUMP JUMPDEST PUSH0 PUSH1 0x20 DUP3 DUP5 SUB SLT ISZERO PUSH2 0x278 JUMPI PUSH2 0x277 PUSH2 0x22C JUMP JUMPDEST JUMPDEST PUSH0 PUSH2 0x285 DUP5 DUP3 DUP6 ADD PUSH2 0x24F JUMP JUMPDEST SWAP2 POP POP SWAP3 SWAP2 POP POP JUMP JUMPDEST PUSH2 0x297 DUP2 PUSH2 0x230 JUMP JUMPDEST DUP3 MSTORE POP POP JUMP JUMPDEST PUSH0 PUSH1 0x20 DUP3 ADD SWAP1 POP PUSH2 0x2B0 PUSH0 DUP4 ADD DUP5 PUSH2 0x28E JUMP JUMPDEST SWAP3 SWAP2 POP POP JUMP JUMPDEST PUSH0 DUP3 DUP3 MSTORE PUSH1 0x20 DUP3 ADD SWAP1 POP SWAP3 SWAP2 POP POP JUMP JUMPDEST PUSH32 0x4D7573742062652067726561746572207468616E203130000000000000000000 PUSH0 DUP3 ADD MSTORE POP JUMP JUMPDEST PUSH0 PUSH2 0x2FA PUSH1 0x17 DUP4 PUSH2 0x2B6 JUMP JUMPDEST SWAP2 POP PUSH2 0x305 DUP3 PUSH2 0x2C6 JUMP JUMPDEST PUSH1 0x20 DUP3 ADD SWAP1 POP SWAP2 SWAP1 POP JUMP JUMPDEST PUSH0 PUSH1 0x20 DUP3 ADD SWAP1 POP DUP2 DUP2 SUB PUSH0 DUP4 ADD MSTORE PUSH2 0x327 DUP2 PUSH2 0x2EE JUMP JUMPDEST SWAP1 POP SWAP2 SWAP1 POP JUMP JUMPDEST PUSH32 0x4E487B7100000000000000000000000000000000000000000000000000000000 PUSH0 MSTORE PUSH1 0x1 PUSH1 0x4 MSTORE PUSH1 0x24 PUSH0 REVERT JUMPDEST PUSH0 PUSH20 0xFFFFFFFFFFFFFFFFFFFFFFFFFFFFFFFFFFFFFFFF DUP3 AND SWAP1 POP SWAP2 SWAP1 POP JUMP JUMPDEST PUSH0 PUSH2 0x384 DUP3 PUSH2 0x35B JUMP JUMPDEST SWAP1 POP SWAP2 SWAP1 POP JUMP JUMPDEST PUSH2 0x394 DUP2 PUSH2 0x37A JUMP JUMPDEST DUP3 MSTORE POP POP JUMP JUMPDEST PUSH0 PUSH1 0x40 DUP3 ADD SWAP1 POP PUSH2 0x3AD PUSH0 DUP4 ADD DUP6 PUSH2 0x28E JUMP JUMPDEST PUSH2 0x3BA PUSH1 0x20 DUP4 ADD DUP5 PUSH2 0x38B JUMP JUMPDEST SWAP4 SWAP3 POP POP POP JUMP JUMPDEST PUSH32 0x496E73756666696369656E742062616C616E6365000000000000000000000000 PUSH0 DUP3 ADD MSTORE POP JUMP JUMPDEST PUSH0 PUSH2 0x3F5 PUSH1 0x14 DUP4 PUSH2 0x2B6 JUMP JUMPDEST SWAP2 POP PUSH2 0x400 DUP3 PUSH2 0x3C1 JUMP JUMPDEST PUSH1 0x20 DUP3 ADD SWAP1 POP SWAP2 SWAP1 POP JUMP JUMPDEST PUSH0 PUSH1 0x20 DUP3 ADD SWAP1 POP DUP2 DUP2 SUB PUSH0 DUP4 ADD MSTORE PUSH2 0x422 DUP2 PUSH2 0x3E9 JUMP JUMPDEST SWAP1 POP SWAP2 SWAP1 POP JUMP INVALID LOG2 PUSH5 0x6970667358 0x22 SLT KECCAK256 DUP2 0x2F XOR 0xD2 PUSH17 0x48844F260FB98CB5A137B7145AFBC97810 0xC2 PUSH15 0x1BB46B7D0BD541DF64736F6C634300 ADDMOD EQ STOP CALLER "
				},
				"gasEstimates": {
					"creation": {
						"codeDepositCost": "223800",
						"executionCost": "44472",
						"totalCost": "268272"
					},
					"external": {
						"myNumber()": "2424",
						"testAssert()": "2314",
						"testRequire(uint256)": "772",
						"testRevert(uint256)": "684",
						"userBalance()": "2513",
						"withdraw(uint256)": "infinite"
					}
				},
				"methodIdentifiers": {
					"myNumber()": "23fd0e40",
					"testAssert()": "2b813bc0",
					"testRequire(uint256)": "b8bd717f",
					"testRevert(uint256)": "20987767",
					"userBalance()": "bf152765",
					"withdraw(uint256)": "2e1a7d4d"
				}
			},
			"storageLayout": {
				"storage": [
					{
						"astId": 32,
						"contract": "contracts/Errors.sol:Errors",
						"label": "myNumber",
						"offset": 0,
						"slot": "0",
						"type": "t_uint256"
					},
					{
						"astId": 55,
						"contract": "contracts/Errors.sol:Errors",
						"label": "userBalance",
						"offset": 0,
						"slot": "1",
						"type": "t_uint256"
					}
				],
				"types": {
					"t_uint256": {
						"encoding": "inplace",
						"label": "uint256",
						"numberOfBytes": "32"
					}
				}
			},
			"userdoc": {
				"kind": "user",
				"methods": {},
				"version": 1
			}
		}
	}
}