{
	"contracts/Functions.sol": {
		"FunctionsOutputs": {
			"abi": [
				{
					"inputs": [],
					"name": "destructuring",
					"outputs": [
						{
							"internalType": "uint256",
							"name": "x",
							"type": "uint256"
						},
						{
							"internalType": "bool",
							"name": "y",
							"type": "bool"
						},
						{
							"internalType": "string",
							"name": "z",
							"type": "string"
						},
						{
							"internalType": "int256",
							"name": "a",
							"type": "int256"
						}
					],
					"stateMutability": "pure",
					"type": "function"
				},
				{
					"inputs": [],
					"name": "returnMany",
					"outputs": [
						{
							"internalType": "uint256",
							"name": "",
							"type": "uint256"
						},
						{
							"internalType": "bool",
							"name": "",
							"type": "bool"
						},
						{
							"internalType": "int256",
							"name": "",
							"type": "int256"
						}
					],
					"stateMutability": "pure",
					"type": "function"
				},
				{
					"inputs": [],
					"name": "returnWithName",
					"outputs": [
						{
							"internalType": "uint256",
							"name": "x",
							"type": "uint256"
						},
						{
							"internalType": "bool",
							"name": "y",
							"type": "bool"
						},
						{
							"internalType": "int256",
							"name": "z",
							"type": "int256"
						}
					],
					"stateMutability": "pure",
					"type": "function"
				},
				{
					"inputs": [],
					"name": "returnWithValues",
					"outputs": [
						{
							"internalType": "uint256",
							"name": "x",
							"type": "uint256"
						},
						{
							"internalType": "bool",
							"name": "y",
							"type": "bool"
						},
						{
							"internalType": "int256",
							"name": "z",
							"type": "int256"
						}
					],
					"stateMutability": "pure",
					"type": "function"
				}
			],
			"devdoc": {
				"kind": "dev",
				"methods": {},
				"version": 1
			},
			"evm": {
				"assembly": "    /* \"contracts/Functions.sol\":27:698  contract FunctionsOutputs {... */\n  mstore(0x40, 0x80)\n  callvalue\n  dup1\n  iszero\n  tag_1\n  jumpi\n  0x00\n  dup1\n  revert\ntag_1:\n  pop\n  dataSize(sub_0)\n  dup1\n  dataOffset(sub_0)\n  0x00\n  codecopy\n  0x00\n  return\nstop\n\nsub_0: assembly {\n        /* \"contracts/Functions.sol\":27:698  contract FunctionsOutputs {... */\n      mstore(0x40, 0x80)\n      callvalue\n      dup1\n      iszero\n      tag_1\n      jumpi\n      0x00\n      dup1\n      revert\n    tag_1:\n      pop\n      jumpi(tag_2, lt(calldatasize, 0x04))\n      shr(0xe0, calldataload(0x00))\n      dup1\n      0x7297237f\n      eq\n      tag_3\n      jumpi\n      dup1\n      0x86887544\n      eq\n      tag_4\n      jumpi\n      dup1\n      0x9339d9b7\n      eq\n      tag_5\n      jumpi\n      dup1\n      0xf1cda997\n      eq\n      tag_6\n      jumpi\n    tag_2:\n      0x00\n      dup1\n      revert\n        /* \"contracts/Functions.sol\":435:695  function destructuring() public pure returns (uint256 x, bool y, string memory z, int a){... */\n    tag_3:\n      tag_7\n      tag_8\n      jump\t// in\n    tag_7:\n      mload(0x40)\n      tag_9\n      swap5\n      swap4\n      swap3\n      swap2\n      swap1\n      tag_10\n      jump\t// in\n    tag_9:\n      mload(0x40)\n      dup1\n      swap2\n      sub\n      swap1\n      return\n        /* \"contracts/Functions.sol\":62:163  function returnMany() public pure returns (uint256, bool, int){... */\n    tag_4:\n      tag_11\n      tag_12\n      jump\t// in\n    tag_11:\n      mload(0x40)\n      tag_13\n      swap4\n      swap3\n      swap2\n      swap1\n      tag_14\n      jump\t// in\n    tag_13:\n      mload(0x40)\n      dup1\n      swap2\n      sub\n      swap1\n      return\n        /* \"contracts/Functions.sol\":290:427  function returnWithValues() public pure returns (uint256 x, bool y, int z){... */\n    tag_5:\n      tag_15\n      tag_16\n      jump\t// in\n    tag_15:\n      mload(0x40)\n      tag_17\n      swap4\n      swap3\n      swap2\n      swap1\n      tag_14\n      jump\t// in\n    tag_17:\n      mload(0x40)\n      dup1\n      swap2\n      sub\n      swap1\n      return\n        /* \"contracts/Functions.sol\":171:282  function returnWithName() public pure returns (uint256 x, bool y, int z){... */\n    tag_6:\n      tag_18\n      tag_19\n      jump\t// in\n    tag_18:\n      mload(0x40)\n      tag_20\n      swap4\n      swap3\n      swap2\n      swap1\n      tag_14\n      jump\t// in\n    tag_20:\n      mload(0x40)\n      dup1\n      swap2\n      sub\n      swap1\n      return\n        /* \"contracts/Functions.sol\":435:695  function destructuring() public pure returns (uint256 x, bool y, string memory z, int a){... */\n    tag_8:\n        /* \"contracts/Functions.sol\":481:490  uint256 x */\n      0x00\n        /* \"contracts/Functions.sol\":492:498  bool y */\n      dup1\n        /* \"contracts/Functions.sol\":500:515  string memory z */\n      0x60\n        /* \"contracts/Functions.sol\":517:522  int a */\n      0x00\n        /* \"contracts/Functions.sol\":535:545  uint256 _a */\n      dup1\n        /* \"contracts/Functions.sol\":547:554  bool _b */\n      0x00\n        /* \"contracts/Functions.sol\":556:562  int _c */\n      dup1\n        /* \"contracts/Functions.sol\":566:578  returnMany() */\n      tag_22\n        /* \"contracts/Functions.sol\":566:576  returnMany */\n      tag_12\n        /* \"contracts/Functions.sol\":566:578  returnMany() */\n      jump\t// in\n    tag_22:\n        /* \"contracts/Functions.sol\":534:578  (uint256 _a, bool _b, int _c) = returnMany() */\n      swap3\n      pop\n      swap3\n      pop\n      swap3\n      pop\n        /* \"contracts/Functions.sol\":590:600  uint256 _d */\n      0x00\n        /* \"contracts/Functions.sol\":604:610  int _f */\n      dup1\n        /* \"contracts/Functions.sol\":614:632  returnWithValues() */\n      tag_23\n        /* \"contracts/Functions.sol\":614:630  returnWithValues */\n      tag_16\n        /* \"contracts/Functions.sol\":614:632  returnWithValues() */\n      jump\t// in\n    tag_23:\n        /* \"contracts/Functions.sol\":589:632  (uint256 _d, , int _f) = returnWithValues() */\n      swap3\n      pop\n      pop\n      swap2\n      pop\n        /* \"contracts/Functions.sol\":653:655  10 */\n      0x0a\n        /* \"contracts/Functions.sol\":648:650  _d */\n      dup3\n        /* \"contracts/Functions.sol\":648:655  _d * 10 */\n      tag_24\n      swap2\n      swap1\n      tag_25\n      jump\t// in\n    tag_24:\n        /* \"contracts/Functions.sol\":643:655  _d = _d * 10 */\n      swap2\n      pop\n        /* \"contracts/Functions.sol\":668:687  return (x, y, z, a) */\n      pop\n      pop\n      pop\n      pop\n      pop\n        /* \"contracts/Functions.sol\":435:695  function destructuring() public pure returns (uint256 x, bool y, string memory z, int a){... */\n      swap1\n      swap2\n      swap3\n      swap4\n      jump\t// out\n        /* \"contracts/Functions.sol\":62:163  function returnMany() public pure returns (uint256, bool, int){... */\n    tag_12:\n        /* \"contracts/Functions.sol\":105:112  uint256 */\n      0x00\n        /* \"contracts/Functions.sol\":114:118  bool */\n      dup1\n        /* \"contracts/Functions.sol\":120:123  int */\n      0x00\n        /* \"contracts/Functions.sol\":143:144  1 */\n      0x01\n        /* \"contracts/Functions.sol\":146:150  true */\n      dup1\n        /* \"contracts/Functions.sol\":152:154  10 */\n      0x0a\n        /* \"contracts/Functions.sol\":135:155  return (1, true, 10) */\n      swap3\n      pop\n      swap3\n      pop\n      swap3\n      pop\n        /* \"contracts/Functions.sol\":62:163  function returnMany() public pure returns (uint256, bool, int){... */\n      swap1\n      swap2\n      swap3\n      jump\t// out\n        /* \"contracts/Functions.sol\":290:427  function returnWithValues() public pure returns (uint256 x, bool y, int z){... */\n    tag_16:\n        /* \"contracts/Functions.sol\":339:348  uint256 x */\n      0x00\n        /* \"contracts/Functions.sol\":350:356  bool y */\n      dup1\n        /* \"contracts/Functions.sol\":358:363  int z */\n      0x00\n        /* \"contracts/Functions.sol\":379:381  10 */\n      0x0a\n        /* \"contracts/Functions.sol\":375:381  x = 10 */\n      swap3\n      pop\n        /* \"contracts/Functions.sol\":396:401  false */\n      0x00\n        /* \"contracts/Functions.sol\":392:401  y = false */\n      swap2\n      pop\n        /* \"contracts/Functions.sol\":416:419  100 */\n      0x64\n        /* \"contracts/Functions.sol\":412:419  z = 100 */\n      swap1\n      pop\n        /* \"contracts/Functions.sol\":290:427  function returnWithValues() public pure returns (uint256 x, bool y, int z){... */\n      swap1\n      swap2\n      swap3\n      jump\t// out\n        /* \"contracts/Functions.sol\":171:282  function returnWithName() public pure returns (uint256 x, bool y, int z){... */\n    tag_19:\n        /* \"contracts/Functions.sol\":218:227  uint256 x */\n      0x00\n        /* \"contracts/Functions.sol\":229:235  bool y */\n      dup1\n        /* \"contracts/Functions.sol\":237:242  int z */\n      0x00\n        /* \"contracts/Functions.sol\":262:263  1 */\n      0x01\n        /* \"contracts/Functions.sol\":265:269  true */\n      dup1\n        /* \"contracts/Functions.sol\":271:273  10 */\n      0x0a\n        /* \"contracts/Functions.sol\":254:274  return (1, true, 10) */\n      swap3\n      pop\n      swap3\n      pop\n      swap3\n      pop\n        /* \"contracts/Functions.sol\":171:282  function returnWithName() public pure returns (uint256 x, bool y, int z){... */\n      swap1\n      swap2\n      swap3\n      jump\t// out\n        /* \"#utility.yul\":7:84   */\n    tag_29:\n        /* \"#utility.yul\":44:51   */\n      0x00\n        /* \"#utility.yul\":73:78   */\n      dup2\n        /* \"#utility.yul\":62:78   */\n      swap1\n      pop\n        /* \"#utility.yul\":7:84   */\n      swap2\n      swap1\n      pop\n      jump\t// out\n        /* \"#utility.yul\":90:208   */\n    tag_30:\n        /* \"#utility.yul\":177:201   */\n      tag_44\n        /* \"#utility.yul\":195:200   */\n      dup2\n        /* \"#utility.yul\":177:201   */\n      tag_29\n      jump\t// in\n    tag_44:\n        /* \"#utility.yul\":172:175   */\n      dup3\n        /* \"#utility.yul\":165:202   */\n      mstore\n        /* \"#utility.yul\":90:208   */\n      pop\n      pop\n      jump\t// out\n        /* \"#utility.yul\":214:304   */\n    tag_31:\n        /* \"#utility.yul\":248:255   */\n      0x00\n        /* \"#utility.yul\":291:296   */\n      dup2\n        /* \"#utility.yul\":284:297   */\n      iszero\n        /* \"#utility.yul\":277:298   */\n      iszero\n        /* \"#utility.yul\":266:298   */\n      swap1\n      pop\n        /* \"#utility.yul\":214:304   */\n      swap2\n      swap1\n      pop\n      jump\t// out\n        /* \"#utility.yul\":310:419   */\n    tag_32:\n        /* \"#utility.yul\":391:412   */\n      tag_47\n        /* \"#utility.yul\":406:411   */\n      dup2\n        /* \"#utility.yul\":391:412   */\n      tag_31\n      jump\t// in\n    tag_47:\n        /* \"#utility.yul\":386:389   */\n      dup3\n        /* \"#utility.yul\":379:413   */\n      mstore\n        /* \"#utility.yul\":310:419   */\n      pop\n      pop\n      jump\t// out\n        /* \"#utility.yul\":425:524   */\n    tag_33:\n        /* \"#utility.yul\":477:483   */\n      0x00\n        /* \"#utility.yul\":511:516   */\n      dup2\n        /* \"#utility.yul\":505:517   */\n      mload\n        /* \"#utility.yul\":495:517   */\n      swap1\n      pop\n        /* \"#utility.yul\":425:524   */\n      swap2\n      swap1\n      pop\n      jump\t// out\n        /* \"#utility.yul\":530:699   */\n    tag_34:\n        /* \"#utility.yul\":614:625   */\n      0x00\n        /* \"#utility.yul\":648:654   */\n      dup3\n        /* \"#utility.yul\":643:646   */\n      dup3\n        /* \"#utility.yul\":636:655   */\n      mstore\n        /* \"#utility.yul\":688:692   */\n      0x20\n        /* \"#utility.yul\":683:686   */\n      dup3\n        /* \"#utility.yul\":679:693   */\n      add\n        /* \"#utility.yul\":664:693   */\n      swap1\n      pop\n        /* \"#utility.yul\":530:699   */\n      swap3\n      swap2\n      pop\n      pop\n      jump\t// out\n        /* \"#utility.yul\":705:951   */\n    tag_35:\n        /* \"#utility.yul\":786:787   */\n      0x00\n        /* \"#utility.yul\":796:909   */\n    tag_51:\n        /* \"#utility.yul\":810:816   */\n      dup4\n        /* \"#utility.yul\":807:808   */\n      dup2\n        /* \"#utility.yul\":804:817   */\n      lt\n        /* \"#utility.yul\":796:909   */\n      iszero\n      tag_53\n      jumpi\n        /* \"#utility.yul\":895:896   */\n      dup1\n        /* \"#utility.yul\":890:893   */\n      dup3\n        /* \"#utility.yul\":886:897   */\n      add\n        /* \"#utility.yul\":880:898   */\n      mload\n        /* \"#utility.yul\":876:877   */\n      dup2\n        /* \"#utility.yul\":871:874   */\n      dup5\n        /* \"#utility.yul\":867:878   */\n      add\n        /* \"#utility.yul\":860:899   */\n      mstore\n        /* \"#utility.yul\":832:834   */\n      0x20\n        /* \"#utility.yul\":829:830   */\n      dup2\n        /* \"#utility.yul\":825:835   */\n      add\n        /* \"#utility.yul\":820:835   */\n      swap1\n      pop\n        /* \"#utility.yul\":796:909   */\n      jump(tag_51)\n    tag_53:\n        /* \"#utility.yul\":943:944   */\n      0x00\n        /* \"#utility.yul\":934:940   */\n      dup5\n        /* \"#utility.yul\":929:932   */\n      dup5\n        /* \"#utility.yul\":925:941   */\n      add\n        /* \"#utility.yul\":918:945   */\n      mstore\n        /* \"#utility.yul\":767:951   */\n      pop\n        /* \"#utility.yul\":705:951   */\n      pop\n      pop\n      pop\n      jump\t// out\n        /* \"#utility.yul\":957:1059   */\n    tag_36:\n        /* \"#utility.yul\":998:1004   */\n      0x00\n        /* \"#utility.yul\":1049:1051   */\n      0x1f\n        /* \"#utility.yul\":1045:1052   */\n      not\n        /* \"#utility.yul\":1040:1042   */\n      0x1f\n        /* \"#utility.yul\":1033:1038   */\n      dup4\n        /* \"#utility.yul\":1029:1043   */\n      add\n        /* \"#utility.yul\":1025:1053   */\n      and\n        /* \"#utility.yul\":1015:1053   */\n      swap1\n      pop\n        /* \"#utility.yul\":957:1059   */\n      swap2\n      swap1\n      pop\n      jump\t// out\n        /* \"#utility.yul\":1065:1442   */\n    tag_37:\n        /* \"#utility.yul\":1153:1156   */\n      0x00\n        /* \"#utility.yul\":1181:1220   */\n      tag_56\n        /* \"#utility.yul\":1214:1219   */\n      dup3\n        /* \"#utility.yul\":1181:1220   */\n      tag_33\n      jump\t// in\n    tag_56:\n        /* \"#utility.yul\":1236:1307   */\n      tag_57\n        /* \"#utility.yul\":1300:1306   */\n      dup2\n        /* \"#utility.yul\":1295:1298   */\n      dup6\n        /* \"#utility.yul\":1236:1307   */\n      tag_34\n      jump\t// in\n    tag_57:\n        /* \"#utility.yul\":1229:1307   */\n      swap4\n      pop\n        /* \"#utility.yul\":1316:1381   */\n      tag_58\n        /* \"#utility.yul\":1374:1380   */\n      dup2\n        /* \"#utility.yul\":1369:1372   */\n      dup6\n        /* \"#utility.yul\":1362:1366   */\n      0x20\n        /* \"#utility.yul\":1355:1360   */\n      dup7\n        /* \"#utility.yul\":1351:1367   */\n      add\n        /* \"#utility.yul\":1316:1381   */\n      tag_35\n      jump\t// in\n    tag_58:\n        /* \"#utility.yul\":1406:1435   */\n      tag_59\n        /* \"#utility.yul\":1428:1434   */\n      dup2\n        /* \"#utility.yul\":1406:1435   */\n      tag_36\n      jump\t// in\n    tag_59:\n        /* \"#utility.yul\":1401:1404   */\n      dup5\n        /* \"#utility.yul\":1397:1436   */\n      add\n        /* \"#utility.yul\":1390:1436   */\n      swap2\n      pop\n        /* \"#utility.yul\":1157:1442   */\n      pop\n        /* \"#utility.yul\":1065:1442   */\n      swap3\n      swap2\n      pop\n      pop\n      jump\t// out\n        /* \"#utility.yul\":1448:1524   */\n    tag_38:\n        /* \"#utility.yul\":1484:1491   */\n      0x00\n        /* \"#utility.yul\":1513:1518   */\n      dup2\n        /* \"#utility.yul\":1502:1518   */\n      swap1\n      pop\n        /* \"#utility.yul\":1448:1524   */\n      swap2\n      swap1\n      pop\n      jump\t// out\n        /* \"#utility.yul\":1530:1645   */\n    tag_39:\n        /* \"#utility.yul\":1615:1638   */\n      tag_62\n        /* \"#utility.yul\":1632:1637   */\n      dup2\n        /* \"#utility.yul\":1615:1638   */\n      tag_38\n      jump\t// in\n    tag_62:\n        /* \"#utility.yul\":1610:1613   */\n      dup3\n        /* \"#utility.yul\":1603:1639   */\n      mstore\n        /* \"#utility.yul\":1530:1645   */\n      pop\n      pop\n      jump\t// out\n        /* \"#utility.yul\":1651:2279   */\n    tag_10:\n        /* \"#utility.yul\":1840:1844   */\n      0x00\n        /* \"#utility.yul\":1878:1881   */\n      0x80\n        /* \"#utility.yul\":1867:1876   */\n      dup3\n        /* \"#utility.yul\":1863:1882   */\n      add\n        /* \"#utility.yul\":1855:1882   */\n      swap1\n      pop\n        /* \"#utility.yul\":1892:1963   */\n      tag_64\n        /* \"#utility.yul\":1960:1961   */\n      0x00\n        /* \"#utility.yul\":1949:1958   */\n      dup4\n        /* \"#utility.yul\":1945:1962   */\n      add\n        /* \"#utility.yul\":1936:1942   */\n      dup8\n        /* \"#utility.yul\":1892:1963   */\n      tag_30\n      jump\t// in\n    tag_64:\n        /* \"#utility.yul\":1973:2039   */\n      tag_65\n        /* \"#utility.yul\":2035:2037   */\n      0x20\n        /* \"#utility.yul\":2024:2033   */\n      dup4\n        /* \"#utility.yul\":2020:2038   */\n      add\n        /* \"#utility.yul\":2011:2017   */\n      dup7\n        /* \"#utility.yul\":1973:2039   */\n      tag_32\n      jump\t// in\n    tag_65:\n        /* \"#utility.yul\":2086:2095   */\n      dup2\n        /* \"#utility.yul\":2080:2084   */\n      dup2\n        /* \"#utility.yul\":2076:2096   */\n      sub\n        /* \"#utility.yul\":2071:2073   */\n      0x40\n        /* \"#utility.yul\":2060:2069   */\n      dup4\n        /* \"#utility.yul\":2056:2074   */\n      add\n        /* \"#utility.yul\":2049:2097   */\n      mstore\n        /* \"#utility.yul\":2114:2192   */\n      tag_66\n        /* \"#utility.yul\":2187:2191   */\n      dup2\n        /* \"#utility.yul\":2178:2184   */\n      dup6\n        /* \"#utility.yul\":2114:2192   */\n      tag_37\n      jump\t// in\n    tag_66:\n        /* \"#utility.yul\":2106:2192   */\n      swap1\n      pop\n        /* \"#utility.yul\":2202:2272   */\n      tag_67\n        /* \"#utility.yul\":2268:2270   */\n      0x60\n        /* \"#utility.yul\":2257:2266   */\n      dup4\n        /* \"#utility.yul\":2253:2271   */\n      add\n        /* \"#utility.yul\":2244:2250   */\n      dup5\n        /* \"#utility.yul\":2202:2272   */\n      tag_39\n      jump\t// in\n    tag_67:\n        /* \"#utility.yul\":1651:2279   */\n      swap6\n      swap5\n      pop\n      pop\n      pop\n      pop\n      pop\n      jump\t// out\n        /* \"#utility.yul\":2285:2711   */\n    tag_14:\n        /* \"#utility.yul\":2426:2430   */\n      0x00\n        /* \"#utility.yul\":2464:2466   */\n      0x60\n        /* \"#utility.yul\":2453:2462   */\n      dup3\n        /* \"#utility.yul\":2449:2467   */\n      add\n        /* \"#utility.yul\":2441:2467   */\n      swap1\n      pop\n        /* \"#utility.yul\":2477:2548   */\n      tag_69\n        /* \"#utility.yul\":2545:2546   */\n      0x00\n        /* \"#utility.yul\":2534:2543   */\n      dup4\n        /* \"#utility.yul\":2530:2547   */\n      add\n        /* \"#utility.yul\":2521:2527   */\n      dup7\n        /* \"#utility.yul\":2477:2548   */\n      tag_30\n      jump\t// in\n    tag_69:\n        /* \"#utility.yul\":2558:2624   */\n      tag_70\n        /* \"#utility.yul\":2620:2622   */\n      0x20\n        /* \"#utility.yul\":2609:2618   */\n      dup4\n        /* \"#utility.yul\":2605:2623   */\n      add\n        /* \"#utility.yul\":2596:2602   */\n      dup6\n        /* \"#utility.yul\":2558:2624   */\n      tag_32\n      jump\t// in\n    tag_70:\n        /* \"#utility.yul\":2634:2704   */\n      tag_71\n        /* \"#utility.yul\":2700:2702   */\n      0x40\n        /* \"#utility.yul\":2689:2698   */\n      dup4\n        /* \"#utility.yul\":2685:2703   */\n      add\n        /* \"#utility.yul\":2676:2682   */\n      dup5\n        /* \"#utility.yul\":2634:2704   */\n      tag_39\n      jump\t// in\n    tag_71:\n        /* \"#utility.yul\":2285:2711   */\n      swap5\n      swap4\n      pop\n      pop\n      pop\n      pop\n      jump\t// out\n        /* \"#utility.yul\":2717:2897   */\n    tag_40:\n        /* \"#utility.yul\":2765:2842   */\n      0x4e487b7100000000000000000000000000000000000000000000000000000000\n        /* \"#utility.yul\":2762:2763   */\n      0x00\n        /* \"#utility.yul\":2755:2843   */\n      mstore\n        /* \"#utility.yul\":2862:2866   */\n      0x11\n        /* \"#utility.yul\":2859:2860   */\n      0x04\n        /* \"#utility.yul\":2852:2867   */\n      mstore\n        /* \"#utility.yul\":2886:2890   */\n      0x24\n        /* \"#utility.yul\":2883:2884   */\n      0x00\n        /* \"#utility.yul\":2876:2891   */\n      revert\n        /* \"#utility.yul\":2903:3313   */\n    tag_25:\n        /* \"#utility.yul\":2943:2950   */\n      0x00\n        /* \"#utility.yul\":2966:2986   */\n      tag_74\n        /* \"#utility.yul\":2984:2985   */\n      dup3\n        /* \"#utility.yul\":2966:2986   */\n      tag_29\n      jump\t// in\n    tag_74:\n        /* \"#utility.yul\":2961:2986   */\n      swap2\n      pop\n        /* \"#utility.yul\":3000:3020   */\n      tag_75\n        /* \"#utility.yul\":3018:3019   */\n      dup4\n        /* \"#utility.yul\":3000:3020   */\n      tag_29\n      jump\t// in\n    tag_75:\n        /* \"#utility.yul\":2995:3020   */\n      swap3\n      pop\n        /* \"#utility.yul\":3055:3056   */\n      dup3\n        /* \"#utility.yul\":3052:3053   */\n      dup3\n        /* \"#utility.yul\":3048:3057   */\n      mul\n        /* \"#utility.yul\":3077:3107   */\n      tag_76\n        /* \"#utility.yul\":3095:3106   */\n      dup2\n        /* \"#utility.yul\":3077:3107   */\n      tag_29\n      jump\t// in\n    tag_76:\n        /* \"#utility.yul\":3066:3107   */\n      swap2\n      pop\n        /* \"#utility.yul\":3256:3257   */\n      dup3\n        /* \"#utility.yul\":3247:3254   */\n      dup3\n        /* \"#utility.yul\":3243:3258   */\n      div\n        /* \"#utility.yul\":3240:3241   */\n      dup5\n        /* \"#utility.yul\":3237:3259   */\n      eq\n        /* \"#utility.yul\":3217:3218   */\n      dup4\n        /* \"#utility.yul\":3210:3219   */\n      iszero\n        /* \"#utility.yul\":3190:3273   */\n      or\n        /* \"#utility.yul\":3167:3306   */\n      tag_77\n      jumpi\n        /* \"#utility.yul\":3286:3304   */\n      tag_78\n      tag_40\n      jump\t// in\n    tag_78:\n        /* \"#utility.yul\":3167:3306   */\n    tag_77:\n        /* \"#utility.yul\":2951:3313   */\n      pop\n        /* \"#utility.yul\":2903:3313   */\n      swap3\n      swap2\n      pop\n      pop\n      jump\t// out\n\n    auxdata: 0xa264697066735822122022f9abcadc5d3741c1da2da0e7ef3fafaea26b26b4e5ec35b4b9f996463d41df64736f6c63430008140033\n}\n",
				"bytecode": {
					"linkReferences": {},
					"object": "608060405234801561000f575f80fd5b5061033e8061001d5f395ff3fe608060405234801561000f575f80fd5b506004361061004a575f3560e01c80637297237f1461004e578063868875441461006f5780639339d9b71461008f578063f1cda997146100af575b5f80fd5b6100566100cf565b604051610066949392919061021b565b60405180910390f35b61007761010e565b60405161008693929190610265565b60405180910390f35b610097610121565b6040516100a693929190610265565b60405180910390f35b6100b7610134565b6040516100c693929190610265565b60405180910390f35b5f8060605f805f806100df61010e565b9250925092505f806100ef610121565b9250509150600a8261010191906102c7565b9150505050505090919293565b5f805f600180600a925092509250909192565b5f805f600a92505f915060649050909192565b5f805f600180600a925092509250909192565b5f819050919050565b61015981610147565b82525050565b5f8115159050919050565b6101738161015f565b82525050565b5f81519050919050565b5f82825260208201905092915050565b5f5b838110156101b0578082015181840152602081019050610195565b5f8484015250505050565b5f601f19601f8301169050919050565b5f6101d582610179565b6101df8185610183565b93506101ef818560208601610193565b6101f8816101bb565b840191505092915050565b5f819050919050565b61021581610203565b82525050565b5f60808201905061022e5f830187610150565b61023b602083018661016a565b818103604083015261024d81856101cb565b905061025c606083018461020c565b95945050505050565b5f6060820190506102785f830186610150565b610285602083018561016a565b610292604083018461020c565b949350505050565b7f4e487b71000000000000000000000000000000000000000000000000000000005f52601160045260245ffd5b5f6102d182610147565b91506102dc83610147565b92508282026102ea81610147565b915082820484148315176103015761030061029a565b5b509291505056fea264697066735822122022f9abcadc5d3741c1da2da0e7ef3fafaea26b26b4e5ec35b4b9f996463d41df64736f6c63430008140033",
					"opcodes": "PUSH1 0x80 PUSH1 0x40 MSTORE CALLVALUE DUP1 ISZERO PUSH2 0xF JUMPI PUSH0 DUP1 REVERT JUMPDEST POP PUSH2 0x33E DUP1 PUSH2 0x1D PUSH0 CODECOPY PUSH0 RETURN INVALID PUSH1 0x80 PUSH1 0x40 MSTORE CALLVALUE DUP1 ISZERO PUSH2 0xF JUMPI PUSH0 DUP1 REVERT JUMPDEST POP PUSH1 0x4 CALLDATASIZE LT PUSH2 0x4A JUMPI PUSH0 CALLDATALOAD PUSH1 0xE0 SHR DUP1 PUSH4 0x7297237F EQ PUSH2 0x4E JUMPI DUP1 PUSH4 0x86887544 EQ PUSH2 0x6F JUMPI DUP1 PUSH4 0x9339D9B7 EQ PUSH2 0x8F JUMPI DUP1 PUSH4 0xF1CDA997 EQ PUSH2 0xAF JUMPI JUMPDEST PUSH0 DUP1 REVERT JUMPDEST PUSH2 0x56 PUSH2 0xCF JUMP JUMPDEST PUSH1 0x40 MLOAD PUSH2 0x66 SWAP5 SWAP4 SWAP3 SWAP2 SWAP1 PUSH2 0x21B JUMP JUMPDEST PUSH1 0x40 MLOAD DUP1 SWAP2 SUB SWAP1 RETURN JUMPDEST PUSH2 0x77 PUSH2 0x10E JUMP JUMPDEST PUSH1 0x40 MLOAD PUSH2 0x86 SWAP4 SWAP3 SWAP2 SWAP1 PUSH2 0x265 JUMP JUMPDEST PUSH1 0x40 MLOAD DUP1 SWAP2 SUB SWAP1 RETURN JUMPDEST PUSH2 0x97 PUSH2 0x121 JUMP JUMPDEST PUSH1 0x40 MLOAD PUSH2 0xA6 SWAP4 SWAP3 SWAP2 SWAP1 PUSH2 0x265 JUMP JUMPDEST PUSH1 0x40 MLOAD DUP1 SWAP2 SUB SWAP1 RETURN JUMPDEST PUSH2 0xB7 PUSH2 0x134 JUMP JUMPDEST PUSH1 0x40 MLOAD PUSH2 0xC6 SWAP4 SWAP3 SWAP2 SWAP1 PUSH2 0x265 JUMP JUMPDEST PUSH1 0x40 MLOAD DUP1 SWAP2 SUB SWAP1 RETURN JUMPDEST PUSH0 DUP1 PUSH1 0x60 PUSH0 DUP1 PUSH0 DUP1 PUSH2 0xDF PUSH2 0x10E JUMP JUMPDEST SWAP3 POP SWAP3 POP SWAP3 POP PUSH0 DUP1 PUSH2 0xEF PUSH2 0x121 JUMP JUMPDEST SWAP3 POP POP SWAP2 POP PUSH1 0xA DUP3 PUSH2 0x101 SWAP2 SWAP1 PUSH2 0x2C7 JUMP JUMPDEST SWAP2 POP POP POP POP POP POP SWAP1 SWAP2 SWAP3 SWAP4 JUMP JUMPDEST PUSH0 DUP1 PUSH0 PUSH1 0x1 DUP1 PUSH1 0xA SWAP3 POP SWAP3 POP SWAP3 POP SWAP1 SWAP2 SWAP3 JUMP JUMPDEST PUSH0 DUP1 PUSH0 PUSH1 0xA SWAP3 POP PUSH0 SWAP2 POP PUSH1 0x64 SWAP1 POP SWAP1 SWAP2 SWAP3 JUMP JUMPDEST PUSH0 DUP1 PUSH0 PUSH1 0x1 DUP1 PUSH1 0xA SWAP3 POP SWAP3 POP SWAP3 POP SWAP1 SWAP2 SWAP3 JUMP JUMPDEST PUSH0 DUP2 SWAP1 POP SWAP2 SWAP1 POP JUMP JUMPDEST PUSH2 0x159 DUP2 PUSH2 0x147 JUMP JUMPDEST DUP3 MSTORE POP POP JUMP JUMPDEST PUSH0 DUP2 ISZERO ISZERO SWAP1 POP SWAP2 SWAP1 POP JUMP JUMPDEST PUSH2 0x173 DUP2 PUSH2 0x15F JUMP JUMPDEST DUP3 MSTORE POP POP JUMP JUMPDEST PUSH0 DUP2 MLOAD SWAP1 POP SWAP2 SWAP1 POP JUMP JUMPDEST PUSH0 DUP3 DUP3 MSTORE PUSH1 0x20 DUP3 ADD SWAP1 POP SWAP3 SWAP2 POP POP JUMP JUMPDEST PUSH0 JUMPDEST DUP4 DUP2 LT ISZERO PUSH2 0x1B0 JUMPI DUP1 DUP3 ADD MLOAD DUP2 DUP5 ADD MSTORE PUSH1 0x20 DUP2 ADD SWAP1 POP PUSH2 0x195 JUMP JUMPDEST PUSH0 DUP5 DUP5 ADD MSTORE POP POP POP POP JUMP JUMPDEST PUSH0 PUSH1 0x1F NOT PUSH1 0x1F DUP4 ADD AND SWAP1 POP SWAP2 SWAP1 POP JUMP JUMPDEST PUSH0 PUSH2 0x1D5 DUP3 PUSH2 0x179 JUMP JUMPDEST PUSH2 0x1DF DUP2 DUP6 PUSH2 0x183 JUMP JUMPDEST SWAP4 POP PUSH2 0x1EF DUP2 DUP6 PUSH1 0x20 DUP7 ADD PUSH2 0x193 JUMP JUMPDEST PUSH2 0x1F8 DUP2 PUSH2 0x1BB JUMP JUMPDEST DUP5 ADD SWAP2 POP POP SWAP3 SWAP2 POP POP JUMP JUMPDEST PUSH0 DUP2 SWAP1 POP SWAP2 SWAP1 POP JUMP JUMPDEST PUSH2 0x215 DUP2 PUSH2 0x203 JUMP JUMPDEST DUP3 MSTORE POP POP JUMP JUMPDEST PUSH0 PUSH1 0x80 DUP3 ADD SWAP1 POP PUSH2 0x22E PUSH0 DUP4 ADD DUP8 PUSH2 0x150 JUMP JUMPDEST PUSH2 0x23B PUSH1 0x20 DUP4 ADD DUP7 PUSH2 0x16A JUMP JUMPDEST DUP2 DUP2 SUB PUSH1 0x40 DUP4 ADD MSTORE PUSH2 0x24D DUP2 DUP6 PUSH2 0x1CB JUMP JUMPDEST SWAP1 POP PUSH2 0x25C PUSH1 0x60 DUP4 ADD DUP5 PUSH2 0x20C JUMP JUMPDEST SWAP6 SWAP5 POP POP POP POP POP JUMP JUMPDEST PUSH0 PUSH1 0x60 DUP3 ADD SWAP1 POP PUSH2 0x278 PUSH0 DUP4 ADD DUP7 PUSH2 0x150 JUMP JUMPDEST PUSH2 0x285 PUSH1 0x20 DUP4 ADD DUP6 PUSH2 0x16A JUMP JUMPDEST PUSH2 0x292 PUSH1 0x40 DUP4 ADD DUP5 PUSH2 0x20C JUMP JUMPDEST SWAP5 SWAP4 POP POP POP POP JUMP JUMPDEST PUSH32 0x4E487B7100000000000000000000000000000000000000000000000000000000 PUSH0 MSTORE PUSH1 0x11 PUSH1 0x4 MSTORE PUSH1 0x24 PUSH0 REVERT JUMPDEST PUSH0 PUSH2 0x2D1 DUP3 PUSH2 0x147 JUMP JUMPDEST SWAP2 POP PUSH2 0x2DC DUP4 PUSH2 0x147 JUMP JUMPDEST SWAP3 POP DUP3 DUP3 MUL PUSH2 0x2EA DUP2 PUSH2 0x147 JUMP JUMPDEST SWAP2 POP DUP3 DUP3 DIV DUP5 EQ DUP4 ISZERO OR PUSH2 0x301 JUMPI PUSH2 0x300 PUSH2 0x29A JUMP JUMPDEST JUMPDEST POP SWAP3 SWAP2 POP POP JUMP INVALID LOG2 PUSH5 0x6970667358 0x22 SLT KECCAK256 0x22 0xF9 0xAB 0xCA 0xDC 0x5D CALLDATACOPY COINBASE 0xC1 0xDA 0x2D LOG0 0xE7 0xEF EXTCODEHASH 0xAF 0xAE LOG2 PUSH12 0x26B4E5EC35B4B9F996463D41 0xDF PUSH5 0x736F6C6343 STOP ADDMOD EQ STOP CALLER "
				},
				"gasEstimates": {
					"creation": {
						"codeDepositCost": "166000",
						"executionCost": "206",
						"totalCost": "166206"
					},
					"external": {
						"destructuring()": "infinite",
						"returnMany()": "563",
						"returnWithName()": "607",
						"returnWithValues()": "584"
					}
				},
				"methodIdentifiers": {
					"destructuring()": "7297237f",
					"returnMany()": "86887544",
					"returnWithName()": "f1cda997",
					"returnWithValues()": "9339d9b7"
				}
			},
			"storageLayout": {
				"storage": [],
				"types": null
			},
			"userdoc": {
				"kind": "user",
				"methods": {},
				"version": 1
			}
		}
	}
}