{
	"data": {
		"bytecode": {
			"linkReferences": {},
			"object": "608060405234801561000f575f80fd5b50611fed8061001d5f395ff3fe608060405234801561000f575f80fd5b50600436106100fd575f3560e01c806355b867e211610095578063aafe533b11610064578063aafe533b146102b0578063c9bf5b15146102e0578063da67c23d14610310578063f019ec661461032c576100fd565b806355b867e2146101fd57806369ddcade1461022d578063794aa4cf14610260578063a958c5301461027c576100fd565b80633eb492a7116100d15780633eb492a71461019d5780634061a5bf146101b95780634fe2c716146101d757806353439cac146101e1576100fd565b8062e2d63d14610101578063087996b81461013157806323ffccae1461014f5780632805e8f91461016d575b5f80fd5b61011b600480360381019061011691906112cd565b610348565b6040516101289190611307565b60405180910390f35b610139610368565b6040516101469190611307565b60405180910390f35b610157610373565b6040516101649190611307565b60405180910390f35b610187600480360381019061018291906112cd565b610406565b6040516101949190611307565b60405180910390f35b6101b760048036038101906101b29190611320565b6104ec565b005b6101c16105da565b6040516101ce9190611403565b60405180910390f35b6101df610625565b005b6101fb60048036038101906101f69190611441565b6106ff565b005b610217600480360381019061021291906112cd565b610714565b60405161022491906114fd565b60405180910390f35b610247600480360381019061024291906112cd565b6107d2565b6040516102579493929190611674565b60405180910390f35b61027a600480360381019061027591906112cd565b6108ca565b005b610296600480360381019061029191906112cd565b61099f565b6040516102a79594939291906116be565b60405180910390f35b6102ca60048036038101906102c5919061179d565b610afd565b6040516102d79190611307565b60405180910390f35b6102fa60048036038101906102f591906112cd565b610d29565b6040516103079190611307565b60405180910390f35b61032a60048036038101906103259190611320565b610d42565b005b6103466004803603810190610341919061181d565b611055565b005b60018181548110610357575f80fd5b905f5260205f20015f915090505481565b5f8080549050905090565b5f805f90505b5f80549050811015610402576001600281111561039957610398611601565b5b5f82815481106103ac576103ab61185b565b5b905f5260205f20906004020160020160019054906101000a900460ff1660028111156103db576103da611601565b5b036103ef5781806103eb906118b5565b9250505b80806103fa906118b5565b915050610379565b5090565b5f8080549050821061044d576040517f08c379a000000000000000000000000000000000000000000000000000000000815260040161044490611946565b60405180910390fd5b5f8083815481106104615761046061185b565b5b905f5260205f20906004020160030190505f818054905003610486575f9150506104e7565b5f805b82805490508110156104d1578281815481106104a8576104a761185b565b5b905f5260205f200154826104bc9190611964565b915080806104c9906118b5565b915050610489565b508180549050816104e291906119c4565b925050505b919050565b5f805490508210610532576040517f08c379a000000000000000000000000000000000000000000000000000000000815260040161052990611946565b60405180910390fd5b5f82815481106105455761054461185b565b5b905f5260205f20906004020160030181908060018154018082558091505060019003905f5260205f20015f9091909190915055600181908060018154018082558091505060019003905f5260205f20015f9091909190915055817f34aa79c26a5906548e3c798b1c2a5a5551ac2a2d51f4d442e2d2ca4bc0731eba826040516105ce9190611307565b60405180910390a25050565b6105e2611121565b600260038060200260405190810160405280929190826003801561061b576020028201915b815481526020019060010190808311610607575b5050505050905090565b5f80805490501161066b576040517f08c379a000000000000000000000000000000000000000000000000000000000815260040161066290611a3e565b60405180910390fd5b5f80548061067c5761067b611a5c565b5b600190038181905f5260205f2090600402015f8082015f6101000a81549073ffffffffffffffffffffffffffffffffffffffff0219169055600182015f6106c39190611143565b600282015f6101000a81549060ff02191690556002820160016101000a81549060ff0219169055600382015f6106f99190611180565b50509055565b80600290600361071092919061119e565b5050565b60605f80549050821061075c576040517f08c379a000000000000000000000000000000000000000000000000000000000815260040161075390611946565b60405180910390fd5b5f828154811061076f5761076e61185b565b5b905f5260205f2090600402016003018054806020026020016040519081016040528092919081815260200182805480156107c657602002820191905f5260205f20905b8154815260200190600101908083116107b2575b50505050509050919050565b5f81815481106107e0575f80fd5b905f5260205f2090600402015f91509050805f015f9054906101000a900473ffffffffffffffffffffffffffffffffffffffff169080600101805461082490611ab6565b80601f016020809104026020016040519081016040528092919081815260200182805461085090611ab6565b801561089b5780601f106108725761010080835404028352916020019161089b565b820191905f5260205f20905b81548152906001019060200180831161087e57829003601f168201915b505050505090806002015f9054906101000a900460ff16908060020160019054906101000a900460ff16905084565b5f805490508110610910576040517f08c379a000000000000000000000000000000000000000000000000000000000815260040161090790611946565b60405180910390fd5b5f81815481106109235761092261185b565b5b905f5260205f2090600402015f8082015f6101000a81549073ffffffffffffffffffffffffffffffffffffffff0219169055600182015f6109649190611143565b600282015f6101000a81549060ff02191690556002820160016101000a81549060ff0219169055600382015f61099a9190611180565b505050565b5f60605f805f808054905086106109eb576040517f08c379a00000000000000000000000000000000000000000000000000000000081526004016109e290611946565b60405180910390fd5b5f8087815481106109ff576109fe61185b565b5b905f5260205f2090600402019050805f015f9054906101000a900473ffffffffffffffffffffffffffffffffffffffff1681600101826002015f9054906101000a900460ff168360020160019054906101000a900460ff168460030180549050838054610a6b90611ab6565b80601f0160208091040260200160405190810160405280929190818152602001828054610a9790611ab6565b8015610ae25780601f10610ab957610100808354040283529160200191610ae2565b820191905f5260205f20905b815481529060010190602001808311610ac557829003601f168201915b50505050509350955095509550955095505091939590929450565b5f806040518060a001604052803373ffffffffffffffffffffffffffffffffffffffff16815260200186868080601f0160208091040260200160405190810160405280939291908181526020018383808284375f81840152601f19601f8201169050808301925050505050505081526020018460ff16815260200160016002811115610b8c57610b8b611601565b5b81526020015f67ffffffffffffffff811115610bab57610baa611ae6565b5b604051908082528060200260200182016040528015610bd95781602001602082028036833780820191505090505b5081525090505f81908060018154018082558091505060019003905f5260205f2090600402015f909190919091505f820151815f015f6101000a81548173ffffffffffffffffffffffffffffffffffffffff021916908373ffffffffffffffffffffffffffffffffffffffff1602179055506020820151816001019081610c609190611cb0565b506040820151816002015f6101000a81548160ff021916908360ff16021790555060608201518160020160016101000a81548160ff02191690836002811115610cac57610cab611601565b5b02179055506080820151816003019080519060200190610ccd9291906111de565b50505060015f80549050610ce19190611d7f565b9150817fca378e39156b71843e965563eb93a20c9efb991575ef529532d42c94f60b415a33878787604051610d199493929190611dec565b60405180910390a2509392505050565b60028160038110610d38575f80fd5b015f915090505481565b5f8054905082108015610d5857505f8054905081105b610d97576040517f08c379a0000000000000000000000000000000000000000000000000000000008152600401610d8e90611e74565b60405180910390fd5b80820315611051575f808381548110610db357610db261185b565b5b905f5260205f20906004020190505f808381548110610dd557610dd461185b565b5b905f5260205f2090600402019050805f015f9054906101000a900473ffffffffffffffffffffffffffffffffffffffff16825f015f9054906101000a900473ffffffffffffffffffffffffffffffffffffffff16835f015f845f015f8491906101000a81548173ffffffffffffffffffffffffffffffffffffffff021916908373ffffffffffffffffffffffffffffffffffffffff1602179055508391906101000a81548173ffffffffffffffffffffffffffffffffffffffff021916908373ffffffffffffffffffffffffffffffffffffffff16021790555050508060010182600101836001015f846001015f849190509081610ed39190611eb9565b50839190509081610ee49190611eb9565b505050806002015f9054906101000a900460ff16826002015f9054906101000a900460ff16836002015f846002015f8491906101000a81548160ff021916908360ff1602179055508391906101000a81548160ff021916908360ff16021790555050508060020160019054906101000a900460ff168260020160019054906101000a900460ff168360020160018460020160018491906101000a81548160ff02191690836002811115610f9a57610f99611601565b5b02179055508391906101000a81548160ff02191690836002811115610fc257610fc1611601565b5b021790555050505f8260030180548060200260200160405190810160405280929190818152602001828054801561101657602002820191905f5260205f20905b815481526020019060010190808311611002575b505050505090508160030183600301908054611033929190611229565b508082600301908051906020019061104c9291906111de565b505050505b5050565b5f80549050821061109b576040517f08c379a000000000000000000000000000000000000000000000000000000000815260040161109290611946565b60405180910390fd5b805f83815481106110af576110ae61185b565b5b905f5260205f20906004020160020160016101000a81548160ff021916908360028111156110e0576110df611601565b5b0217905550817f2042bf73e2c0320c688c039d65eb3d74c7a0a7b88096567fb341bfa3df4ff9f5826040516111159190611f9e565b60405180910390a25050565b6040518060600160405280600390602082028036833780820191505090505090565b50805461114f90611ab6565b5f825580601f10611160575061117d565b601f0160209004905f5260205f209081019061117c9190611277565b5b50565b5080545f8255905f5260205f209081019061119b9190611277565b50565b82600381019282156111cd579160200282015b828111156111cc5782358255916020019190600101906111b1565b5b5090506111da9190611277565b5090565b828054828255905f5260205f20908101928215611218579160200282015b828111156112175782518255916020019190600101906111fc565b5b5090506112259190611277565b5090565b828054828255905f5260205f20908101928215611266575f5260205f209182015b8281111561126557825482559160010191906001019061124a565b5b5090506112739190611277565b5090565b5b8082111561128e575f815f905550600101611278565b5090565b5f80fd5b5f80fd5b5f819050919050565b6112ac8161129a565b81146112b6575f80fd5b50565b5f813590506112c7816112a3565b92915050565b5f602082840312156112e2576112e1611292565b5b5f6112ef848285016112b9565b91505092915050565b6113018161129a565b82525050565b5f60208201905061131a5f8301846112f8565b92915050565b5f806040838503121561133657611335611292565b5b5f611343858286016112b9565b9250506020611354858286016112b9565b9150509250929050565b5f60039050919050565b5f81905092915050565b5f819050919050565b6113848161129a565b82525050565b5f611395838361137b565b60208301905092915050565b5f602082019050919050565b6113b68161135e565b6113c08184611368565b92506113cb82611372565b805f5b838110156113fb5781516113e2878261138a565b96506113ed836113a1565b9250506001810190506113ce565b505050505050565b5f6060820190506114165f8301846113ad565b92915050565b5f80fd5b5f8190508260206003028201111561143b5761143a61141c565b5b92915050565b5f6060828403121561145657611455611292565b5b5f61146384828501611420565b91505092915050565b5f81519050919050565b5f82825260208201905092915050565b5f819050602082019050919050565b5f602082019050919050565b5f6114ab8261146c565b6114b58185611476565b93506114c083611486565b805f5b838110156114f05781516114d7888261138a565b97506114e283611495565b9250506001810190506114c3565b5085935050505092915050565b5f6020820190508181035f83015261151581846114a1565b905092915050565b5f73ffffffffffffffffffffffffffffffffffffffff82169050919050565b5f6115468261151d565b9050919050565b6115568161153c565b82525050565b5f81519050919050565b5f82825260208201905092915050565b5f5b83811015611593578082015181840152602081019050611578565b5f8484015250505050565b5f601f19601f8301169050919050565b5f6115b88261155c565b6115c28185611566565b93506115d2818560208601611576565b6115db8161159e565b840191505092915050565b5f60ff82169050919050565b6115fb816115e6565b82525050565b7f4e487b71000000000000000000000000000000000000000000000000000000005f52602160045260245ffd5b6003811061163f5761163e611601565b5b50565b5f81905061164f8261162e565b919050565b5f61165e82611642565b9050919050565b61166e81611654565b82525050565b5f6080820190506116875f83018761154d565b818103602083015261169981866115ae565b90506116a860408301856115f2565b6116b56060830184611665565b95945050505050565b5f60a0820190506116d15f83018861154d565b81810360208301526116e381876115ae565b90506116f260408301866115f2565b6116ff6060830185611665565b61170c60808301846112f8565b9695505050505050565b5f80fd5b5f80fd5b5f8083601f84011261173357611732611716565b5b8235905067ffffffffffffffff8111156117505761174f61171a565b5b60208301915083600182028301111561176c5761176b61141c565b5b9250929050565b61177c816115e6565b8114611786575f80fd5b50565b5f8135905061179781611773565b92915050565b5f805f604084860312156117b4576117b3611292565b5b5f84013567ffffffffffffffff8111156117d1576117d0611296565b5b6117dd8682870161171e565b935093505060206117f086828701611789565b9150509250925092565b60038110611806575f80fd5b50565b5f81359050611817816117fa565b92915050565b5f806040838503121561183357611832611292565b5b5f611840858286016112b9565b925050602061185185828601611809565b9150509250929050565b7f4e487b71000000000000000000000000000000000000000000000000000000005f52603260045260245ffd5b7f4e487b71000000000000000000000000000000000000000000000000000000005f52601160045260245ffd5b5f6118bf8261129a565b91507fffffffffffffffffffffffffffffffffffffffffffffffffffffffffffffffff82036118f1576118f0611888565b5b600182019050919050565b7f69647820696e76616c69646f00000000000000000000000000000000000000005f82015250565b5f611930600c83611566565b915061193b826118fc565b602082019050919050565b5f6020820190508181035f83015261195d81611924565b9050919050565b5f61196e8261129a565b91506119798361129a565b925082820190508082111561199157611990611888565b5b92915050565b7f4e487b71000000000000000000000000000000000000000000000000000000005f52601260045260245ffd5b5f6119ce8261129a565b91506119d98361129a565b9250826119e9576119e8611997565b5b828204905092915050565b7f73696e20616c756d6e6f730000000000000000000000000000000000000000005f82015250565b5f611a28600b83611566565b9150611a33826119f4565b602082019050919050565b5f6020820190508181035f830152611a5581611a1c565b9050919050565b7f4e487b71000000000000000000000000000000000000000000000000000000005f52603160045260245ffd5b7f4e487b71000000000000000000000000000000000000000000000000000000005f52602260045260245ffd5b5f6002820490506001821680611acd57607f821691505b602082108103611ae057611adf611a89565b5b50919050565b7f4e487b71000000000000000000000000000000000000000000000000000000005f52604160045260245ffd5b5f819050815f5260205f209050919050565b5f6020601f8301049050919050565b5f82821b905092915050565b5f60088302611b6f7fffffffffffffffffffffffffffffffffffffffffffffffffffffffffffffffff82611b34565b611b798683611b34565b95508019841693508086168417925050509392505050565b5f819050919050565b5f611bb4611baf611baa8461129a565b611b91565b61129a565b9050919050565b5f819050919050565b611bcd83611b9a565b611be1611bd982611bbb565b848454611b40565b825550505050565b5f90565b611bf5611be9565b611c00818484611bc4565b505050565b5b81811015611c2357611c185f82611bed565b600181019050611c06565b5050565b601f821115611c6857611c3981611b13565b611c4284611b25565b81016020851015611c51578190505b611c65611c5d85611b25565b830182611c05565b50505b505050565b5f82821c905092915050565b5f611c885f1984600802611c6d565b1980831691505092915050565b5f611ca08383611c79565b9150826002028217905092915050565b611cb98261155c565b67ffffffffffffffff811115611cd257611cd1611ae6565b5b611cdc8254611ab6565b611ce7828285611c27565b5f60209050601f831160018114611d18575f8415611d06578287015190505b611d108582611c95565b865550611d77565b601f198416611d2686611b13565b5f5b82811015611d4d57848901518255600182019150602085019450602081019050611d28565b86831015611d6a5784890151611d66601f891682611c79565b8355505b6001600288020188555050505b505050505050565b5f611d898261129a565b9150611d948361129a565b9250828203905081811115611dac57611dab611888565b5b92915050565b828183375f83830152505050565b5f611dcb8385611566565b9350611dd8838584611db2565b611de18361159e565b840190509392505050565b5f606082019050611dff5f83018761154d565b8181036020830152611e12818587611dc0565b9050611e2160408301846115f2565b95945050505050565b7f69647820696e76616c69646f73000000000000000000000000000000000000005f82015250565b5f611e5e600d83611566565b9150611e6982611e2a565b602082019050919050565b5f6020820190508181035f830152611e8b81611e52565b9050919050565b5f81549050611ea081611ab6565b9050919050565b5f819050815f5260205f209050919050565b818103611ec7575050611f9c565b611ed082611e92565b67ffffffffffffffff811115611ee957611ee8611ae6565b5b611ef38254611ab6565b611efe828285611c27565b5f601f831160018114611f2b575f8415611f19578287015490505b611f238582611c95565b865550611f95565b601f198416611f3987611ea7565b9650611f4486611b13565b5f5b82811015611f6b57848901548255600182019150600185019450602081019050611f46565b86831015611f885784890154611f84601f891682611c79565b8355505b6001600288020188555050505b5050505050505b565b5f602082019050611fb15f830184611665565b9291505056fea26469706673582212206364a9d3eb21e1dce49b5837a1084c6d144f416e8093bd8246e2df3fe0caff4564736f6c63430008140033",
			"opcodes": "PUSH1 0x80 PUSH1 0x40 MSTORE CALLVALUE DUP1 ISZERO PUSH2 0xF JUMPI PUSH0 DUP1 REVERT JUMPDEST POP PUSH2 0x1FED DUP1 PUSH2 0x1D PUSH0 CODECOPY PUSH0 RETURN INVALID PUSH1 0x80 PUSH1 0x40 MSTORE CALLVALUE DUP1 ISZERO PUSH2 0xF JUMPI PUSH0 DUP1 REVERT JUMPDEST POP PUSH1 0x4 CALLDATASIZE LT PUSH2 0xFD JUMPI PUSH0 CALLDATALOAD PUSH1 0xE0 SHR DUP1 PUSH4 0x55B867E2 GT PUSH2 0x95 JUMPI DUP1 PUSH4 0xAAFE533B GT PUSH2 0x64 JUMPI DUP1 PUSH4 0xAAFE533B EQ PUSH2 0x2B0 JUMPI DUP1 PUSH4 0xC9BF5B15 EQ PUSH2 0x2E0 JUMPI DUP1 PUSH4 0xDA67C23D EQ PUSH2 0x310 JUMPI DUP1 PUSH4 0xF019EC66 EQ PUSH2 0x32C JUMPI PUSH2 0xFD JUMP JUMPDEST DUP1 PUSH4 0x55B867E2 EQ PUSH2 0x1FD JUMPI DUP1 PUSH4 0x69DDCADE EQ PUSH2 0x22D JUMPI DUP1 PUSH4 0x794AA4CF EQ PUSH2 0x260 JUMPI DUP1 PUSH4 0xA958C530 EQ PUSH2 0x27C JUMPI PUSH2 0xFD JUMP JUMPDEST DUP1 PUSH4 0x3EB492A7 GT PUSH2 0xD1 JUMPI DUP1 PUSH4 0x3EB492A7 EQ PUSH2 0x19D JUMPI DUP1 PUSH4 0x4061A5BF EQ PUSH2 0x1B9 JUMPI DUP1 PUSH4 0x4FE2C716 EQ PUSH2 0x1D7 JUMPI DUP1 PUSH4 0x53439CAC EQ PUSH2 0x1E1 JUMPI PUSH2 0xFD JUMP JUMPDEST DUP1 PUSH3 0xE2D63D EQ PUSH2 0x101 JUMPI DUP1 PUSH4 0x87996B8 EQ PUSH2 0x131 JUMPI DUP1 PUSH4 0x23FFCCAE EQ PUSH2 0x14F JUMPI DUP1 PUSH4 0x2805E8F9 EQ PUSH2 0x16D JUMPI JUMPDEST PUSH0 DUP1 REVERT JUMPDEST PUSH2 0x11B PUSH1 0x4 DUP1 CALLDATASIZE SUB DUP2 ADD SWAP1 PUSH2 0x116 SWAP2 SWAP1 PUSH2 0x12CD JUMP JUMPDEST PUSH2 0x348 JUMP JUMPDEST PUSH1 0x40 MLOAD PUSH2 0x128 SWAP2 SWAP1 PUSH2 0x1307 JUMP JUMPDEST PUSH1 0x40 MLOAD DUP1 SWAP2 SUB SWAP1 RETURN JUMPDEST PUSH2 0x139 PUSH2 0x368 JUMP JUMPDEST PUSH1 0x40 MLOAD PUSH2 0x146 SWAP2 SWAP1 PUSH2 0x1307 JUMP JUMPDEST PUSH1 0x40 MLOAD DUP1 SWAP2 SUB SWAP1 RETURN JUMPDEST PUSH2 0x157 PUSH2 0x373 JUMP JUMPDEST PUSH1 0x40 MLOAD PUSH2 0x164 SWAP2 SWAP1 PUSH2 0x1307 JUMP JUMPDEST PUSH1 0x40 MLOAD DUP1 SWAP2 SUB SWAP1 RETURN JUMPDEST PUSH2 0x187 PUSH1 0x4 DUP1 CALLDATASIZE SUB DUP2 ADD SWAP1 PUSH2 0x182 SWAP2 SWAP1 PUSH2 0x12CD JUMP JUMPDEST PUSH2 0x406 JUMP JUMPDEST PUSH1 0x40 MLOAD PUSH2 0x194 SWAP2 SWAP1 PUSH2 0x1307 JUMP JUMPDEST PUSH1 0x40 MLOAD DUP1 SWAP2 SUB SWAP1 RETURN JUMPDEST PUSH2 0x1B7 PUSH1 0x4 DUP1 CALLDATASIZE SUB DUP2 ADD SWAP1 PUSH2 0x1B2 SWAP2 SWAP1 PUSH2 0x1320 JUMP JUMPDEST PUSH2 0x4EC JUMP JUMPDEST STOP JUMPDEST PUSH2 0x1C1 PUSH2 0x5DA JUMP JUMPDEST PUSH1 0x40 MLOAD PUSH2 0x1CE SWAP2 SWAP1 PUSH2 0x1403 JUMP JUMPDEST PUSH1 0x40 MLOAD DUP1 SWAP2 SUB SWAP1 RETURN JUMPDEST PUSH2 0x1DF PUSH2 0x625 JUMP JUMPDEST STOP JUMPDEST PUSH2 0x1FB PUSH1 0x4 DUP1 CALLDATASIZE SUB DUP2 ADD SWAP1 PUSH2 0x1F6 SWAP2 SWAP1 PUSH2 0x1441 JUMP JUMPDEST PUSH2 0x6FF JUMP JUMPDEST STOP JUMPDEST PUSH2 0x217 PUSH1 0x4 DUP1 CALLDATASIZE SUB DUP2 ADD SWAP1 PUSH2 0x212 SWAP2 SWAP1 PUSH2 0x12CD JUMP JUMPDEST PUSH2 0x714 JUMP JUMPDEST PUSH1 0x40 MLOAD PUSH2 0x224 SWAP2 SWAP1 PUSH2 0x14FD JUMP JUMPDEST PUSH1 0x40 MLOAD DUP1 SWAP2 SUB SWAP1 RETURN JUMPDEST PUSH2 0x247 PUSH1 0x4 DUP1 CALLDATASIZE SUB DUP2 ADD SWAP1 PUSH2 0x242 SWAP2 SWAP1 PUSH2 0x12CD JUMP JUMPDEST PUSH2 0x7D2 JUMP JUMPDEST PUSH1 0x40 MLOAD PUSH2 0x257 SWAP5 SWAP4 SWAP3 SWAP2 SWAP1 PUSH2 0x1674 JUMP JUMPDEST PUSH1 0x40 MLOAD DUP1 SWAP2 SUB SWAP1 RETURN JUMPDEST PUSH2 0x27A PUSH1 0x4 DUP1 CALLDATASIZE SUB DUP2 ADD SWAP1 PUSH2 0x275 SWAP2 SWAP1 PUSH2 0x12CD JUMP JUMPDEST PUSH2 0x8CA JUMP JUMPDEST STOP JUMPDEST PUSH2 0x296 PUSH1 0x4 DUP1 CALLDATASIZE SUB DUP2 ADD SWAP1 PUSH2 0x291 SWAP2 SWAP1 PUSH2 0x12CD JUMP JUMPDEST PUSH2 0x99F JUMP JUMPDEST PUSH1 0x40 MLOAD PUSH2 0x2A7 SWAP6 SWAP5 SWAP4 SWAP3 SWAP2 SWAP1 PUSH2 0x16BE JUMP JUMPDEST PUSH1 0x40 MLOAD DUP1 SWAP2 SUB SWAP1 RETURN JUMPDEST PUSH2 0x2CA PUSH1 0x4 DUP1 CALLDATASIZE SUB DUP2 ADD SWAP1 PUSH2 0x2C5 SWAP2 SWAP1 PUSH2 0x179D JUMP JUMPDEST PUSH2 0xAFD JUMP JUMPDEST PUSH1 0x40 MLOAD PUSH2 0x2D7 SWAP2 SWAP1 PUSH2 0x1307 JUMP JUMPDEST PUSH1 0x40 MLOAD DUP1 SWAP2 SUB SWAP1 RETURN JUMPDEST PUSH2 0x2FA PUSH1 0x4 DUP1 CALLDATASIZE SUB DUP2 ADD SWAP1 PUSH2 0x2F5 SWAP2 SWAP1 PUSH2 0x12CD JUMP JUMPDEST PUSH2 0xD29 JUMP JUMPDEST PUSH1 0x40 MLOAD PUSH2 0x307 SWAP2 SWAP1 PUSH2 0x1307 JUMP JUMPDEST PUSH1 0x40 MLOAD DUP1 SWAP2 SUB SWAP1 RETURN JUMPDEST PUSH2 0x32A PUSH1 0x4 DUP1 CALLDATASIZE SUB DUP2 ADD SWAP1 PUSH2 0x325 SWAP2 SWAP1 PUSH2 0x1320 JUMP JUMPDEST PUSH2 0xD42 JUMP JUMPDEST STOP JUMPDEST PUSH2 0x346 PUSH1 0x4 DUP1 CALLDATASIZE SUB DUP2 ADD SWAP1 PUSH2 0x341 SWAP2 SWAP1 PUSH2 0x181D JUMP JUMPDEST PUSH2 0x1055 JUMP JUMPDEST STOP JUMPDEST PUSH1 0x1 DUP2 DUP2 SLOAD DUP2 LT PUSH2 0x357 JUMPI PUSH0 DUP1 REVERT JUMPDEST SWAP1 PUSH0 MSTORE PUSH1 0x20 PUSH0 KECCAK256 ADD PUSH0 SWAP2 POP SWAP1 POP SLOAD DUP2 JUMP JUMPDEST PUSH0 DUP1 DUP1 SLOAD SWAP1 POP SWAP1 POP SWAP1 JUMP JUMPDEST PUSH0 DUP1 PUSH0 SWAP1 POP JUMPDEST PUSH0 DUP1 SLOAD SWAP1 POP DUP2 LT ISZERO PUSH2 0x402 JUMPI PUSH1 0x1 PUSH1 0x2 DUP2 GT ISZERO PUSH2 0x399 JUMPI PUSH2 0x398 PUSH2 0x1601 JUMP JUMPDEST JUMPDEST PUSH0 DUP3 DUP2 SLOAD DUP2 LT PUSH2 0x3AC JUMPI PUSH2 0x3AB PUSH2 0x185B JUMP JUMPDEST JUMPDEST SWAP1 PUSH0 MSTORE PUSH1 0x20 PUSH0 KECCAK256 SWAP1 PUSH1 0x4 MUL ADD PUSH1 0x2 ADD PUSH1 0x1 SWAP1 SLOAD SWAP1 PUSH2 0x100 EXP SWAP1 DIV PUSH1 0xFF AND PUSH1 0x2 DUP2 GT ISZERO PUSH2 0x3DB JUMPI PUSH2 0x3DA PUSH2 0x1601 JUMP JUMPDEST JUMPDEST SUB PUSH2 0x3EF JUMPI DUP2 DUP1 PUSH2 0x3EB SWAP1 PUSH2 0x18B5 JUMP JUMPDEST SWAP3 POP POP JUMPDEST DUP1 DUP1 PUSH2 0x3FA SWAP1 PUSH2 0x18B5 JUMP JUMPDEST SWAP2 POP POP PUSH2 0x379 JUMP JUMPDEST POP SWAP1 JUMP JUMPDEST PUSH0 DUP1 DUP1 SLOAD SWAP1 POP DUP3 LT PUSH2 0x44D JUMPI PUSH1 0x40 MLOAD PUSH32 0x8C379A000000000000000000000000000000000000000000000000000000000 DUP2 MSTORE PUSH1 0x4 ADD PUSH2 0x444 SWAP1 PUSH2 0x1946 JUMP JUMPDEST PUSH1 0x40 MLOAD DUP1 SWAP2 SUB SWAP1 REVERT JUMPDEST PUSH0 DUP1 DUP4 DUP2 SLOAD DUP2 LT PUSH2 0x461 JUMPI PUSH2 0x460 PUSH2 0x185B JUMP JUMPDEST JUMPDEST SWAP1 PUSH0 MSTORE PUSH1 0x20 PUSH0 KECCAK256 SWAP1 PUSH1 0x4 MUL ADD PUSH1 0x3 ADD SWAP1 POP PUSH0 DUP2 DUP1 SLOAD SWAP1 POP SUB PUSH2 0x486 JUMPI PUSH0 SWAP2 POP POP PUSH2 0x4E7 JUMP JUMPDEST PUSH0 DUP1 JUMPDEST DUP3 DUP1 SLOAD SWAP1 POP DUP2 LT ISZERO PUSH2 0x4D1 JUMPI DUP3 DUP2 DUP2 SLOAD DUP2 LT PUSH2 0x4A8 JUMPI PUSH2 0x4A7 PUSH2 0x185B JUMP JUMPDEST JUMPDEST SWAP1 PUSH0 MSTORE PUSH1 0x20 PUSH0 KECCAK256 ADD SLOAD DUP3 PUSH2 0x4BC SWAP2 SWAP1 PUSH2 0x1964 JUMP JUMPDEST SWAP2 POP DUP1 DUP1 PUSH2 0x4C9 SWAP1 PUSH2 0x18B5 JUMP JUMPDEST SWAP2 POP POP PUSH2 0x489 JUMP JUMPDEST POP DUP2 DUP1 SLOAD SWAP1 POP DUP2 PUSH2 0x4E2 SWAP2 SWAP1 PUSH2 0x19C4 JUMP JUMPDEST SWAP3 POP POP POP JUMPDEST SWAP2 SWAP1 POP JUMP JUMPDEST PUSH0 DUP1 SLOAD SWAP1 POP DUP3 LT PUSH2 0x532 JUMPI PUSH1 0x40 MLOAD PUSH32 0x8C379A000000000000000000000000000000000000000000000000000000000 DUP2 MSTORE PUSH1 0x4 ADD PUSH2 0x529 SWAP1 PUSH2 0x1946 JUMP JUMPDEST PUSH1 0x40 MLOAD DUP1 SWAP2 SUB SWAP1 REVERT JUMPDEST PUSH0 DUP3 DUP2 SLOAD DUP2 LT PUSH2 0x545 JUMPI PUSH2 0x544 PUSH2 0x185B JUMP JUMPDEST JUMPDEST SWAP1 PUSH0 MSTORE PUSH1 0x20 PUSH0 KECCAK256 SWAP1 PUSH1 0x4 MUL ADD PUSH1 0x3 ADD DUP2 SWAP1 DUP1 PUSH1 0x1 DUP2 SLOAD ADD DUP1 DUP3 SSTORE DUP1 SWAP2 POP POP PUSH1 0x1 SWAP1 SUB SWAP1 PUSH0 MSTORE PUSH1 0x20 PUSH0 KECCAK256 ADD PUSH0 SWAP1 SWAP2 SWAP1 SWAP2 SWAP1 SWAP2 POP SSTORE PUSH1 0x1 DUP2 SWAP1 DUP1 PUSH1 0x1 DUP2 SLOAD ADD DUP1 DUP3 SSTORE DUP1 SWAP2 POP POP PUSH1 0x1 SWAP1 SUB SWAP1 PUSH0 MSTORE PUSH1 0x20 PUSH0 KECCAK256 ADD PUSH0 SWAP1 SWAP2 SWAP1 SWAP2 SWAP1 SWAP2 POP SSTORE DUP2 PUSH32 0x34AA79C26A5906548E3C798B1C2A5A5551AC2A2D51F4D442E2D2CA4BC0731EBA DUP3 PUSH1 0x40 MLOAD PUSH2 0x5CE SWAP2 SWAP1 PUSH2 0x1307 JUMP JUMPDEST PUSH1 0x40 MLOAD DUP1 SWAP2 SUB SWAP1 LOG2 POP POP JUMP JUMPDEST PUSH2 0x5E2 PUSH2 0x1121 JUMP JUMPDEST PUSH1 0x2 PUSH1 0x3 DUP1 PUSH1 0x20 MUL PUSH1 0x40 MLOAD SWAP1 DUP2 ADD PUSH1 0x40 MSTORE DUP1 SWAP3 SWAP2 SWAP1 DUP3 PUSH1 0x3 DUP1 ISZERO PUSH2 0x61B JUMPI PUSH1 0x20 MUL DUP3 ADD SWAP2 JUMPDEST DUP2 SLOAD DUP2 MSTORE PUSH1 0x20 ADD SWAP1 PUSH1 0x1 ADD SWAP1 DUP1 DUP4 GT PUSH2 0x607 JUMPI JUMPDEST POP POP POP POP POP SWAP1 POP SWAP1 JUMP JUMPDEST PUSH0 DUP1 DUP1 SLOAD SWAP1 POP GT PUSH2 0x66B JUMPI PUSH1 0x40 MLOAD PUSH32 0x8C379A000000000000000000000000000000000000000000000000000000000 DUP2 MSTORE PUSH1 0x4 ADD PUSH2 0x662 SWAP1 PUSH2 0x1A3E JUMP JUMPDEST PUSH1 0x40 MLOAD DUP1 SWAP2 SUB SWAP1 REVERT JUMPDEST PUSH0 DUP1 SLOAD DUP1 PUSH2 0x67C JUMPI PUSH2 0x67B PUSH2 0x1A5C JUMP JUMPDEST JUMPDEST PUSH1 0x1 SWAP1 SUB DUP2 DUP2 SWAP1 PUSH0 MSTORE PUSH1 0x20 PUSH0 KECCAK256 SWAP1 PUSH1 0x4 MUL ADD PUSH0 DUP1 DUP3 ADD PUSH0 PUSH2 0x100 EXP DUP2 SLOAD SWAP1 PUSH20 0xFFFFFFFFFFFFFFFFFFFFFFFFFFFFFFFFFFFFFFFF MUL NOT AND SWAP1 SSTORE PUSH1 0x1 DUP3 ADD PUSH0 PUSH2 0x6C3 SWAP2 SWAP1 PUSH2 0x1143 JUMP JUMPDEST PUSH1 0x2 DUP3 ADD PUSH0 PUSH2 0x100 EXP DUP2 SLOAD SWAP1 PUSH1 0xFF MUL NOT AND SWAP1 SSTORE PUSH1 0x2 DUP3 ADD PUSH1 0x1 PUSH2 0x100 EXP DUP2 SLOAD SWAP1 PUSH1 0xFF MUL NOT AND SWAP1 SSTORE PUSH1 0x3 DUP3 ADD PUSH0 PUSH2 0x6F9 SWAP2 SWAP1 PUSH2 0x1180 JUMP JUMPDEST POP POP SWAP1 SSTORE JUMP JUMPDEST DUP1 PUSH1 0x2 SWAP1 PUSH1 0x3 PUSH2 0x710 SWAP3 SWAP2 SWAP1 PUSH2 0x119E JUMP JUMPDEST POP POP JUMP JUMPDEST PUSH1 0x60 PUSH0 DUP1 SLOAD SWAP1 POP DUP3 LT PUSH2 0x75C JUMPI PUSH1 0x40 MLOAD PUSH32 0x8C379A000000000000000000000000000000000000000000000000000000000 DUP2 MSTORE PUSH1 0x4 ADD PUSH2 0x753 SWAP1 PUSH2 0x1946 JUMP JUMPDEST PUSH1 0x40 MLOAD DUP1 SWAP2 SUB SWAP1 REVERT JUMPDEST PUSH0 DUP3 DUP2 SLOAD DUP2 LT PUSH2 0x76F JUMPI PUSH2 0x76E PUSH2 0x185B JUMP JUMPDEST JUMPDEST SWAP1 PUSH0 MSTORE PUSH1 0x20 PUSH0 KECCAK256 SWAP1 PUSH1 0x4 MUL ADD PUSH1 0x3 ADD DUP1 SLOAD DUP1 PUSH1 0x20 MUL PUSH1 0x20 ADD PUSH1 0x40 MLOAD SWAP1 DUP2 ADD PUSH1 0x40 MSTORE DUP1 SWAP3 SWAP2 SWAP1 DUP2 DUP2 MSTORE PUSH1 0x20 ADD DUP3 DUP1 SLOAD DUP1 ISZERO PUSH2 0x7C6 JUMPI PUSH1 0x20 MUL DUP3 ADD SWAP2 SWAP1 PUSH0 MSTORE PUSH1 0x20 PUSH0 KECCAK256 SWAP1 JUMPDEST DUP2 SLOAD DUP2 MSTORE PUSH1 0x20 ADD SWAP1 PUSH1 0x1 ADD SWAP1 DUP1 DUP4 GT PUSH2 0x7B2 JUMPI JUMPDEST POP POP POP POP POP SWAP1 POP SWAP2 SWAP1 POP JUMP JUMPDEST PUSH0 DUP2 DUP2 SLOAD DUP2 LT PUSH2 0x7E0 JUMPI PUSH0 DUP1 REVERT JUMPDEST SWAP1 PUSH0 MSTORE PUSH1 0x20 PUSH0 KECCAK256 SWAP1 PUSH1 0x4 MUL ADD PUSH0 SWAP2 POP SWAP1 POP DUP1 PUSH0 ADD PUSH0 SWAP1 SLOAD SWAP1 PUSH2 0x100 EXP SWAP1 DIV PUSH20 0xFFFFFFFFFFFFFFFFFFFFFFFFFFFFFFFFFFFFFFFF AND SWAP1 DUP1 PUSH1 0x1 ADD DUP1 SLOAD PUSH2 0x824 SWAP1 PUSH2 0x1AB6 JUMP JUMPDEST DUP1 PUSH1 0x1F ADD PUSH1 0x20 DUP1 SWAP2 DIV MUL PUSH1 0x20 ADD PUSH1 0x40 MLOAD SWAP1 DUP2 ADD PUSH1 0x40 MSTORE DUP1 SWAP3 SWAP2 SWAP1 DUP2 DUP2 MSTORE PUSH1 0x20 ADD DUP3 DUP1 SLOAD PUSH2 0x850 SWAP1 PUSH2 0x1AB6 JUMP JUMPDEST DUP1 ISZERO PUSH2 0x89B JUMPI DUP1 PUSH1 0x1F LT PUSH2 0x872 JUMPI PUSH2 0x100 DUP1 DUP4 SLOAD DIV MUL DUP4 MSTORE SWAP2 PUSH1 0x20 ADD SWAP2 PUSH2 0x89B JUMP JUMPDEST DUP3 ADD SWAP2 SWAP1 PUSH0 MSTORE PUSH1 0x20 PUSH0 KECCAK256 SWAP1 JUMPDEST DUP2 SLOAD DUP2 MSTORE SWAP1 PUSH1 0x1 ADD SWAP1 PUSH1 0x20 ADD DUP1 DUP4 GT PUSH2 0x87E JUMPI DUP3 SWAP1 SUB PUSH1 0x1F AND DUP3 ADD SWAP2 JUMPDEST POP POP POP POP POP SWAP1 DUP1 PUSH1 0x2 ADD PUSH0 SWAP1 SLOAD SWAP1 PUSH2 0x100 EXP SWAP1 DIV PUSH1 0xFF AND SWAP1 DUP1 PUSH1 0x2 ADD PUSH1 0x1 SWAP1 SLOAD SWAP1 PUSH2 0x100 EXP SWAP1 DIV PUSH1 0xFF AND SWAP1 POP DUP5 JUMP JUMPDEST PUSH0 DUP1 SLOAD SWAP1 POP DUP2 LT PUSH2 0x910 JUMPI PUSH1 0x40 MLOAD PUSH32 0x8C379A000000000000000000000000000000000000000000000000000000000 DUP2 MSTORE PUSH1 0x4 ADD PUSH2 0x907 SWAP1 PUSH2 0x1946 JUMP JUMPDEST PUSH1 0x40 MLOAD DUP1 SWAP2 SUB SWAP1 REVERT JUMPDEST PUSH0 DUP2 DUP2 SLOAD DUP2 LT PUSH2 0x923 JUMPI PUSH2 0x922 PUSH2 0x185B JUMP JUMPDEST JUMPDEST SWAP1 PUSH0 MSTORE PUSH1 0x20 PUSH0 KECCAK256 SWAP1 PUSH1 0x4 MUL ADD PUSH0 DUP1 DUP3 ADD PUSH0 PUSH2 0x100 EXP DUP2 SLOAD SWAP1 PUSH20 0xFFFFFFFFFFFFFFFFFFFFFFFFFFFFFFFFFFFFFFFF MUL NOT AND SWAP1 SSTORE PUSH1 0x1 DUP3 ADD PUSH0 PUSH2 0x964 SWAP2 SWAP1 PUSH2 0x1143 JUMP JUMPDEST PUSH1 0x2 DUP3 ADD PUSH0 PUSH2 0x100 EXP DUP2 SLOAD SWAP1 PUSH1 0xFF MUL NOT AND SWAP1 SSTORE PUSH1 0x2 DUP3 ADD PUSH1 0x1 PUSH2 0x100 EXP DUP2 SLOAD SWAP1 PUSH1 0xFF MUL NOT AND SWAP1 SSTORE PUSH1 0x3 DUP3 ADD PUSH0 PUSH2 0x99A SWAP2 SWAP1 PUSH2 0x1180 JUMP JUMPDEST POP POP POP JUMP JUMPDEST PUSH0 PUSH1 0x60 PUSH0 DUP1 PUSH0 DUP1 DUP1 SLOAD SWAP1 POP DUP7 LT PUSH2 0x9EB JUMPI PUSH1 0x40 MLOAD PUSH32 0x8C379A000000000000000000000000000000000000000000000000000000000 DUP2 MSTORE PUSH1 0x4 ADD PUSH2 0x9E2 SWAP1 PUSH2 0x1946 JUMP JUMPDEST PUSH1 0x40 MLOAD DUP1 SWAP2 SUB SWAP1 REVERT JUMPDEST PUSH0 DUP1 DUP8 DUP2 SLOAD DUP2 LT PUSH2 0x9FF JUMPI PUSH2 0x9FE PUSH2 0x185B JUMP JUMPDEST JUMPDEST SWAP1 PUSH0 MSTORE PUSH1 0x20 PUSH0 KECCAK256 SWAP1 PUSH1 0x4 MUL ADD SWAP1 POP DUP1 PUSH0 ADD PUSH0 SWAP1 SLOAD SWAP1 PUSH2 0x100 EXP SWAP1 DIV PUSH20 0xFFFFFFFFFFFFFFFFFFFFFFFFFFFFFFFFFFFFFFFF AND DUP2 PUSH1 0x1 ADD DUP3 PUSH1 0x2 ADD PUSH0 SWAP1 SLOAD SWAP1 PUSH2 0x100 EXP SWAP1 DIV PUSH1 0xFF AND DUP4 PUSH1 0x2 ADD PUSH1 0x1 SWAP1 SLOAD SWAP1 PUSH2 0x100 EXP SWAP1 DIV PUSH1 0xFF AND DUP5 PUSH1 0x3 ADD DUP1 SLOAD SWAP1 POP DUP4 DUP1 SLOAD PUSH2 0xA6B SWAP1 PUSH2 0x1AB6 JUMP JUMPDEST DUP1 PUSH1 0x1F ADD PUSH1 0x20 DUP1 SWAP2 DIV MUL PUSH1 0x20 ADD PUSH1 0x40 MLOAD SWAP1 DUP2 ADD PUSH1 0x40 MSTORE DUP1 SWAP3 SWAP2 SWAP1 DUP2 DUP2 MSTORE PUSH1 0x20 ADD DUP3 DUP1 SLOAD PUSH2 0xA97 SWAP1 PUSH2 0x1AB6 JUMP JUMPDEST DUP1 ISZERO PUSH2 0xAE2 JUMPI DUP1 PUSH1 0x1F LT PUSH2 0xAB9 JUMPI PUSH2 0x100 DUP1 DUP4 SLOAD DIV MUL DUP4 MSTORE SWAP2 PUSH1 0x20 ADD SWAP2 PUSH2 0xAE2 JUMP JUMPDEST DUP3 ADD SWAP2 SWAP1 PUSH0 MSTORE PUSH1 0x20 PUSH0 KECCAK256 SWAP1 JUMPDEST DUP2 SLOAD DUP2 MSTORE SWAP1 PUSH1 0x1 ADD SWAP1 PUSH1 0x20 ADD DUP1 DUP4 GT PUSH2 0xAC5 JUMPI DUP3 SWAP1 SUB PUSH1 0x1F AND DUP3 ADD SWAP2 JUMPDEST POP POP POP POP POP SWAP4 POP SWAP6 POP SWAP6 POP SWAP6 POP SWAP6 POP SWAP6 POP POP SWAP2 SWAP4 SWAP6 SWAP1 SWAP3 SWAP5 POP JUMP JUMPDEST PUSH0 DUP1 PUSH1 0x40 MLOAD DUP1 PUSH1 0xA0 ADD PUSH1 0x40 MSTORE DUP1 CALLER PUSH20 0xFFFFFFFFFFFFFFFFFFFFFFFFFFFFFFFFFFFFFFFF AND DUP2 MSTORE PUSH1 0x20 ADD DUP7 DUP7 DUP1 DUP1 PUSH1 0x1F ADD PUSH1 0x20 DUP1 SWAP2 DIV MUL PUSH1 0x20 ADD PUSH1 0x40 MLOAD SWAP1 DUP2 ADD PUSH1 0x40 MSTORE DUP1 SWAP4 SWAP3 SWAP2 SWAP1 DUP2 DUP2 MSTORE PUSH1 0x20 ADD DUP4 DUP4 DUP1 DUP3 DUP5 CALLDATACOPY PUSH0 DUP2 DUP5 ADD MSTORE PUSH1 0x1F NOT PUSH1 0x1F DUP3 ADD AND SWAP1 POP DUP1 DUP4 ADD SWAP3 POP POP POP POP POP POP POP DUP2 MSTORE PUSH1 0x20 ADD DUP5 PUSH1 0xFF AND DUP2 MSTORE PUSH1 0x20 ADD PUSH1 0x1 PUSH1 0x2 DUP2 GT ISZERO PUSH2 0xB8C JUMPI PUSH2 0xB8B PUSH2 0x1601 JUMP JUMPDEST JUMPDEST DUP2 MSTORE PUSH1 0x20 ADD PUSH0 PUSH8 0xFFFFFFFFFFFFFFFF DUP2 GT ISZERO PUSH2 0xBAB JUMPI PUSH2 0xBAA PUSH2 0x1AE6 JUMP JUMPDEST JUMPDEST PUSH1 0x40 MLOAD SWAP1 DUP1 DUP3 MSTORE DUP1 PUSH1 0x20 MUL PUSH1 0x20 ADD DUP3 ADD PUSH1 0x40 MSTORE DUP1 ISZERO PUSH2 0xBD9 JUMPI DUP2 PUSH1 0x20 ADD PUSH1 0x20 DUP3 MUL DUP1 CALLDATASIZE DUP4 CALLDATACOPY DUP1 DUP3 ADD SWAP2 POP POP SWAP1 POP JUMPDEST POP DUP2 MSTORE POP SWAP1 POP PUSH0 DUP2 SWAP1 DUP1 PUSH1 0x1 DUP2 SLOAD ADD DUP1 DUP3 SSTORE DUP1 SWAP2 POP POP PUSH1 0x1 SWAP1 SUB SWAP1 PUSH0 MSTORE PUSH1 0x20 PUSH0 KECCAK256 SWAP1 PUSH1 0x4 MUL ADD PUSH0 SWAP1 SWAP2 SWAP1 SWAP2 SWAP1 SWAP2 POP PUSH0 DUP3 ADD MLOAD DUP2 PUSH0 ADD PUSH0 PUSH2 0x100 EXP DUP2 SLOAD DUP2 PUSH20 0xFFFFFFFFFFFFFFFFFFFFFFFFFFFFFFFFFFFFFFFF MUL NOT AND SWAP1 DUP4 PUSH20 0xFFFFFFFFFFFFFFFFFFFFFFFFFFFFFFFFFFFFFFFF AND MUL OR SWAP1 SSTORE POP PUSH1 0x20 DUP3 ADD MLOAD DUP2 PUSH1 0x1 ADD SWAP1 DUP2 PUSH2 0xC60 SWAP2 SWAP1 PUSH2 0x1CB0 JUMP JUMPDEST POP PUSH1 0x40 DUP3 ADD MLOAD DUP2 PUSH1 0x2 ADD PUSH0 PUSH2 0x100 EXP DUP2 SLOAD DUP2 PUSH1 0xFF MUL NOT AND SWAP1 DUP4 PUSH1 0xFF AND MUL OR SWAP1 SSTORE POP PUSH1 0x60 DUP3 ADD MLOAD DUP2 PUSH1 0x2 ADD PUSH1 0x1 PUSH2 0x100 EXP DUP2 SLOAD DUP2 PUSH1 0xFF MUL NOT AND SWAP1 DUP4 PUSH1 0x2 DUP2 GT ISZERO PUSH2 0xCAC JUMPI PUSH2 0xCAB PUSH2 0x1601 JUMP JUMPDEST JUMPDEST MUL OR SWAP1 SSTORE POP PUSH1 0x80 DUP3 ADD MLOAD DUP2 PUSH1 0x3 ADD SWAP1 DUP1 MLOAD SWAP1 PUSH1 0x20 ADD SWAP1 PUSH2 0xCCD SWAP3 SWAP2 SWAP1 PUSH2 0x11DE JUMP JUMPDEST POP POP POP PUSH1 0x1 PUSH0 DUP1 SLOAD SWAP1 POP PUSH2 0xCE1 SWAP2 SWAP1 PUSH2 0x1D7F JUMP JUMPDEST SWAP2 POP DUP2 PUSH32 0xCA378E39156B71843E965563EB93A20C9EFB991575EF529532D42C94F60B415A CALLER DUP8 DUP8 DUP8 PUSH1 0x40 MLOAD PUSH2 0xD19 SWAP5 SWAP4 SWAP3 SWAP2 SWAP1 PUSH2 0x1DEC JUMP JUMPDEST PUSH1 0x40 MLOAD DUP1 SWAP2 SUB SWAP1 LOG2 POP SWAP4 SWAP3 POP POP POP JUMP JUMPDEST PUSH1 0x2 DUP2 PUSH1 0x3 DUP2 LT PUSH2 0xD38 JUMPI PUSH0 DUP1 REVERT JUMPDEST ADD PUSH0 SWAP2 POP SWAP1 POP SLOAD DUP2 JUMP JUMPDEST PUSH0 DUP1 SLOAD SWAP1 POP DUP3 LT DUP1 ISZERO PUSH2 0xD58 JUMPI POP PUSH0 DUP1 SLOAD SWAP1 POP DUP2 LT JUMPDEST PUSH2 0xD97 JUMPI PUSH1 0x40 MLOAD PUSH32 0x8C379A000000000000000000000000000000000000000000000000000000000 DUP2 MSTORE PUSH1 0x4 ADD PUSH2 0xD8E SWAP1 PUSH2 0x1E74 JUMP JUMPDEST PUSH1 0x40 MLOAD DUP1 SWAP2 SUB SWAP1 REVERT JUMPDEST DUP1 DUP3 SUB ISZERO PUSH2 0x1051 JUMPI PUSH0 DUP1 DUP4 DUP2 SLOAD DUP2 LT PUSH2 0xDB3 JUMPI PUSH2 0xDB2 PUSH2 0x185B JUMP JUMPDEST JUMPDEST SWAP1 PUSH0 MSTORE PUSH1 0x20 PUSH0 KECCAK256 SWAP1 PUSH1 0x4 MUL ADD SWAP1 POP PUSH0 DUP1 DUP4 DUP2 SLOAD DUP2 LT PUSH2 0xDD5 JUMPI PUSH2 0xDD4 PUSH2 0x185B JUMP JUMPDEST JUMPDEST SWAP1 PUSH0 MSTORE PUSH1 0x20 PUSH0 KECCAK256 SWAP1 PUSH1 0x4 MUL ADD SWAP1 POP DUP1 PUSH0 ADD PUSH0 SWAP1 SLOAD SWAP1 PUSH2 0x100 EXP SWAP1 DIV PUSH20 0xFFFFFFFFFFFFFFFFFFFFFFFFFFFFFFFFFFFFFFFF AND DUP3 PUSH0 ADD PUSH0 SWAP1 SLOAD SWAP1 PUSH2 0x100 EXP SWAP1 DIV PUSH20 0xFFFFFFFFFFFFFFFFFFFFFFFFFFFFFFFFFFFFFFFF AND DUP4 PUSH0 ADD PUSH0 DUP5 PUSH0 ADD PUSH0 DUP5 SWAP2 SWAP1 PUSH2 0x100 EXP DUP2 SLOAD DUP2 PUSH20 0xFFFFFFFFFFFFFFFFFFFFFFFFFFFFFFFFFFFFFFFF MUL NOT AND SWAP1 DUP4 PUSH20 0xFFFFFFFFFFFFFFFFFFFFFFFFFFFFFFFFFFFFFFFF AND MUL OR SWAP1 SSTORE POP DUP4 SWAP2 SWAP1 PUSH2 0x100 EXP DUP2 SLOAD DUP2 PUSH20 0xFFFFFFFFFFFFFFFFFFFFFFFFFFFFFFFFFFFFFFFF MUL NOT AND SWAP1 DUP4 PUSH20 0xFFFFFFFFFFFFFFFFFFFFFFFFFFFFFFFFFFFFFFFF AND MUL OR SWAP1 SSTORE POP POP POP DUP1 PUSH1 0x1 ADD DUP3 PUSH1 0x1 ADD DUP4 PUSH1 0x1 ADD PUSH0 DUP5 PUSH1 0x1 ADD PUSH0 DUP5 SWAP2 SWAP1 POP SWAP1 DUP2 PUSH2 0xED3 SWAP2 SWAP1 PUSH2 0x1EB9 JUMP JUMPDEST POP DUP4 SWAP2 SWAP1 POP SWAP1 DUP2 PUSH2 0xEE4 SWAP2 SWAP1 PUSH2 0x1EB9 JUMP JUMPDEST POP POP POP DUP1 PUSH1 0x2 ADD PUSH0 SWAP1 SLOAD SWAP1 PUSH2 0x100 EXP SWAP1 DIV PUSH1 0xFF AND DUP3 PUSH1 0x2 ADD PUSH0 SWAP1 SLOAD SWAP1 PUSH2 0x100 EXP SWAP1 DIV PUSH1 0xFF AND DUP4 PUSH1 0x2 ADD PUSH0 DUP5 PUSH1 0x2 ADD PUSH0 DUP5 SWAP2 SWAP1 PUSH2 0x100 EXP DUP2 SLOAD DUP2 PUSH1 0xFF MUL NOT AND SWAP1 DUP4 PUSH1 0xFF AND MUL OR SWAP1 SSTORE POP DUP4 SWAP2 SWAP1 PUSH2 0x100 EXP DUP2 SLOAD DUP2 PUSH1 0xFF MUL NOT AND SWAP1 DUP4 PUSH1 0xFF AND MUL OR SWAP1 SSTORE POP POP POP DUP1 PUSH1 0x2 ADD PUSH1 0x1 SWAP1 SLOAD SWAP1 PUSH2 0x100 EXP SWAP1 DIV PUSH1 0xFF AND DUP3 PUSH1 0x2 ADD PUSH1 0x1 SWAP1 SLOAD SWAP1 PUSH2 0x100 EXP SWAP1 DIV PUSH1 0xFF AND DUP4 PUSH1 0x2 ADD PUSH1 0x1 DUP5 PUSH1 0x2 ADD PUSH1 0x1 DUP5 SWAP2 SWAP1 PUSH2 0x100 EXP DUP2 SLOAD DUP2 PUSH1 0xFF MUL NOT AND SWAP1 DUP4 PUSH1 0x2 DUP2 GT ISZERO PUSH2 0xF9A JUMPI PUSH2 0xF99 PUSH2 0x1601 JUMP JUMPDEST JUMPDEST MUL OR SWAP1 SSTORE POP DUP4 SWAP2 SWAP1 PUSH2 0x100 EXP DUP2 SLOAD DUP2 PUSH1 0xFF MUL NOT AND SWAP1 DUP4 PUSH1 0x2 DUP2 GT ISZERO PUSH2 0xFC2 JUMPI PUSH2 0xFC1 PUSH2 0x1601 JUMP JUMPDEST JUMPDEST MUL OR SWAP1 SSTORE POP POP POP PUSH0 DUP3 PUSH1 0x3 ADD DUP1 SLOAD DUP1 PUSH1 0x20 MUL PUSH1 0x20 ADD PUSH1 0x40 MLOAD SWAP1 DUP2 ADD PUSH1 0x40 MSTORE DUP1 SWAP3 SWAP2 SWAP1 DUP2 DUP2 MSTORE PUSH1 0x20 ADD DUP3 DUP1 SLOAD DUP1 ISZERO PUSH2 0x1016 JUMPI PUSH1 0x20 MUL DUP3 ADD SWAP2 SWAP1 PUSH0 MSTORE PUSH1 0x20 PUSH0 KECCAK256 SWAP1 JUMPDEST DUP2 SLOAD DUP2 MSTORE PUSH1 0x20 ADD SWAP1 PUSH1 0x1 ADD SWAP1 DUP1 DUP4 GT PUSH2 0x1002 JUMPI JUMPDEST POP POP POP POP POP SWAP1 POP DUP2 PUSH1 0x3 ADD DUP4 PUSH1 0x3 ADD SWAP1 DUP1 SLOAD PUSH2 0x1033 SWAP3 SWAP2 SWAP1 PUSH2 0x1229 JUMP JUMPDEST POP DUP1 DUP3 PUSH1 0x3 ADD SWAP1 DUP1 MLOAD SWAP1 PUSH1 0x20 ADD SWAP1 PUSH2 0x104C SWAP3 SWAP2 SWAP1 PUSH2 0x11DE JUMP JUMPDEST POP POP POP POP JUMPDEST POP POP JUMP JUMPDEST PUSH0 DUP1 SLOAD SWAP1 POP DUP3 LT PUSH2 0x109B JUMPI PUSH1 0x40 MLOAD PUSH32 0x8C379A000000000000000000000000000000000000000000000000000000000 DUP2 MSTORE PUSH1 0x4 ADD PUSH2 0x1092 SWAP1 PUSH2 0x1946 JUMP JUMPDEST PUSH1 0x40 MLOAD DUP1 SWAP2 SUB SWAP1 REVERT JUMPDEST DUP1 PUSH0 DUP4 DUP2 SLOAD DUP2 LT PUSH2 0x10AF JUMPI PUSH2 0x10AE PUSH2 0x185B JUMP JUMPDEST JUMPDEST SWAP1 PUSH0 MSTORE PUSH1 0x20 PUSH0 KECCAK256 SWAP1 PUSH1 0x4 MUL ADD PUSH1 0x2 ADD PUSH1 0x1 PUSH2 0x100 EXP DUP2 SLOAD DUP2 PUSH1 0xFF MUL NOT AND SWAP1 DUP4 PUSH1 0x2 DUP2 GT ISZERO PUSH2 0x10E0 JUMPI PUSH2 0x10DF PUSH2 0x1601 JUMP JUMPDEST JUMPDEST MUL OR SWAP1 SSTORE POP DUP2 PUSH32 0x2042BF73E2C0320C688C039D65EB3D74C7A0A7B88096567FB341BFA3DF4FF9F5 DUP3 PUSH1 0x40 MLOAD PUSH2 0x1115 SWAP2 SWAP1 PUSH2 0x1F9E JUMP JUMPDEST PUSH1 0x40 MLOAD DUP1 SWAP2 SUB SWAP1 LOG2 POP POP JUMP JUMPDEST PUSH1 0x40 MLOAD DUP1 PUSH1 0x60 ADD PUSH1 0x40 MSTORE DUP1 PUSH1 0x3 SWAP1 PUSH1 0x20 DUP3 MUL DUP1 CALLDATASIZE DUP4 CALLDATACOPY DUP1 DUP3 ADD SWAP2 POP POP SWAP1 POP POP SWAP1 JUMP JUMPDEST POP DUP1 SLOAD PUSH2 0x114F SWAP1 PUSH2 0x1AB6 JUMP JUMPDEST PUSH0 DUP3 SSTORE DUP1 PUSH1 0x1F LT PUSH2 0x1160 JUMPI POP PUSH2 0x117D JUMP JUMPDEST PUSH1 0x1F ADD PUSH1 0x20 SWAP1 DIV SWAP1 PUSH0 MSTORE PUSH1 0x20 PUSH0 KECCAK256 SWAP1 DUP2 ADD SWAP1 PUSH2 0x117C SWAP2 SWAP1 PUSH2 0x1277 JUMP JUMPDEST JUMPDEST POP JUMP JUMPDEST POP DUP1 SLOAD PUSH0 DUP3 SSTORE SWAP1 PUSH0 MSTORE PUSH1 0x20 PUSH0 KECCAK256 SWAP1 DUP2 ADD SWAP1 PUSH2 0x119B SWAP2 SWAP1 PUSH2 0x1277 JUMP JUMPDEST POP JUMP JUMPDEST DUP3 PUSH1 0x3 DUP2 ADD SWAP3 DUP3 ISZERO PUSH2 0x11CD JUMPI SWAP2 PUSH1 0x20 MUL DUP3 ADD JUMPDEST DUP3 DUP2 GT ISZERO PUSH2 0x11CC JUMPI DUP3 CALLDATALOAD DUP3 SSTORE SWAP2 PUSH1 0x20 ADD SWAP2 SWAP1 PUSH1 0x1 ADD SWAP1 PUSH2 0x11B1 JUMP JUMPDEST JUMPDEST POP SWAP1 POP PUSH2 0x11DA SWAP2 SWAP1 PUSH2 0x1277 JUMP JUMPDEST POP SWAP1 JUMP JUMPDEST DUP3 DUP1 SLOAD DUP3 DUP3 SSTORE SWAP1 PUSH0 MSTORE PUSH1 0x20 PUSH0 KECCAK256 SWAP1 DUP2 ADD SWAP3 DUP3 ISZERO PUSH2 0x1218 JUMPI SWAP2 PUSH1 0x20 MUL DUP3 ADD JUMPDEST DUP3 DUP2 GT ISZERO PUSH2 0x1217 JUMPI DUP3 MLOAD DUP3 SSTORE SWAP2 PUSH1 0x20 ADD SWAP2 SWAP1 PUSH1 0x1 ADD SWAP1 PUSH2 0x11FC JUMP JUMPDEST JUMPDEST POP SWAP1 POP PUSH2 0x1225 SWAP2 SWAP1 PUSH2 0x1277 JUMP JUMPDEST POP SWAP1 JUMP JUMPDEST DUP3 DUP1 SLOAD DUP3 DUP3 SSTORE SWAP1 PUSH0 MSTORE PUSH1 0x20 PUSH0 KECCAK256 SWAP1 DUP2 ADD SWAP3 DUP3 ISZERO PUSH2 0x1266 JUMPI PUSH0 MSTORE PUSH1 0x20 PUSH0 KECCAK256 SWAP2 DUP3 ADD JUMPDEST DUP3 DUP2 GT ISZERO PUSH2 0x1265 JUMPI DUP3 SLOAD DUP3 SSTORE SWAP2 PUSH1 0x1 ADD SWAP2 SWAP1 PUSH1 0x1 ADD SWAP1 PUSH2 0x124A JUMP JUMPDEST JUMPDEST POP SWAP1 POP PUSH2 0x1273 SWAP2 SWAP1 PUSH2 0x1277 JUMP JUMPDEST POP SWAP1 JUMP JUMPDEST JUMPDEST DUP1 DUP3 GT ISZERO PUSH2 0x128E JUMPI PUSH0 DUP2 PUSH0 SWAP1 SSTORE POP PUSH1 0x1 ADD PUSH2 0x1278 JUMP JUMPDEST POP SWAP1 JUMP JUMPDEST PUSH0 DUP1 REVERT JUMPDEST PUSH0 DUP1 REVERT JUMPDEST PUSH0 DUP2 SWAP1 POP SWAP2 SWAP1 POP JUMP JUMPDEST PUSH2 0x12AC DUP2 PUSH2 0x129A JUMP JUMPDEST DUP2 EQ PUSH2 0x12B6 JUMPI PUSH0 DUP1 REVERT JUMPDEST POP JUMP JUMPDEST PUSH0 DUP2 CALLDATALOAD SWAP1 POP PUSH2 0x12C7 DUP2 PUSH2 0x12A3 JUMP JUMPDEST SWAP3 SWAP2 POP POP JUMP JUMPDEST PUSH0 PUSH1 0x20 DUP3 DUP5 SUB SLT ISZERO PUSH2 0x12E2 JUMPI PUSH2 0x12E1 PUSH2 0x1292 JUMP JUMPDEST JUMPDEST PUSH0 PUSH2 0x12EF DUP5 DUP3 DUP6 ADD PUSH2 0x12B9 JUMP JUMPDEST SWAP2 POP POP SWAP3 SWAP2 POP POP JUMP JUMPDEST PUSH2 0x1301 DUP2 PUSH2 0x129A JUMP JUMPDEST DUP3 MSTORE POP POP JUMP JUMPDEST PUSH0 PUSH1 0x20 DUP3 ADD SWAP1 POP PUSH2 0x131A PUSH0 DUP4 ADD DUP5 PUSH2 0x12F8 JUMP JUMPDEST SWAP3 SWAP2 POP POP JUMP JUMPDEST PUSH0 DUP1 PUSH1 0x40 DUP4 DUP6 SUB SLT ISZERO PUSH2 0x1336 JUMPI PUSH2 0x1335 PUSH2 0x1292 JUMP JUMPDEST JUMPDEST PUSH0 PUSH2 0x1343 DUP6 DUP3 DUP7 ADD PUSH2 0x12B9 JUMP JUMPDEST SWAP3 POP POP PUSH1 0x20 PUSH2 0x1354 DUP6 DUP3 DUP7 ADD PUSH2 0x12B9 JUMP JUMPDEST SWAP2 POP POP SWAP3 POP SWAP3 SWAP1 POP JUMP JUMPDEST PUSH0 PUSH1 0x3 SWAP1 POP SWAP2 SWAP1 POP JUMP JUMPDEST PUSH0 DUP2 SWAP1 POP SWAP3 SWAP2 POP POP JUMP JUMPDEST PUSH0 DUP2 SWAP1 POP SWAP2 SWAP1 POP JUMP JUMPDEST PUSH2 0x1384 DUP2 PUSH2 0x129A JUMP JUMPDEST DUP3 MSTORE POP POP JUMP JUMPDEST PUSH0 PUSH2 0x1395 DUP4 DUP4 PUSH2 0x137B JUMP JUMPDEST PUSH1 0x20 DUP4 ADD SWAP1 POP SWAP3 SWAP2 POP POP JUMP JUMPDEST PUSH0 PUSH1 0x20 DUP3 ADD SWAP1 POP SWAP2 SWAP1 POP JUMP JUMPDEST PUSH2 0x13B6 DUP2 PUSH2 0x135E JUMP JUMPDEST PUSH2 0x13C0 DUP2 DUP5 PUSH2 0x1368 JUMP JUMPDEST SWAP3 POP PUSH2 0x13CB DUP3 PUSH2 0x1372 JUMP JUMPDEST DUP1 PUSH0 JUMPDEST DUP4 DUP2 LT ISZERO PUSH2 0x13FB JUMPI DUP2 MLOAD PUSH2 0x13E2 DUP8 DUP3 PUSH2 0x138A JUMP JUMPDEST SWAP7 POP PUSH2 0x13ED DUP4 PUSH2 0x13A1 JUMP JUMPDEST SWAP3 POP POP PUSH1 0x1 DUP2 ADD SWAP1 POP PUSH2 0x13CE JUMP JUMPDEST POP POP POP POP POP POP JUMP JUMPDEST PUSH0 PUSH1 0x60 DUP3 ADD SWAP1 POP PUSH2 0x1416 PUSH0 DUP4 ADD DUP5 PUSH2 0x13AD JUMP JUMPDEST SWAP3 SWAP2 POP POP JUMP JUMPDEST PUSH0 DUP1 REVERT JUMPDEST PUSH0 DUP2 SWAP1 POP DUP3 PUSH1 0x20 PUSH1 0x3 MUL DUP3 ADD GT ISZERO PUSH2 0x143B JUMPI PUSH2 0x143A PUSH2 0x141C JUMP JUMPDEST JUMPDEST SWAP3 SWAP2 POP POP JUMP JUMPDEST PUSH0 PUSH1 0x60 DUP3 DUP5 SUB SLT ISZERO PUSH2 0x1456 JUMPI PUSH2 0x1455 PUSH2 0x1292 JUMP JUMPDEST JUMPDEST PUSH0 PUSH2 0x1463 DUP5 DUP3 DUP6 ADD PUSH2 0x1420 JUMP JUMPDEST SWAP2 POP POP SWAP3 SWAP2 POP POP JUMP JUMPDEST PUSH0 DUP2 MLOAD SWAP1 POP SWAP2 SWAP1 POP JUMP JUMPDEST PUSH0 DUP3 DUP3 MSTORE PUSH1 0x20 DUP3 ADD SWAP1 POP SWAP3 SWAP2 POP POP JUMP JUMPDEST PUSH0 DUP2 SWAP1 POP PUSH1 0x20 DUP3 ADD SWAP1 POP SWAP2 SWAP1 POP JUMP JUMPDEST PUSH0 PUSH1 0x20 DUP3 ADD SWAP1 POP SWAP2 SWAP1 POP JUMP JUMPDEST PUSH0 PUSH2 0x14AB DUP3 PUSH2 0x146C JUMP JUMPDEST PUSH2 0x14B5 DUP2 DUP6 PUSH2 0x1476 JUMP JUMPDEST SWAP4 POP PUSH2 0x14C0 DUP4 PUSH2 0x1486 JUMP JUMPDEST DUP1 PUSH0 JUMPDEST DUP4 DUP2 LT ISZERO PUSH2 0x14F0 JUMPI DUP2 MLOAD PUSH2 0x14D7 DUP9 DUP3 PUSH2 0x138A JUMP JUMPDEST SWAP8 POP PUSH2 0x14E2 DUP4 PUSH2 0x1495 JUMP JUMPDEST SWAP3 POP POP PUSH1 0x1 DUP2 ADD SWAP1 POP PUSH2 0x14C3 JUMP JUMPDEST POP DUP6 SWAP4 POP POP POP POP SWAP3 SWAP2 POP POP JUMP JUMPDEST PUSH0 PUSH1 0x20 DUP3 ADD SWAP1 POP DUP2 DUP2 SUB PUSH0 DUP4 ADD MSTORE PUSH2 0x1515 DUP2 DUP5 PUSH2 0x14A1 JUMP JUMPDEST SWAP1 POP SWAP3 SWAP2 POP POP JUMP JUMPDEST PUSH0 PUSH20 0xFFFFFFFFFFFFFFFFFFFFFFFFFFFFFFFFFFFFFFFF DUP3 AND SWAP1 POP SWAP2 SWAP1 POP JUMP JUMPDEST PUSH0 PUSH2 0x1546 DUP3 PUSH2 0x151D JUMP JUMPDEST SWAP1 POP SWAP2 SWAP1 POP JUMP JUMPDEST PUSH2 0x1556 DUP2 PUSH2 0x153C JUMP JUMPDEST DUP3 MSTORE POP POP JUMP JUMPDEST PUSH0 DUP2 MLOAD SWAP1 POP SWAP2 SWAP1 POP JUMP JUMPDEST PUSH0 DUP3 DUP3 MSTORE PUSH1 0x20 DUP3 ADD SWAP1 POP SWAP3 SWAP2 POP POP JUMP JUMPDEST PUSH0 JUMPDEST DUP4 DUP2 LT ISZERO PUSH2 0x1593 JUMPI DUP1 DUP3 ADD MLOAD DUP2 DUP5 ADD MSTORE PUSH1 0x20 DUP2 ADD SWAP1 POP PUSH2 0x1578 JUMP JUMPDEST PUSH0 DUP5 DUP5 ADD MSTORE POP POP POP POP JUMP JUMPDEST PUSH0 PUSH1 0x1F NOT PUSH1 0x1F DUP4 ADD AND SWAP1 POP SWAP2 SWAP1 POP JUMP JUMPDEST PUSH0 PUSH2 0x15B8 DUP3 PUSH2 0x155C JUMP JUMPDEST PUSH2 0x15C2 DUP2 DUP6 PUSH2 0x1566 JUMP JUMPDEST SWAP4 POP PUSH2 0x15D2 DUP2 DUP6 PUSH1 0x20 DUP7 ADD PUSH2 0x1576 JUMP JUMPDEST PUSH2 0x15DB DUP2 PUSH2 0x159E JUMP JUMPDEST DUP5 ADD SWAP2 POP POP SWAP3 SWAP2 POP POP JUMP JUMPDEST PUSH0 PUSH1 0xFF DUP3 AND SWAP1 POP SWAP2 SWAP1 POP JUMP JUMPDEST PUSH2 0x15FB DUP2 PUSH2 0x15E6 JUMP JUMPDEST DUP3 MSTORE POP POP JUMP JUMPDEST PUSH32 0x4E487B7100000000000000000000000000000000000000000000000000000000 PUSH0 MSTORE PUSH1 0x21 PUSH1 0x4 MSTORE PUSH1 0x24 PUSH0 REVERT JUMPDEST PUSH1 0x3 DUP2 LT PUSH2 0x163F JUMPI PUSH2 0x163E PUSH2 0x1601 JUMP JUMPDEST JUMPDEST POP JUMP JUMPDEST PUSH0 DUP2 SWAP1 POP PUSH2 0x164F DUP3 PUSH2 0x162E JUMP JUMPDEST SWAP2 SWAP1 POP JUMP JUMPDEST PUSH0 PUSH2 0x165E DUP3 PUSH2 0x1642 JUMP JUMPDEST SWAP1 POP SWAP2 SWAP1 POP JUMP JUMPDEST PUSH2 0x166E DUP2 PUSH2 0x1654 JUMP JUMPDEST DUP3 MSTORE POP POP JUMP JUMPDEST PUSH0 PUSH1 0x80 DUP3 ADD SWAP1 POP PUSH2 0x1687 PUSH0 DUP4 ADD DUP8 PUSH2 0x154D JUMP JUMPDEST DUP2 DUP2 SUB PUSH1 0x20 DUP4 ADD MSTORE PUSH2 0x1699 DUP2 DUP7 PUSH2 0x15AE JUMP JUMPDEST SWAP1 POP PUSH2 0x16A8 PUSH1 0x40 DUP4 ADD DUP6 PUSH2 0x15F2 JUMP JUMPDEST PUSH2 0x16B5 PUSH1 0x60 DUP4 ADD DUP5 PUSH2 0x1665 JUMP JUMPDEST SWAP6 SWAP5 POP POP POP POP POP JUMP JUMPDEST PUSH0 PUSH1 0xA0 DUP3 ADD SWAP1 POP PUSH2 0x16D1 PUSH0 DUP4 ADD DUP9 PUSH2 0x154D JUMP JUMPDEST DUP2 DUP2 SUB PUSH1 0x20 DUP4 ADD MSTORE PUSH2 0x16E3 DUP2 DUP8 PUSH2 0x15AE JUMP JUMPDEST SWAP1 POP PUSH2 0x16F2 PUSH1 0x40 DUP4 ADD DUP7 PUSH2 0x15F2 JUMP JUMPDEST PUSH2 0x16FF PUSH1 0x60 DUP4 ADD DUP6 PUSH2 0x1665 JUMP JUMPDEST PUSH2 0x170C PUSH1 0x80 DUP4 ADD DUP5 PUSH2 0x12F8 JUMP JUMPDEST SWAP7 SWAP6 POP POP POP POP POP POP JUMP JUMPDEST PUSH0 DUP1 REVERT JUMPDEST PUSH0 DUP1 REVERT JUMPDEST PUSH0 DUP1 DUP4 PUSH1 0x1F DUP5 ADD SLT PUSH2 0x1733 JUMPI PUSH2 0x1732 PUSH2 0x1716 JUMP JUMPDEST JUMPDEST DUP3 CALLDATALOAD SWAP1 POP PUSH8 0xFFFFFFFFFFFFFFFF DUP2 GT ISZERO PUSH2 0x1750 JUMPI PUSH2 0x174F PUSH2 0x171A JUMP JUMPDEST JUMPDEST PUSH1 0x20 DUP4 ADD SWAP2 POP DUP4 PUSH1 0x1 DUP3 MUL DUP4 ADD GT ISZERO PUSH2 0x176C JUMPI PUSH2 0x176B PUSH2 0x141C JUMP JUMPDEST JUMPDEST SWAP3 POP SWAP3 SWAP1 POP JUMP JUMPDEST PUSH2 0x177C DUP2 PUSH2 0x15E6 JUMP JUMPDEST DUP2 EQ PUSH2 0x1786 JUMPI PUSH0 DUP1 REVERT JUMPDEST POP JUMP JUMPDEST PUSH0 DUP2 CALLDATALOAD SWAP1 POP PUSH2 0x1797 DUP2 PUSH2 0x1773 JUMP JUMPDEST SWAP3 SWAP2 POP POP JUMP JUMPDEST PUSH0 DUP1 PUSH0 PUSH1 0x40 DUP5 DUP7 SUB SLT ISZERO PUSH2 0x17B4 JUMPI PUSH2 0x17B3 PUSH2 0x1292 JUMP JUMPDEST JUMPDEST PUSH0 DUP5 ADD CALLDATALOAD PUSH8 0xFFFFFFFFFFFFFFFF DUP2 GT ISZERO PUSH2 0x17D1 JUMPI PUSH2 0x17D0 PUSH2 0x1296 JUMP JUMPDEST JUMPDEST PUSH2 0x17DD DUP7 DUP3 DUP8 ADD PUSH2 0x171E JUMP JUMPDEST SWAP4 POP SWAP4 POP POP PUSH1 0x20 PUSH2 0x17F0 DUP7 DUP3 DUP8 ADD PUSH2 0x1789 JUMP JUMPDEST SWAP2 POP POP SWAP3 POP SWAP3 POP SWAP3 JUMP JUMPDEST PUSH1 0x3 DUP2 LT PUSH2 0x1806 JUMPI PUSH0 DUP1 REVERT JUMPDEST POP JUMP JUMPDEST PUSH0 DUP2 CALLDATALOAD SWAP1 POP PUSH2 0x1817 DUP2 PUSH2 0x17FA JUMP JUMPDEST SWAP3 SWAP2 POP POP JUMP JUMPDEST PUSH0 DUP1 PUSH1 0x40 DUP4 DUP6 SUB SLT ISZERO PUSH2 0x1833 JUMPI PUSH2 0x1832 PUSH2 0x1292 JUMP JUMPDEST JUMPDEST PUSH0 PUSH2 0x1840 DUP6 DUP3 DUP7 ADD PUSH2 0x12B9 JUMP JUMPDEST SWAP3 POP POP PUSH1 0x20 PUSH2 0x1851 DUP6 DUP3 DUP7 ADD PUSH2 0x1809 JUMP JUMPDEST SWAP2 POP POP SWAP3 POP SWAP3 SWAP1 POP JUMP JUMPDEST PUSH32 0x4E487B7100000000000000000000000000000000000000000000000000000000 PUSH0 MSTORE PUSH1 0x32 PUSH1 0x4 MSTORE PUSH1 0x24 PUSH0 REVERT JUMPDEST PUSH32 0x4E487B7100000000000000000000000000000000000000000000000000000000 PUSH0 MSTORE PUSH1 0x11 PUSH1 0x4 MSTORE PUSH1 0x24 PUSH0 REVERT JUMPDEST PUSH0 PUSH2 0x18BF DUP3 PUSH2 0x129A JUMP JUMPDEST SWAP2 POP PUSH32 0xFFFFFFFFFFFFFFFFFFFFFFFFFFFFFFFFFFFFFFFFFFFFFFFFFFFFFFFFFFFFFFFF DUP3 SUB PUSH2 0x18F1 JUMPI PUSH2 0x18F0 PUSH2 0x1888 JUMP JUMPDEST JUMPDEST PUSH1 0x1 DUP3 ADD SWAP1 POP SWAP2 SWAP1 POP JUMP JUMPDEST PUSH32 0x69647820696E76616C69646F0000000000000000000000000000000000000000 PUSH0 DUP3 ADD MSTORE POP JUMP JUMPDEST PUSH0 PUSH2 0x1930 PUSH1 0xC DUP4 PUSH2 0x1566 JUMP JUMPDEST SWAP2 POP PUSH2 0x193B DUP3 PUSH2 0x18FC JUMP JUMPDEST PUSH1 0x20 DUP3 ADD SWAP1 POP SWAP2 SWAP1 POP JUMP JUMPDEST PUSH0 PUSH1 0x20 DUP3 ADD SWAP1 POP DUP2 DUP2 SUB PUSH0 DUP4 ADD MSTORE PUSH2 0x195D DUP2 PUSH2 0x1924 JUMP JUMPDEST SWAP1 POP SWAP2 SWAP1 POP JUMP JUMPDEST PUSH0 PUSH2 0x196E DUP3 PUSH2 0x129A JUMP JUMPDEST SWAP2 POP PUSH2 0x1979 DUP4 PUSH2 0x129A JUMP JUMPDEST SWAP3 POP DUP3 DUP3 ADD SWAP1 POP DUP1 DUP3 GT ISZERO PUSH2 0x1991 JUMPI PUSH2 0x1990 PUSH2 0x1888 JUMP JUMPDEST JUMPDEST SWAP3 SWAP2 POP POP JUMP JUMPDEST PUSH32 0x4E487B7100000000000000000000000000000000000000000000000000000000 PUSH0 MSTORE PUSH1 0x12 PUSH1 0x4 MSTORE PUSH1 0x24 PUSH0 REVERT JUMPDEST PUSH0 PUSH2 0x19CE DUP3 PUSH2 0x129A JUMP JUMPDEST SWAP2 POP PUSH2 0x19D9 DUP4 PUSH2 0x129A JUMP JUMPDEST SWAP3 POP DUP3 PUSH2 0x19E9 JUMPI PUSH2 0x19E8 PUSH2 0x1997 JUMP JUMPDEST JUMPDEST DUP3 DUP3 DIV SWAP1 POP SWAP3 SWAP2 POP POP JUMP JUMPDEST PUSH32 0x73696E20616C756D6E6F73000000000000000000000000000000000000000000 PUSH0 DUP3 ADD MSTORE POP JUMP JUMPDEST PUSH0 PUSH2 0x1A28 PUSH1 0xB DUP4 PUSH2 0x1566 JUMP JUMPDEST SWAP2 POP PUSH2 0x1A33 DUP3 PUSH2 0x19F4 JUMP JUMPDEST PUSH1 0x20 DUP3 ADD SWAP1 POP SWAP2 SWAP1 POP JUMP JUMPDEST PUSH0 PUSH1 0x20 DUP3 ADD SWAP1 POP DUP2 DUP2 SUB PUSH0 DUP4 ADD MSTORE PUSH2 0x1A55 DUP2 PUSH2 0x1A1C JUMP JUMPDEST SWAP1 POP SWAP2 SWAP1 POP JUMP JUMPDEST PUSH32 0x4E487B7100000000000000000000000000000000000000000000000000000000 PUSH0 MSTORE PUSH1 0x31 PUSH1 0x4 MSTORE PUSH1 0x24 PUSH0 REVERT JUMPDEST PUSH32 0x4E487B7100000000000000000000000000000000000000000000000000000000 PUSH0 MSTORE PUSH1 0x22 PUSH1 0x4 MSTORE PUSH1 0x24 PUSH0 REVERT JUMPDEST PUSH0 PUSH1 0x2 DUP3 DIV SWAP1 POP PUSH1 0x1 DUP3 AND DUP1 PUSH2 0x1ACD JUMPI PUSH1 0x7F DUP3 AND SWAP2 POP JUMPDEST PUSH1 0x20 DUP3 LT DUP2 SUB PUSH2 0x1AE0 JUMPI PUSH2 0x1ADF PUSH2 0x1A89 JUMP JUMPDEST JUMPDEST POP SWAP2 SWAP1 POP JUMP JUMPDEST PUSH32 0x4E487B7100000000000000000000000000000000000000000000000000000000 PUSH0 MSTORE PUSH1 0x41 PUSH1 0x4 MSTORE PUSH1 0x24 PUSH0 REVERT JUMPDEST PUSH0 DUP2 SWAP1 POP DUP2 PUSH0 MSTORE PUSH1 0x20 PUSH0 KECCAK256 SWAP1 POP SWAP2 SWAP1 POP JUMP JUMPDEST PUSH0 PUSH1 0x20 PUSH1 0x1F DUP4 ADD DIV SWAP1 POP SWAP2 SWAP1 POP JUMP JUMPDEST PUSH0 DUP3 DUP3 SHL SWAP1 POP SWAP3 SWAP2 POP POP JUMP JUMPDEST PUSH0 PUSH1 0x8 DUP4 MUL PUSH2 0x1B6F PUSH32 0xFFFFFFFFFFFFFFFFFFFFFFFFFFFFFFFFFFFFFFFFFFFFFFFFFFFFFFFFFFFFFFFF DUP3 PUSH2 0x1B34 JUMP JUMPDEST PUSH2 0x1B79 DUP7 DUP4 PUSH2 0x1B34 JUMP JUMPDEST SWAP6 POP DUP1 NOT DUP5 AND SWAP4 POP DUP1 DUP7 AND DUP5 OR SWAP3 POP POP POP SWAP4 SWAP3 POP POP POP JUMP JUMPDEST PUSH0 DUP2 SWAP1 POP SWAP2 SWAP1 POP JUMP JUMPDEST PUSH0 PUSH2 0x1BB4 PUSH2 0x1BAF PUSH2 0x1BAA DUP5 PUSH2 0x129A JUMP JUMPDEST PUSH2 0x1B91 JUMP JUMPDEST PUSH2 0x129A JUMP JUMPDEST SWAP1 POP SWAP2 SWAP1 POP JUMP JUMPDEST PUSH0 DUP2 SWAP1 POP SWAP2 SWAP1 POP JUMP JUMPDEST PUSH2 0x1BCD DUP4 PUSH2 0x1B9A JUMP JUMPDEST PUSH2 0x1BE1 PUSH2 0x1BD9 DUP3 PUSH2 0x1BBB JUMP JUMPDEST DUP5 DUP5 SLOAD PUSH2 0x1B40 JUMP JUMPDEST DUP3 SSTORE POP POP POP POP JUMP JUMPDEST PUSH0 SWAP1 JUMP JUMPDEST PUSH2 0x1BF5 PUSH2 0x1BE9 JUMP JUMPDEST PUSH2 0x1C00 DUP2 DUP5 DUP5 PUSH2 0x1BC4 JUMP JUMPDEST POP POP POP JUMP JUMPDEST JUMPDEST DUP2 DUP2 LT ISZERO PUSH2 0x1C23 JUMPI PUSH2 0x1C18 PUSH0 DUP3 PUSH2 0x1BED JUMP JUMPDEST PUSH1 0x1 DUP2 ADD SWAP1 POP PUSH2 0x1C06 JUMP JUMPDEST POP POP JUMP JUMPDEST PUSH1 0x1F DUP3 GT ISZERO PUSH2 0x1C68 JUMPI PUSH2 0x1C39 DUP2 PUSH2 0x1B13 JUMP JUMPDEST PUSH2 0x1C42 DUP5 PUSH2 0x1B25 JUMP JUMPDEST DUP2 ADD PUSH1 0x20 DUP6 LT ISZERO PUSH2 0x1C51 JUMPI DUP2 SWAP1 POP JUMPDEST PUSH2 0x1C65 PUSH2 0x1C5D DUP6 PUSH2 0x1B25 JUMP JUMPDEST DUP4 ADD DUP3 PUSH2 0x1C05 JUMP JUMPDEST POP POP JUMPDEST POP POP POP JUMP JUMPDEST PUSH0 DUP3 DUP3 SHR SWAP1 POP SWAP3 SWAP2 POP POP JUMP JUMPDEST PUSH0 PUSH2 0x1C88 PUSH0 NOT DUP5 PUSH1 0x8 MUL PUSH2 0x1C6D JUMP JUMPDEST NOT DUP1 DUP4 AND SWAP2 POP POP SWAP3 SWAP2 POP POP JUMP JUMPDEST PUSH0 PUSH2 0x1CA0 DUP4 DUP4 PUSH2 0x1C79 JUMP JUMPDEST SWAP2 POP DUP3 PUSH1 0x2 MUL DUP3 OR SWAP1 POP SWAP3 SWAP2 POP POP JUMP JUMPDEST PUSH2 0x1CB9 DUP3 PUSH2 0x155C JUMP JUMPDEST PUSH8 0xFFFFFFFFFFFFFFFF DUP2 GT ISZERO PUSH2 0x1CD2 JUMPI PUSH2 0x1CD1 PUSH2 0x1AE6 JUMP JUMPDEST JUMPDEST PUSH2 0x1CDC DUP3 SLOAD PUSH2 0x1AB6 JUMP JUMPDEST PUSH2 0x1CE7 DUP3 DUP3 DUP6 PUSH2 0x1C27 JUMP JUMPDEST PUSH0 PUSH1 0x20 SWAP1 POP PUSH1 0x1F DUP4 GT PUSH1 0x1 DUP2 EQ PUSH2 0x1D18 JUMPI PUSH0 DUP5 ISZERO PUSH2 0x1D06 JUMPI DUP3 DUP8 ADD MLOAD SWAP1 POP JUMPDEST PUSH2 0x1D10 DUP6 DUP3 PUSH2 0x1C95 JUMP JUMPDEST DUP7 SSTORE POP PUSH2 0x1D77 JUMP JUMPDEST PUSH1 0x1F NOT DUP5 AND PUSH2 0x1D26 DUP7 PUSH2 0x1B13 JUMP JUMPDEST PUSH0 JUMPDEST DUP3 DUP2 LT ISZERO PUSH2 0x1D4D JUMPI DUP5 DUP10 ADD MLOAD DUP3 SSTORE PUSH1 0x1 DUP3 ADD SWAP2 POP PUSH1 0x20 DUP6 ADD SWAP5 POP PUSH1 0x20 DUP2 ADD SWAP1 POP PUSH2 0x1D28 JUMP JUMPDEST DUP7 DUP4 LT ISZERO PUSH2 0x1D6A JUMPI DUP5 DUP10 ADD MLOAD PUSH2 0x1D66 PUSH1 0x1F DUP10 AND DUP3 PUSH2 0x1C79 JUMP JUMPDEST DUP4 SSTORE POP JUMPDEST PUSH1 0x1 PUSH1 0x2 DUP9 MUL ADD DUP9 SSTORE POP POP POP JUMPDEST POP POP POP POP POP POP JUMP JUMPDEST PUSH0 PUSH2 0x1D89 DUP3 PUSH2 0x129A JUMP JUMPDEST SWAP2 POP PUSH2 0x1D94 DUP4 PUSH2 0x129A JUMP JUMPDEST SWAP3 POP DUP3 DUP3 SUB SWAP1 POP DUP2 DUP2 GT ISZERO PUSH2 0x1DAC JUMPI PUSH2 0x1DAB PUSH2 0x1888 JUMP JUMPDEST JUMPDEST SWAP3 SWAP2 POP POP JUMP JUMPDEST DUP3 DUP2 DUP4 CALLDATACOPY PUSH0 DUP4 DUP4 ADD MSTORE POP POP POP JUMP JUMPDEST PUSH0 PUSH2 0x1DCB DUP4 DUP6 PUSH2 0x1566 JUMP JUMPDEST SWAP4 POP PUSH2 0x1DD8 DUP4 DUP6 DUP5 PUSH2 0x1DB2 JUMP JUMPDEST PUSH2 0x1DE1 DUP4 PUSH2 0x159E JUMP JUMPDEST DUP5 ADD SWAP1 POP SWAP4 SWAP3 POP POP POP JUMP JUMPDEST PUSH0 PUSH1 0x60 DUP3 ADD SWAP1 POP PUSH2 0x1DFF PUSH0 DUP4 ADD DUP8 PUSH2 0x154D JUMP JUMPDEST DUP2 DUP2 SUB PUSH1 0x20 DUP4 ADD MSTORE PUSH2 0x1E12 DUP2 DUP6 DUP8 PUSH2 0x1DC0 JUMP JUMPDEST SWAP1 POP PUSH2 0x1E21 PUSH1 0x40 DUP4 ADD DUP5 PUSH2 0x15F2 JUMP JUMPDEST SWAP6 SWAP5 POP POP POP POP POP JUMP JUMPDEST PUSH32 0x69647820696E76616C69646F7300000000000000000000000000000000000000 PUSH0 DUP3 ADD MSTORE POP JUMP JUMPDEST PUSH0 PUSH2 0x1E5E PUSH1 0xD DUP4 PUSH2 0x1566 JUMP JUMPDEST SWAP2 POP PUSH2 0x1E69 DUP3 PUSH2 0x1E2A JUMP JUMPDEST PUSH1 0x20 DUP3 ADD SWAP1 POP SWAP2 SWAP1 POP JUMP JUMPDEST PUSH0 PUSH1 0x20 DUP3 ADD SWAP1 POP DUP2 DUP2 SUB PUSH0 DUP4 ADD MSTORE PUSH2 0x1E8B DUP2 PUSH2 0x1E52 JUMP JUMPDEST SWAP1 POP SWAP2 SWAP1 POP JUMP JUMPDEST PUSH0 DUP2 SLOAD SWAP1 POP PUSH2 0x1EA0 DUP2 PUSH2 0x1AB6 JUMP JUMPDEST SWAP1 POP SWAP2 SWAP1 POP JUMP JUMPDEST PUSH0 DUP2 SWAP1 POP DUP2 PUSH0 MSTORE PUSH1 0x20 PUSH0 KECCAK256 SWAP1 POP SWAP2 SWAP1 POP JUMP JUMPDEST DUP2 DUP2 SUB PUSH2 0x1EC7 JUMPI POP POP PUSH2 0x1F9C JUMP JUMPDEST PUSH2 0x1ED0 DUP3 PUSH2 0x1E92 JUMP JUMPDEST PUSH8 0xFFFFFFFFFFFFFFFF DUP2 GT ISZERO PUSH2 0x1EE9 JUMPI PUSH2 0x1EE8 PUSH2 0x1AE6 JUMP JUMPDEST JUMPDEST PUSH2 0x1EF3 DUP3 SLOAD PUSH2 0x1AB6 JUMP JUMPDEST PUSH2 0x1EFE DUP3 DUP3 DUP6 PUSH2 0x1C27 JUMP JUMPDEST PUSH0 PUSH1 0x1F DUP4 GT PUSH1 0x1 DUP2 EQ PUSH2 0x1F2B JUMPI PUSH0 DUP5 ISZERO PUSH2 0x1F19 JUMPI DUP3 DUP8 ADD SLOAD SWAP1 POP JUMPDEST PUSH2 0x1F23 DUP6 DUP3 PUSH2 0x1C95 JUMP JUMPDEST DUP7 SSTORE POP PUSH2 0x1F95 JUMP JUMPDEST PUSH1 0x1F NOT DUP5 AND PUSH2 0x1F39 DUP8 PUSH2 0x1EA7 JUMP JUMPDEST SWAP7 POP PUSH2 0x1F44 DUP7 PUSH2 0x1B13 JUMP JUMPDEST PUSH0 JUMPDEST DUP3 DUP2 LT ISZERO PUSH2 0x1F6B JUMPI DUP5 DUP10 ADD SLOAD DUP3 SSTORE PUSH1 0x1 DUP3 ADD SWAP2 POP PUSH1 0x1 DUP6 ADD SWAP5 POP PUSH1 0x20 DUP2 ADD SWAP1 POP PUSH2 0x1F46 JUMP JUMPDEST DUP7 DUP4 LT ISZERO PUSH2 0x1F88 JUMPI DUP5 DUP10 ADD SLOAD PUSH2 0x1F84 PUSH1 0x1F DUP10 AND DUP3 PUSH2 0x1C79 JUMP JUMPDEST DUP4 SSTORE POP JUMPDEST PUSH1 0x1 PUSH1 0x2 DUP9 MUL ADD DUP9 SSTORE POP POP POP JUMPDEST POP POP POP POP POP POP JUMPDEST JUMP JUMPDEST PUSH0 PUSH1 0x20 DUP3 ADD SWAP1 POP PUSH2 0x1FB1 PUSH0 DUP4 ADD DUP5 PUSH2 0x1665 JUMP JUMPDEST SWAP3 SWAP2 POP POP JUMP INVALID LOG2 PUSH5 0x6970667358 0x22 SLT KECCAK256 PUSH4 0x64A9D3EB 0x21 0xE1 0xDC 0xE4 SWAP12 PC CALLDATACOPY LOG1 ADDMOD 0x4C PUSH14 0x144F416E8093BD8246E2DF3FE0CA SELFDESTRUCT GASLIMIT PUSH5 0x736F6C6343 STOP ADDMOD EQ STOP CALLER "
		},
		"gasEstimates": {
			"creation": {
				"codeDepositCost": "1634600",
				"executionCost": "1713",
				"totalCost": "1636313"
			},
			"external": {
				"actualizarEstado(uint256,uint8)": "30939",
				"agregarNota(uint256,uint256)": "infinite",
				"alumnos(uint256)": "infinite",
				"borrarAlumno(uint256)": "infinite",
				"calificacionesGlobales(uint256)": "infinite",
				"contarActivos()": "infinite",
				"eliminarUltimoAlumno()": "infinite",
				"getTop3()": "infinite",
				"notasDe(uint256)": "infinite",
				"promedio(uint256)": "infinite",
				"registrarAlumno(string,uint8)": "infinite",
				"setTop3(uint256[3])": "infinite",
				"swapAlumnos(uint256,uint256)": "infinite",
				"top3(uint256)": "infinite",
				"totalAlumnos()": "2486",
				"verAlumno(uint256)": "infinite"
			}
		},
		"methodIdentifiers": {
			"actualizarEstado(uint256,uint8)": "f019ec66",
			"agregarNota(uint256,uint256)": "3eb492a7",
			"alumnos(uint256)": "69ddcade",
			"borrarAlumno(uint256)": "794aa4cf",
			"calificacionesGlobales(uint256)": "00e2d63d",
			"contarActivos()": "23ffccae",
			"eliminarUltimoAlumno()": "4fe2c716",
			"getTop3()": "4061a5bf",
			"notasDe(uint256)": "55b867e2",
			"promedio(uint256)": "2805e8f9",
			"registrarAlumno(string,uint8)": "aafe533b",
			"setTop3(uint256[3])": "53439cac",
			"swapAlumnos(uint256,uint256)": "da67c23d",
			"top3(uint256)": "c9bf5b15",
			"totalAlumnos()": "087996b8",
			"verAlumno(uint256)": "a958c530"
		}
	},
	"abi": [
		{
			"anonymous": false,
			"inputs": [
				{
					"indexed": true,
					"internalType": "uint256",
					"name": "idx",
					"type": "uint256"
				},
				{
					"indexed": false,
					"internalType": "address",
					"name": "cuenta",
					"type": "address"
				},
				{
					"indexed": false,
					"internalType": "string",
					"name": "nombre",
					"type": "string"
				},
				{
					"indexed": false,
					"internalType": "uint8",
					"name": "edad",
					"type": "uint8"
				}
			],
			"name": "AlumnoRegistrado",
			"type": "event"
		},
		{
			"anonymous": false,
			"inputs": [
				{
					"indexed": true,
					"internalType": "uint256",
					"name": "idx",
					"type": "uint256"
				},
				{
					"indexed": false,
					"internalType": "enum RegistroEstudiantes.Estado",
					"name": "nuevo",
					"type": "uint8"
				}
			],
			"name": "EstadoActualizado",
			"type": "event"
		},
		{
			"anonymous": false,
			"inputs": [
				{
					"indexed": true,
					"internalType": "uint256",
					"name": "idx",
					"type": "uint256"
				},
				{
					"indexed": false,
					"internalType": "uint256",
					"name": "nota",
					"type": "uint256"
				}
			],
			"name": "NotaAgregada",
			"type": "event"
		},
		{
			"inputs": [
				{
					"internalType": "uint256",
					"name": "idx",
					"type": "uint256"
				},
				{
					"internalType": "enum RegistroEstudiantes.Estado",
					"name": "nuevoEstado",
					"type": "uint8"
				}
			],
			"name": "actualizarEstado",
			"outputs": [],
			"stateMutability": "nonpayable",
			"type": "function"
		},
		{
			"inputs": [
				{
					"internalType": "uint256",
					"name": "idx",
					"type": "uint256"
				},
				{
					"internalType": "uint256",
					"name": "nota",
					"type": "uint256"
				}
			],
			"name": "agregarNota",
			"outputs": [],
			"stateMutability": "nonpayable",
			"type": "function"
		},
		{
			"inputs": [
				{
					"internalType": "uint256",
					"name": "",
					"type": "uint256"
				}
			],
			"name": "alumnos",
			"outputs": [
				{
					"internalType": "address",
					"name": "cuenta",
					"type": "address"
				},
				{
					"internalType": "string",
					"name": "nombre",
					"type": "string"
				},
				{
					"internalType": "uint8",
					"name": "edad",
					"type": "uint8"
				},
				{
					"internalType": "enum RegistroEstudiantes.Estado",
					"name": "estado",
					"type": "uint8"
				}
			],
			"stateMutability": "view",
			"type": "function"
		},
		{
			"inputs": [
				{
					"internalType": "uint256",
					"name": "idx",
					"type": "uint256"
				}
			],
			"name": "borrarAlumno",
			"outputs": [],
			"stateMutability": "nonpayable",
			"type": "function"
		},
		{
			"inputs": [
				{
					"internalType": "uint256",
					"name": "",
					"type": "uint256"
				}
			],
			"name": "calificacionesGlobales",
			"outputs": [
				{
					"internalType": "uint256",
					"name": "",
					"type": "uint256"
				}
			],
			"stateMutability": "view",
			"type": "function"
		},
		{
			"inputs": [],
			"name": "contarActivos",
			"outputs": [
				{
					"internalType": "uint256",
					"name": "activos",
					"type": "uint256"
				}
			],
			"stateMutability": "view",
			"type": "function"
		},
		{
			"inputs": [],
			"name": "eliminarUltimoAlumno",
			"outputs": [],
			"stateMutability": "nonpayable",
			"type": "function"
		},
		{
			"inputs": [],
			"name": "getTop3",
			"outputs": [
				{
					"internalType": "uint256[3]",
					"name": "",
					"type": "uint256[3]"
				}
			],
			"stateMutability": "view",
			"type": "function"
		},
		{
			"inputs": [
				{
					"internalType": "uint256",
					"name": "idx",
					"type": "uint256"
				}
			],
			"name": "notasDe",
			"outputs": [
				{
					"internalType": "uint256[]",
					"name": "",
					"type": "uint256[]"
				}
			],
			"stateMutability": "view",
			"type": "function"
		},
		{
			"inputs": [
				{
					"internalType": "uint256",
					"name": "idx",
					"type": "uint256"
				}
			],
			"name": "promedio",
			"outputs": [
				{
					"internalType": "uint256",
					"name": "",
					"type": "uint256"
				}
			],
			"stateMutability": "view",
			"type": "function"
		},
		{
			"inputs": [
				{
					"internalType": "string",
					"name": "nombre",
					"type": "string"
				},
				{
					"internalType": "uint8",
					"name": "edad",
					"type": "uint8"
				}
			],
			"name": "registrarAlumno",
			"outputs": [
				{
					"internalType": "uint256",
					"name": "idx",
					"type": "uint256"
				}
			],
			"stateMutability": "nonpayable",
			"type": "function"
		},
		{
			"inputs": [
				{
					"internalType": "uint256[3]",
					"name": "nuevosTop",
					"type": "uint256[3]"
				}
			],
			"name": "setTop3",
			"outputs": [],
			"stateMutability": "nonpayable",
			"type": "function"
		},
		{
			"inputs": [
				{
					"internalType": "uint256",
					"name": "i",
					"type": "uint256"
				},
				{
					"internalType": "uint256",
					"name": "j",
					"type": "uint256"
				}
			],
			"name": "swapAlumnos",
			"outputs": [],
			"stateMutability": "nonpayable",
			"type": "function"
		},
		{
			"inputs": [
				{
					"internalType": "uint256",
					"name": "",
					"type": "uint256"
				}
			],
			"name": "top3",
			"outputs": [
				{
					"internalType": "uint256",
					"name": "",
					"type": "uint256"
				}
			],
			"stateMutability": "view",
			"type": "function"
		},
		{
			"inputs": [],
			"name": "totalAlumnos",
			"outputs": [
				{
					"internalType": "uint256",
					"name": "",
					"type": "uint256"
				}
			],
			"stateMutability": "view",
			"type": "function"
		},
		{
			"inputs": [
				{
					"internalType": "uint256",
					"name": "idx",
					"type": "uint256"
				}
			],
			"name": "verAlumno",
			"outputs": [
				{
					"internalType": "address",
					"name": "cuenta",
					"type": "address"
				},
				{
					"internalType": "string",
					"name": "nombre",
					"type": "string"
				},
				{
					"internalType": "uint8",
					"name": "edad",
					"type": "uint8"
				},
				{
					"internalType": "enum RegistroEstudiantes.Estado",
					"name": "estado",
					"type": "uint8"
				},
				{
					"internalType": "uint256",
					"name": "notasCount",
					"type": "uint256"
				}
			],
			"stateMutability": "view",
			"type": "function"
		}
	]
}