{
	"data": {
		"bytecode": {
			"linkReferences": {},
			"object": "608060405260015f556001801460015f6101000a81548160ff021916908315150217905550670de0b6b3a764000060025534801561003b575f80fd5b50610154806100495f395ff3fe608060405234801561000f575f80fd5b506004361061003f575f3560e01c80634fb2e0be14610043578063d297a89f14610061578063f20880a71461007f575b5f80fd5b61004b61009d565b60405161005891906100d2565b60405180910390f35b6100696100a2565b60405161007691906100d2565b60405180910390f35b6100876100a8565b6040516100949190610105565b60405180910390f35b5f5481565b60025481565b60015f9054906101000a900460ff1681565b5f819050919050565b6100cc816100ba565b82525050565b5f6020820190506100e55f8301846100c3565b92915050565b5f8115159050919050565b6100ff816100eb565b82525050565b5f6020820190506101185f8301846100f6565b9291505056fea26469706673582212203598d91520ab2f5a24be45bf9a559dc3479e2f09560c644c9dd2270026ed0f6e64736f6c63430008140033",
			"opcodes": "PUSH1 0x80 PUSH1 0x40 MSTORE PUSH1 0x1 PUSH0 SSTORE PUSH1 0x1 DUP1 EQ PUSH1 0x1 PUSH0 PUSH2 0x100 EXP DUP2 SLOAD DUP2 PUSH1 0xFF MUL NOT AND SWAP1 DUP4 ISZERO ISZERO MUL OR SWAP1 SSTORE POP PUSH8 0xDE0B6B3A7640000 PUSH1 0x2 SSTORE CALLVALUE DUP1 ISZERO PUSH2 0x3B JUMPI PUSH0 DUP1 REVERT JUMPDEST POP PUSH2 0x154 DUP1 PUSH2 0x49 PUSH0 CODECOPY PUSH0 RETURN INVALID PUSH1 0x80 PUSH1 0x40 MSTORE CALLVALUE DUP1 ISZERO PUSH2 0xF JUMPI PUSH0 DUP1 REVERT JUMPDEST POP PUSH1 0x4 CALLDATASIZE LT PUSH2 0x3F JUMPI PUSH0 CALLDATALOAD PUSH1 0xE0 SHR DUP1 PUSH4 0x4FB2E0BE EQ PUSH2 0x43 JUMPI DUP1 PUSH4 0xD297A89F EQ PUSH2 0x61 JUMPI DUP1 PUSH4 0xF20880A7 EQ PUSH2 0x7F JUMPI JUMPDEST PUSH0 DUP1 REVERT JUMPDEST PUSH2 0x4B PUSH2 0x9D JUMP JUMPDEST PUSH1 0x40 MLOAD PUSH2 0x58 SWAP2 SWAP1 PUSH2 0xD2 JUMP JUMPDEST PUSH1 0x40 MLOAD DUP1 SWAP2 SUB SWAP1 RETURN JUMPDEST PUSH2 0x69 PUSH2 0xA2 JUMP JUMPDEST PUSH1 0x40 MLOAD PUSH2 0x76 SWAP2 SWAP1 PUSH2 0xD2 JUMP JUMPDEST PUSH1 0x40 MLOAD DUP1 SWAP2 SUB SWAP1 RETURN JUMPDEST PUSH2 0x87 PUSH2 0xA8 JUMP JUMPDEST PUSH1 0x40 MLOAD PUSH2 0x94 SWAP2 SWAP1 PUSH2 0x105 JUMP JUMPDEST PUSH1 0x40 MLOAD DUP1 SWAP2 SUB SWAP1 RETURN JUMPDEST PUSH0 SLOAD DUP2 JUMP JUMPDEST PUSH1 0x2 SLOAD DUP2 JUMP JUMPDEST PUSH1 0x1 PUSH0 SWAP1 SLOAD SWAP1 PUSH2 0x100 EXP SWAP1 DIV PUSH1 0xFF AND DUP2 JUMP JUMPDEST PUSH0 DUP2 SWAP1 POP SWAP2 SWAP1 POP JUMP JUMPDEST PUSH2 0xCC DUP2 PUSH2 0xBA JUMP JUMPDEST DUP3 MSTORE POP POP JUMP JUMPDEST PUSH0 PUSH1 0x20 DUP3 ADD SWAP1 POP PUSH2 0xE5 PUSH0 DUP4 ADD DUP5 PUSH2 0xC3 JUMP JUMPDEST SWAP3 SWAP2 POP POP JUMP JUMPDEST PUSH0 DUP2 ISZERO ISZERO SWAP1 POP SWAP2 SWAP1 POP JUMP JUMPDEST PUSH2 0xFF DUP2 PUSH2 0xEB JUMP JUMPDEST DUP3 MSTORE POP POP JUMP JUMPDEST PUSH0 PUSH1 0x20 DUP3 ADD SWAP1 POP PUSH2 0x118 PUSH0 DUP4 ADD DUP5 PUSH2 0xF6 JUMP JUMPDEST SWAP3 SWAP2 POP POP JUMP INVALID LOG2 PUSH5 0x6970667358 0x22 SLT KECCAK256 CALLDATALOAD SWAP9 0xD9 ISZERO KECCAK256 0xAB 0x2F GAS 0x24 0xBE GASLIMIT 0xBF SWAP11 SSTORE SWAP14 0xC3 SELFBALANCE SWAP15 0x2F MULMOD JUMP 0xC PUSH5 0x4C9DD22700 0x26 0xED 0xF PUSH15 0x64736F6C6343000814003300000000 "
		},
		"gasEstimates": {
			"creation": {
				"codeDepositCost": "68000",
				"executionCost": "68598",
				"totalCost": "136598"
			},
			"external": {
				"inOnewei()": "2488",
				"oneEther()": "2425",
				"oneWei()": "2402"
			}
		},
		"methodIdentifiers": {
			"inOnewei()": "f20880a7",
			"oneEther()": "d297a89f",
			"oneWei()": "4fb2e0be"
		}
	},
	"abi": [
		{
			"inputs": [],
			"name": "inOnewei",
			"outputs": [
				{
					"internalType": "bool",
					"name": "",
					"type": "bool"
				}
			],
			"stateMutability": "view",
			"type": "function"
		},
		{
			"inputs": [],
			"name": "oneEther",
			"outputs": [
				{
					"internalType": "uint256",
					"name": "",
					"type": "uint256"
				}
			],
			"stateMutability": "view",
			"type": "function"
		},
		{
			"inputs": [],
			"name": "oneWei",
			"outputs": [
				{
					"internalType": "uint256",
					"name": "",
					"type": "uint256"
				}
			],
			"stateMutability": "view",
			"type": "function"
		}
	]
}